{
	"DecentralisedProperty.sol": {
		"DecentralisedProperty": {
			"abi": [
				{
					"inputs": [],
					"stateMutability": "nonpayable",
					"type": "constructor"
				},
				{
					"anonymous": false,
					"inputs": [
						{
							"indexed": true,
							"internalType": "address",
							"name": "user",
							"type": "address"
						}
					],
					"name": "IdentityVerified",
					"type": "event"
				},
				{
					"anonymous": false,
					"inputs": [
						{
							"indexed": true,
							"internalType": "address",
							"name": "ownerAddress",
							"type": "address"
						},
						{
							"indexed": false,
							"internalType": "string",
							"name": "ownerName",
							"type": "string"
						},
						{
							"indexed": false,
							"internalType": "uint256",
							"name": "price",
							"type": "uint256"
						}
					],
					"name": "PropertyAdded",
					"type": "event"
				},
				{
					"anonymous": false,
					"inputs": [
						{
							"indexed": true,
							"internalType": "address",
							"name": "buyer",
							"type": "address"
						},
						{
							"indexed": true,
							"internalType": "address",
							"name": "sellerAddress",
							"type": "address"
						}
					],
					"name": "PropertyPending",
					"type": "event"
				},
				{
					"anonymous": false,
					"inputs": [
						{
							"indexed": true,
							"internalType": "address",
							"name": "buyer",
							"type": "address"
						},
						{
							"indexed": true,
							"internalType": "address",
							"name": "sellerAddress",
							"type": "address"
						},
						{
							"indexed": false,
							"internalType": "uint256",
							"name": "price",
							"type": "uint256"
						}
					],
					"name": "PropertySold",
					"type": "event"
				},
				{
					"inputs": [
						{
							"internalType": "string",
							"name": "ownerName",
							"type": "string"
						},
						{
							"internalType": "string",
							"name": "propertyDescription",
							"type": "string"
						},
						{
							"internalType": "uint256",
							"name": "askingPrice",
							"type": "uint256"
						}
					],
					"name": "addProperty",
					"outputs": [],
					"stateMutability": "nonpayable",
					"type": "function"
				},
				{
					"inputs": [
						{
							"internalType": "address",
							"name": "buyerAddress",
							"type": "address"
						},
						{
							"internalType": "address",
							"name": "currentOwnerAddress",
							"type": "address"
						}
					],
					"name": "approvePurchase",
					"outputs": [],
					"stateMutability": "nonpayable",
					"type": "function"
				},
				{
					"inputs": [
						{
							"internalType": "address payable",
							"name": "buyerAddress",
							"type": "address"
						},
						{
							"internalType": "address payable",
							"name": "sellerAddress",
							"type": "address"
						}
					],
					"name": "confirmPurchase",
					"outputs": [],
					"stateMutability": "payable",
					"type": "function"
				},
				{
					"inputs": [],
					"name": "contractOwner",
					"outputs": [
						{
							"internalType": "address payable",
							"name": "",
							"type": "address"
						}
					],
					"stateMutability": "view",
					"type": "function"
				},
				{
					"inputs": [],
					"name": "getOwnerBalance",
					"outputs": [
						{
							"internalType": "uint256",
							"name": "",
							"type": "uint256"
						}
					],
					"stateMutability": "view",
					"type": "function"
				},
				{
					"inputs": [
						{
							"internalType": "address",
							"name": "",
							"type": "address"
						}
					],
					"name": "properties",
					"outputs": [
						{
							"internalType": "address",
							"name": "owner",
							"type": "address"
						},
						{
							"internalType": "string",
							"name": "name",
							"type": "string"
						},
						{
							"internalType": "string",
							"name": "description",
							"type": "string"
						},
						{
							"internalType": "uint256",
							"name": "price",
							"type": "uint256"
						},
						{
							"internalType": "enum DecentralisedProperty.PropertyStatus",
							"name": "status",
							"type": "uint8"
						}
					],
					"stateMutability": "view",
					"type": "function"
				},
				{
					"inputs": [
						{
							"internalType": "address",
							"name": "buyerAddress",
							"type": "address"
						},
						{
							"internalType": "address",
							"name": "sellerAddress",
							"type": "address"
						}
					],
					"name": "rejectPurchase",
					"outputs": [],
					"stateMutability": "nonpayable",
					"type": "function"
				},
				{
					"inputs": [
						{
							"internalType": "address",
							"name": "insertOwnerAddress",
							"type": "address"
						}
					],
					"name": "requestPurchase",
					"outputs": [],
					"stateMutability": "nonpayable",
					"type": "function"
				},
				{
					"inputs": [
						{
							"internalType": "address",
							"name": "",
							"type": "address"
						},
						{
							"internalType": "address",
							"name": "",
							"type": "address"
						}
					],
					"name": "sellerApproval",
					"outputs": [
						{
							"internalType": "bool",
							"name": "",
							"type": "bool"
						}
					],
					"stateMutability": "view",
					"type": "function"
				},
				{
					"inputs": [
						{
							"internalType": "address",
							"name": "",
							"type": "address"
						}
					],
					"name": "verifiedUsers",
					"outputs": [
						{
							"internalType": "bool",
							"name": "",
							"type": "bool"
						}
					],
					"stateMutability": "view",
					"type": "function"
				},
				{
					"inputs": [],
					"name": "verifyIdentity",
					"outputs": [],
					"stateMutability": "payable",
					"type": "function"
				}
			],
			"devdoc": {
				"kind": "dev",
				"methods": {},
				"version": 1
			},
			"evm": {
				"assembly": "    /* \"DecentralisedProperty.sol\":57:6889  contract DecentralisedProperty {... */\n  mstore(0x40, 0x80)\n    /* \"DecentralisedProperty.sol\":2013:2023  msg.sender */\n  caller\n    /* \"DecentralisedProperty.sol\":2013:2031  msg.sender.balance */\n  0xffffffffffffffffffffffffffffffffffffffff\n  and\n  balance\n    /* \"DecentralisedProperty.sol\":1990:2031  uint256 OwnerBalance = msg.sender.balance */\n  0x04\n  sstore\n    /* \"DecentralisedProperty.sol\":1756:1935  constructor() {... */\n  callvalue\n  dup1\n  iszero\n  tag_1\n  jumpi\n  0x00\n  dup1\n  revert\ntag_1:\n  pop\n    /* \"DecentralisedProperty.sol\":1803:1813  msg.sender */\n  caller\n    /* \"DecentralisedProperty.sol\":1780:1793  contractOwner */\n  0x00\n  dup1\n    /* \"DecentralisedProperty.sol\":1780:1814  contractOwner=payable (msg.sender) */\n  0x0100\n  exp\n  dup2\n  sload\n  dup2\n  0xffffffffffffffffffffffffffffffffffffffff\n  mul\n  not\n  and\n  swap1\n  dup4\n  0xffffffffffffffffffffffffffffffffffffffff\n  and\n  mul\n  or\n  swap1\n  sstore\n  pop\n    /* \"DecentralisedProperty.sol\":57:6889  contract DecentralisedProperty {... */\n  dataSize(sub_0)\n  dup1\n  dataOffset(sub_0)\n  0x00\n  codecopy\n  0x00\n  return\nstop\n\nsub_0: assembly {\n        /* \"DecentralisedProperty.sol\":57:6889  contract DecentralisedProperty {... */\n      mstore(0x40, 0x80)\n      jumpi(tag_1, lt(calldatasize, 0x04))\n      shr(0xe0, calldataload(0x00))\n      dup1\n      0x9ca4d7e7\n      gt\n      tag_13\n      jumpi\n      dup1\n      0x9ca4d7e7\n      eq\n      tag_7\n      jumpi\n      dup1\n      0xacd7e4ac\n      eq\n      tag_8\n      jumpi\n      dup1\n      0xc5cabf9a\n      eq\n      tag_9\n      jumpi\n      dup1\n      0xce606ee0\n      eq\n      tag_10\n      jumpi\n      dup1\n      0xe35fe366\n      eq\n      tag_11\n      jumpi\n      dup1\n      0xe8731c32\n      eq\n      tag_12\n      jumpi\n      jump(tag_1)\n    tag_13:\n      dup1\n      0x25ec77d7\n      eq\n      tag_2\n      jumpi\n      dup1\n      0x46d3d672\n      eq\n      tag_3\n      jumpi\n      dup1\n      0x590791f2\n      eq\n      tag_4\n      jumpi\n      dup1\n      0x8a0684a3\n      eq\n      tag_5\n      jumpi\n      dup1\n      0x913a8e80\n      eq\n      tag_6\n      jumpi\n    tag_1:\n      0x00\n      dup1\n      revert\n        /* \"DecentralisedProperty.sol\":625:675  mapping(address => propertyInfo) public properties */\n    tag_2:\n      callvalue\n      dup1\n      iszero\n      tag_14\n      jumpi\n      0x00\n      dup1\n      revert\n    tag_14:\n      pop\n      tag_15\n      0x04\n      dup1\n      calldatasize\n      sub\n      dup2\n      add\n      swap1\n      tag_16\n      swap2\n      swap1\n      tag_17\n      jump\t// in\n    tag_16:\n      tag_18\n      jump\t// in\n    tag_15:\n      mload(0x40)\n      tag_19\n      swap6\n      swap5\n      swap4\n      swap3\n      swap2\n      swap1\n      tag_20\n      jump\t// in\n    tag_19:\n      mload(0x40)\n      dup1\n      swap2\n      sub\n      swap1\n      return\n        /* \"DecentralisedProperty.sol\":4647:5356  function approvePurchase(address buyerAddress, address currentOwnerAddress) external {... */\n    tag_3:\n      callvalue\n      dup1\n      iszero\n      tag_21\n      jumpi\n      0x00\n      dup1\n      revert\n    tag_21:\n      pop\n      tag_22\n      0x04\n      dup1\n      calldatasize\n      sub\n      dup2\n      add\n      swap1\n      tag_23\n      swap2\n      swap1\n      tag_24\n      jump\t// in\n    tag_23:\n      tag_25\n      jump\t// in\n    tag_22:\n      stop\n        /* \"DecentralisedProperty.sol\":2038:2137  function getOwnerBalance() public view returns (uint256) {... */\n    tag_4:\n      callvalue\n      dup1\n      iszero\n      tag_26\n      jumpi\n      0x00\n      dup1\n      revert\n    tag_26:\n      pop\n      tag_27\n      tag_28\n      jump\t// in\n    tag_27:\n      mload(0x40)\n      tag_29\n      swap2\n      swap1\n      tag_30\n      jump\t// in\n    tag_29:\n      mload(0x40)\n      dup1\n      swap2\n      sub\n      swap1\n      return\n        /* \"DecentralisedProperty.sol\":6171:6885  function confirmPurchase(address payable buyerAddress, address payable sellerAddress) external payable {... */\n    tag_5:\n      tag_31\n      0x04\n      dup1\n      calldatasize\n      sub\n      dup2\n      add\n      swap1\n      tag_32\n      swap2\n      swap1\n      tag_33\n      jump\t// in\n    tag_32:\n      tag_34\n      jump\t// in\n    tag_31:\n      stop\n        /* \"DecentralisedProperty.sol\":2256:3106  function addProperty(string memory ownerName, string memory propertyDescription, uint askingPrice) external {... */\n    tag_6:\n      callvalue\n      dup1\n      iszero\n      tag_35\n      jumpi\n      0x00\n      dup1\n      revert\n    tag_35:\n      pop\n      tag_36\n      0x04\n      dup1\n      calldatasize\n      sub\n      dup2\n      add\n      swap1\n      tag_37\n      swap2\n      swap1\n      tag_38\n      jump\t// in\n    tag_37:\n      tag_39\n      jump\t// in\n    tag_36:\n      stop\n        /* \"DecentralisedProperty.sol\":884:950  mapping(address => mapping(address => bool)) public sellerApproval */\n    tag_7:\n      callvalue\n      dup1\n      iszero\n      tag_40\n      jumpi\n      0x00\n      dup1\n      revert\n    tag_40:\n      pop\n      tag_41\n      0x04\n      dup1\n      calldatasize\n      sub\n      dup2\n      add\n      swap1\n      tag_42\n      swap2\n      swap1\n      tag_24\n      jump\t// in\n    tag_42:\n      tag_43\n      jump\t// in\n    tag_41:\n      mload(0x40)\n      tag_44\n      swap2\n      swap1\n      tag_45\n      jump\t// in\n    tag_44:\n      mload(0x40)\n      dup1\n      swap2\n      sub\n      swap1\n      return\n        /* \"DecentralisedProperty.sol\":5435:6042  function rejectPurchase(address buyerAddress, address sellerAddress) external {... */\n    tag_8:\n      callvalue\n      dup1\n      iszero\n      tag_46\n      jumpi\n      0x00\n      dup1\n      revert\n    tag_46:\n      pop\n      tag_47\n      0x04\n      dup1\n      calldatasize\n      sub\n      dup2\n      add\n      swap1\n      tag_48\n      swap2\n      swap1\n      tag_24\n      jump\t// in\n    tag_48:\n      tag_49\n      jump\t// in\n    tag_47:\n      stop\n        /* \"DecentralisedProperty.sol\":3915:4568  function requestPurchase(address insertOwnerAddress) external {... */\n    tag_9:\n      callvalue\n      dup1\n      iszero\n      tag_50\n      jumpi\n      0x00\n      dup1\n      revert\n    tag_50:\n      pop\n      tag_51\n      0x04\n      dup1\n      calldatasize\n      sub\n      dup2\n      add\n      swap1\n      tag_52\n      swap2\n      swap1\n      tag_17\n      jump\t// in\n    tag_52:\n      tag_53\n      jump\t// in\n    tag_51:\n      stop\n        /* \"DecentralisedProperty.sol\":116:152  address payable public contractOwner */\n    tag_10:\n      callvalue\n      dup1\n      iszero\n      tag_54\n      jumpi\n      0x00\n      dup1\n      revert\n    tag_54:\n      pop\n      tag_55\n      tag_56\n      jump\t// in\n    tag_55:\n      mload(0x40)\n      tag_57\n      swap2\n      swap1\n      tag_58\n      jump\t// in\n    tag_57:\n      mload(0x40)\n      dup1\n      swap2\n      sub\n      swap1\n      return\n        /* \"DecentralisedProperty.sol\":1000:1045  mapping(address => bool) public verifiedUsers */\n    tag_11:\n      callvalue\n      dup1\n      iszero\n      tag_59\n      jumpi\n      0x00\n      dup1\n      revert\n    tag_59:\n      pop\n      tag_60\n      0x04\n      dup1\n      calldatasize\n      sub\n      dup2\n      add\n      swap1\n      tag_61\n      swap2\n      swap1\n      tag_17\n      jump\t// in\n    tag_61:\n      tag_62\n      jump\t// in\n    tag_60:\n      mload(0x40)\n      tag_63\n      swap2\n      swap1\n      tag_45\n      jump\t// in\n    tag_63:\n      mload(0x40)\n      dup1\n      swap2\n      sub\n      swap1\n      return\n        /* \"DecentralisedProperty.sol\":3161:3794  function verifyIdentity() external payable {... */\n    tag_12:\n      tag_64\n      tag_65\n      jump\t// in\n    tag_64:\n      stop\n        /* \"DecentralisedProperty.sol\":625:675  mapping(address => propertyInfo) public properties */\n    tag_18:\n      mstore(0x20, 0x01)\n      dup1\n      0x00\n      mstore\n      keccak256(0x00, 0x40)\n      0x00\n      swap2\n      pop\n      swap1\n      pop\n      dup1\n      0x00\n      add\n      0x00\n      swap1\n      sload\n      swap1\n      0x0100\n      exp\n      swap1\n      div\n      0xffffffffffffffffffffffffffffffffffffffff\n      and\n      swap1\n      dup1\n      0x01\n      add\n      dup1\n      sload\n      tag_66\n      swap1\n      tag_67\n      jump\t// in\n    tag_66:\n      dup1\n      0x1f\n      add\n      0x20\n      dup1\n      swap2\n      div\n      mul\n      0x20\n      add\n      mload(0x40)\n      swap1\n      dup2\n      add\n      0x40\n      mstore\n      dup1\n      swap3\n      swap2\n      swap1\n      dup2\n      dup2\n      mstore\n      0x20\n      add\n      dup3\n      dup1\n      sload\n      tag_68\n      swap1\n      tag_67\n      jump\t// in\n    tag_68:\n      dup1\n      iszero\n      tag_69\n      jumpi\n      dup1\n      0x1f\n      lt\n      tag_70\n      jumpi\n      0x0100\n      dup1\n      dup4\n      sload\n      div\n      mul\n      dup4\n      mstore\n      swap2\n      0x20\n      add\n      swap2\n      jump(tag_69)\n    tag_70:\n      dup3\n      add\n      swap2\n      swap1\n      0x00\n      mstore\n      keccak256(0x00, 0x20)\n      swap1\n    tag_71:\n      dup2\n      sload\n      dup2\n      mstore\n      swap1\n      0x01\n      add\n      swap1\n      0x20\n      add\n      dup1\n      dup4\n      gt\n      tag_71\n      jumpi\n      dup3\n      swap1\n      sub\n      0x1f\n      and\n      dup3\n      add\n      swap2\n    tag_69:\n      pop\n      pop\n      pop\n      pop\n      pop\n      swap1\n      dup1\n      0x02\n      add\n      dup1\n      sload\n      tag_72\n      swap1\n      tag_67\n      jump\t// in\n    tag_72:\n      dup1\n      0x1f\n      add\n      0x20\n      dup1\n      swap2\n      div\n      mul\n      0x20\n      add\n      mload(0x40)\n      swap1\n      dup2\n      add\n      0x40\n      mstore\n      dup1\n      swap3\n      swap2\n      swap1\n      dup2\n      dup2\n      mstore\n      0x20\n      add\n      dup3\n      dup1\n      sload\n      tag_73\n      swap1\n      tag_67\n      jump\t// in\n    tag_73:\n      dup1\n      iszero\n      tag_74\n      jumpi\n      dup1\n      0x1f\n      lt\n      tag_75\n      jumpi\n      0x0100\n      dup1\n      dup4\n      sload\n      div\n      mul\n      dup4\n      mstore\n      swap2\n      0x20\n      add\n      swap2\n      jump(tag_74)\n    tag_75:\n      dup3\n      add\n      swap2\n      swap1\n      0x00\n      mstore\n      keccak256(0x00, 0x20)\n      swap1\n    tag_76:\n      dup2\n      sload\n      dup2\n      mstore\n      swap1\n      0x01\n      add\n      swap1\n      0x20\n      add\n      dup1\n      dup4\n      gt\n      tag_76\n      jumpi\n      dup3\n      swap1\n      sub\n      0x1f\n      and\n      dup3\n      add\n      swap2\n    tag_74:\n      pop\n      pop\n      pop\n      pop\n      pop\n      swap1\n      dup1\n      0x03\n      add\n      sload\n      swap1\n      dup1\n      0x04\n      add\n      0x00\n      swap1\n      sload\n      swap1\n      0x0100\n      exp\n      swap1\n      div\n      0xff\n      and\n      swap1\n      pop\n      dup6\n      jump\t// out\n        /* \"DecentralisedProperty.sol\":4647:5356  function approvePurchase(address buyerAddress, address currentOwnerAddress) external {... */\n    tag_25:\n        /* \"DecentralisedProperty.sol\":4764:4783  currentOwnerAddress */\n      dup1\n        /* \"DecentralisedProperty.sol\":4750:4783  msg.sender == currentOwnerAddress */\n      0xffffffffffffffffffffffffffffffffffffffff\n      and\n        /* \"DecentralisedProperty.sol\":4750:4760  msg.sender */\n      caller\n        /* \"DecentralisedProperty.sol\":4750:4783  msg.sender == currentOwnerAddress */\n      0xffffffffffffffffffffffffffffffffffffffff\n      and\n      eq\n        /* \"DecentralisedProperty.sol\":4742:4818  require(msg.sender == currentOwnerAddress, \"You are not the property owner\") */\n      tag_78\n      jumpi\n      mload(0x40)\n      0x08c379a000000000000000000000000000000000000000000000000000000000\n      dup2\n      mstore\n      0x04\n      add\n      tag_79\n      swap1\n      tag_80\n      jump\t// in\n    tag_79:\n      mload(0x40)\n      dup1\n      swap2\n      sub\n      swap1\n      revert\n    tag_78:\n        /* \"DecentralisedProperty.sol\":4927:4949  PropertyStatus.Pending */\n      0x01\n        /* \"DecentralisedProperty.sol\":4885:4949  properties[currentOwnerAddress].status == PropertyStatus.Pending */\n      0x02\n      dup2\n      gt\n      iszero\n      tag_81\n      jumpi\n      tag_82\n      tag_83\n      jump\t// in\n    tag_82:\n    tag_81:\n        /* \"DecentralisedProperty.sol\":4885:4895  properties */\n      0x01\n        /* \"DecentralisedProperty.sol\":4885:4916  properties[currentOwnerAddress] */\n      0x00\n        /* \"DecentralisedProperty.sol\":4896:4915  currentOwnerAddress */\n      dup4\n        /* \"DecentralisedProperty.sol\":4885:4916  properties[currentOwnerAddress] */\n      0xffffffffffffffffffffffffffffffffffffffff\n      and\n      0xffffffffffffffffffffffffffffffffffffffff\n      and\n      dup2\n      mstore\n      0x20\n      add\n      swap1\n      dup2\n      mstore\n      0x20\n      add\n      0x00\n      keccak256\n        /* \"DecentralisedProperty.sol\":4885:4923  properties[currentOwnerAddress].status */\n      0x04\n      add\n      0x00\n      swap1\n      sload\n      swap1\n      0x0100\n      exp\n      swap1\n      div\n      0xff\n      and\n        /* \"DecentralisedProperty.sol\":4885:4949  properties[currentOwnerAddress].status == PropertyStatus.Pending */\n      0x02\n      dup2\n      gt\n      iszero\n      tag_84\n      jumpi\n      tag_85\n      tag_83\n      jump\t// in\n    tag_85:\n    tag_84:\n      eq\n        /* \"DecentralisedProperty.sol\":4877:4977  require(properties[currentOwnerAddress].status == PropertyStatus.Pending, \"Property is not pending\") */\n      tag_86\n      jumpi\n      mload(0x40)\n      0x08c379a000000000000000000000000000000000000000000000000000000000\n      dup2\n      mstore\n      0x04\n      add\n      tag_87\n      swap1\n      tag_88\n      jump\t// in\n    tag_87:\n      mload(0x40)\n      dup1\n      swap2\n      sub\n      swap1\n      revert\n    tag_86:\n        /* \"DecentralisedProperty.sol\":5345:5349  true */\n      0x01\n        /* \"DecentralisedProperty.sol\":5293:5307  sellerApproval */\n      0x02\n        /* \"DecentralisedProperty.sol\":5293:5328  sellerApproval[currentOwnerAddress] */\n      0x00\n        /* \"DecentralisedProperty.sol\":5308:5327  currentOwnerAddress */\n      dup4\n        /* \"DecentralisedProperty.sol\":5293:5328  sellerApproval[currentOwnerAddress] */\n      0xffffffffffffffffffffffffffffffffffffffff\n      and\n      0xffffffffffffffffffffffffffffffffffffffff\n      and\n      dup2\n      mstore\n      0x20\n      add\n      swap1\n      dup2\n      mstore\n      0x20\n      add\n      0x00\n      keccak256\n        /* \"DecentralisedProperty.sol\":5293:5342  sellerApproval[currentOwnerAddress][buyerAddress] */\n      0x00\n        /* \"DecentralisedProperty.sol\":5329:5341  buyerAddress */\n      dup5\n        /* \"DecentralisedProperty.sol\":5293:5342  sellerApproval[currentOwnerAddress][buyerAddress] */\n      0xffffffffffffffffffffffffffffffffffffffff\n      and\n      0xffffffffffffffffffffffffffffffffffffffff\n      and\n      dup2\n      mstore\n      0x20\n      add\n      swap1\n      dup2\n      mstore\n      0x20\n      add\n      0x00\n      keccak256\n      0x00\n        /* \"DecentralisedProperty.sol\":5293:5349  sellerApproval[currentOwnerAddress][buyerAddress] = true */\n      0x0100\n      exp\n      dup2\n      sload\n      dup2\n      0xff\n      mul\n      not\n      and\n      swap1\n      dup4\n      iszero\n      iszero\n      mul\n      or\n      swap1\n      sstore\n      pop\n        /* \"DecentralisedProperty.sol\":4647:5356  function approvePurchase(address buyerAddress, address currentOwnerAddress) external {... */\n      pop\n      pop\n      jump\t// out\n        /* \"DecentralisedProperty.sol\":2038:2137  function getOwnerBalance() public view returns (uint256) {... */\n    tag_28:\n        /* \"DecentralisedProperty.sol\":2086:2093  uint256 */\n      0x00\n        /* \"DecentralisedProperty.sol\":2112:2122  msg.sender */\n      caller\n        /* \"DecentralisedProperty.sol\":2112:2130  msg.sender.balance */\n      0xffffffffffffffffffffffffffffffffffffffff\n      and\n      balance\n        /* \"DecentralisedProperty.sol\":2105:2130  return msg.sender.balance */\n      swap1\n      pop\n        /* \"DecentralisedProperty.sol\":2038:2137  function getOwnerBalance() public view returns (uint256) {... */\n      swap1\n      jump\t// out\n        /* \"DecentralisedProperty.sol\":6171:6885  function confirmPurchase(address payable buyerAddress, address payable sellerAddress) external payable {... */\n    tag_34:\n        /* \"DecentralisedProperty.sol\":6306:6318  buyerAddress */\n      dup2\n        /* \"DecentralisedProperty.sol\":6292:6318  msg.sender == buyerAddress */\n      0xffffffffffffffffffffffffffffffffffffffff\n      and\n        /* \"DecentralisedProperty.sol\":6292:6302  msg.sender */\n      caller\n        /* \"DecentralisedProperty.sol\":6292:6318  msg.sender == buyerAddress */\n      0xffffffffffffffffffffffffffffffffffffffff\n      and\n      eq\n        /* \"DecentralisedProperty.sol\":6284:6344  require(msg.sender == buyerAddress, \"You are not the buyer\") */\n      tag_91\n      jumpi\n      mload(0x40)\n      0x08c379a000000000000000000000000000000000000000000000000000000000\n      dup2\n      mstore\n      0x04\n      add\n      tag_92\n      swap1\n      tag_93\n      jump\t// in\n    tag_92:\n      mload(0x40)\n      dup1\n      swap2\n      sub\n      swap1\n      revert\n    tag_91:\n        /* \"DecentralisedProperty.sol\":6447:6460  sellerAddress */\n      dup1\n        /* \"DecentralisedProperty.sol\":6447:6469  sellerAddress.transfer */\n      0xffffffffffffffffffffffffffffffffffffffff\n      and\n        /* \"DecentralisedProperty.sol\":6447:6502  sellerAddress.transfer(properties[sellerAddress].price) */\n      0x08fc\n        /* \"DecentralisedProperty.sol\":6470:6480  properties */\n      0x01\n        /* \"DecentralisedProperty.sol\":6470:6495  properties[sellerAddress] */\n      0x00\n        /* \"DecentralisedProperty.sol\":6481:6494  sellerAddress */\n      dup5\n        /* \"DecentralisedProperty.sol\":6470:6495  properties[sellerAddress] */\n      0xffffffffffffffffffffffffffffffffffffffff\n      and\n      0xffffffffffffffffffffffffffffffffffffffff\n      and\n      dup2\n      mstore\n      0x20\n      add\n      swap1\n      dup2\n      mstore\n      0x20\n      add\n      0x00\n      keccak256\n        /* \"DecentralisedProperty.sol\":6470:6501  properties[sellerAddress].price */\n      0x03\n      add\n      sload\n        /* \"DecentralisedProperty.sol\":6447:6502  sellerAddress.transfer(properties[sellerAddress].price) */\n      swap1\n      dup2\n      iszero\n      mul\n      swap1\n      mload(0x40)\n      0x00\n      mload(0x40)\n      dup1\n      dup4\n      sub\n      dup2\n      dup6\n      dup9\n      dup9\n      call\n      swap4\n      pop\n      pop\n      pop\n      pop\n      iszero\n      dup1\n      iszero\n      tag_95\n      jumpi\n      returndatasize\n      0x00\n      dup1\n      returndatacopy\n      revert(0x00, returndatasize)\n    tag_95:\n      pop\n        /* \"DecentralisedProperty.sol\":6629:6641  buyerAddress */\n      dup2\n        /* \"DecentralisedProperty.sol\":6595:6605  properties */\n      0x01\n        /* \"DecentralisedProperty.sol\":6595:6620  properties[sellerAddress] */\n      0x00\n        /* \"DecentralisedProperty.sol\":6606:6619  sellerAddress */\n      dup4\n        /* \"DecentralisedProperty.sol\":6595:6620  properties[sellerAddress] */\n      0xffffffffffffffffffffffffffffffffffffffff\n      and\n      0xffffffffffffffffffffffffffffffffffffffff\n      and\n      dup2\n      mstore\n      0x20\n      add\n      swap1\n      dup2\n      mstore\n      0x20\n      add\n      0x00\n      keccak256\n        /* \"DecentralisedProperty.sol\":6595:6626  properties[sellerAddress].owner */\n      0x00\n      add\n      0x00\n        /* \"DecentralisedProperty.sol\":6595:6641  properties[sellerAddress].owner = buyerAddress */\n      0x0100\n      exp\n      dup2\n      sload\n      dup2\n      0xffffffffffffffffffffffffffffffffffffffff\n      mul\n      not\n      and\n      swap1\n      dup4\n      0xffffffffffffffffffffffffffffffffffffffff\n      and\n      mul\n      or\n      swap1\n      sstore\n      pop\n        /* \"DecentralisedProperty.sol\":6728:6747  PropertyStatus.Sold */\n      0x02\n        /* \"DecentralisedProperty.sol\":6693:6703  properties */\n      0x01\n        /* \"DecentralisedProperty.sol\":6693:6718  properties[sellerAddress] */\n      0x00\n        /* \"DecentralisedProperty.sol\":6704:6717  sellerAddress */\n      dup4\n        /* \"DecentralisedProperty.sol\":6693:6718  properties[sellerAddress] */\n      0xffffffffffffffffffffffffffffffffffffffff\n      and\n      0xffffffffffffffffffffffffffffffffffffffff\n      and\n      dup2\n      mstore\n      0x20\n      add\n      swap1\n      dup2\n      mstore\n      0x20\n      add\n      0x00\n      keccak256\n        /* \"DecentralisedProperty.sol\":6693:6725  properties[sellerAddress].status */\n      0x04\n      add\n      0x00\n        /* \"DecentralisedProperty.sol\":6693:6747  properties[sellerAddress].status = PropertyStatus.Sold */\n      0x0100\n      exp\n      dup2\n      sload\n      dup2\n      0xff\n      mul\n      not\n      and\n      swap1\n      dup4\n      0x02\n      dup2\n      gt\n      iszero\n      tag_96\n      jumpi\n      tag_97\n      tag_83\n      jump\t// in\n    tag_97:\n    tag_96:\n      mul\n      or\n      swap1\n      sstore\n      pop\n        /* \"DecentralisedProperty.sol\":6831:6844  sellerAddress */\n      dup1\n        /* \"DecentralisedProperty.sol\":6804:6878  PropertySold(buyerAddress, sellerAddress, properties[sellerAddress].price) */\n      0xffffffffffffffffffffffffffffffffffffffff\n      and\n        /* \"DecentralisedProperty.sol\":6817:6829  buyerAddress */\n      dup3\n        /* \"DecentralisedProperty.sol\":6804:6878  PropertySold(buyerAddress, sellerAddress, properties[sellerAddress].price) */\n      0xffffffffffffffffffffffffffffffffffffffff\n      and\n      0x7898e8111af6ef8aad566e3f0544a32dc3476bbcf760201950acfec431f668d7\n        /* \"DecentralisedProperty.sol\":6846:6856  properties */\n      0x01\n        /* \"DecentralisedProperty.sol\":6846:6871  properties[sellerAddress] */\n      0x00\n        /* \"DecentralisedProperty.sol\":6857:6870  sellerAddress */\n      dup6\n        /* \"DecentralisedProperty.sol\":6846:6871  properties[sellerAddress] */\n      0xffffffffffffffffffffffffffffffffffffffff\n      and\n      0xffffffffffffffffffffffffffffffffffffffff\n      and\n      dup2\n      mstore\n      0x20\n      add\n      swap1\n      dup2\n      mstore\n      0x20\n      add\n      0x00\n      keccak256\n        /* \"DecentralisedProperty.sol\":6846:6877  properties[sellerAddress].price */\n      0x03\n      add\n      sload\n        /* \"DecentralisedProperty.sol\":6804:6878  PropertySold(buyerAddress, sellerAddress, properties[sellerAddress].price) */\n      mload(0x40)\n      tag_98\n      swap2\n      swap1\n      tag_30\n      jump\t// in\n    tag_98:\n      mload(0x40)\n      dup1\n      swap2\n      sub\n      swap1\n      log3\n        /* \"DecentralisedProperty.sol\":6171:6885  function confirmPurchase(address payable buyerAddress, address payable sellerAddress) external payable {... */\n      pop\n      pop\n      jump\t// out\n        /* \"DecentralisedProperty.sol\":2256:3106  function addProperty(string memory ownerName, string memory propertyDescription, uint askingPrice) external {... */\n    tag_39:\n        /* \"DecentralisedProperty.sol\":2610:2954  propertyInfo({... */\n      mload(0x40)\n      dup1\n      0xa0\n      add\n      0x40\n      mstore\n      dup1\n        /* \"DecentralisedProperty.sol\":2644:2654  msg.sender */\n      caller\n        /* \"DecentralisedProperty.sol\":2610:2954  propertyInfo({... */\n      0xffffffffffffffffffffffffffffffffffffffff\n      and\n      dup2\n      mstore\n      0x20\n      add\n        /* \"DecentralisedProperty.sol\":2691:2700  ownerName */\n      dup5\n        /* \"DecentralisedProperty.sol\":2610:2954  propertyInfo({... */\n      dup2\n      mstore\n      0x20\n      add\n        /* \"DecentralisedProperty.sol\":2741:2760  propertyDescription */\n      dup4\n        /* \"DecentralisedProperty.sol\":2610:2954  propertyInfo({... */\n      dup2\n      mstore\n      0x20\n      add\n        /* \"DecentralisedProperty.sol\":2811:2822  askingPrice */\n      dup3\n        /* \"DecentralisedProperty.sol\":2610:2954  propertyInfo({... */\n      dup2\n      mstore\n      0x20\n      add\n        /* \"DecentralisedProperty.sol\":2880:2904  PropertyStatus.Available */\n      0x00\n        /* \"DecentralisedProperty.sol\":2610:2954  propertyInfo({... */\n      0x02\n      dup2\n      gt\n      iszero\n      tag_100\n      jumpi\n      tag_101\n      tag_83\n      jump\t// in\n    tag_101:\n    tag_100:\n      dup2\n      mstore\n      pop\n        /* \"DecentralisedProperty.sol\":2585:2595  properties */\n      0x01\n        /* \"DecentralisedProperty.sol\":2585:2607  properties[msg.sender] */\n      0x00\n        /* \"DecentralisedProperty.sol\":2596:2606  msg.sender */\n      caller\n        /* \"DecentralisedProperty.sol\":2585:2607  properties[msg.sender] */\n      0xffffffffffffffffffffffffffffffffffffffff\n      and\n      0xffffffffffffffffffffffffffffffffffffffff\n      and\n      dup2\n      mstore\n      0x20\n      add\n      swap1\n      dup2\n      mstore\n      0x20\n      add\n      0x00\n      keccak256\n        /* \"DecentralisedProperty.sol\":2585:2954  properties[msg.sender] = propertyInfo({... */\n      0x00\n      dup3\n      add\n      mload\n      dup2\n      0x00\n      add\n      exp(0x0100, 0x00)\n      dup2\n      sload\n      dup2\n      0xffffffffffffffffffffffffffffffffffffffff\n      mul\n      not\n      and\n      swap1\n      dup4\n      0xffffffffffffffffffffffffffffffffffffffff\n      and\n      mul\n      or\n      swap1\n      sstore\n      pop\n      0x20\n      dup3\n      add\n      mload\n      dup2\n      0x01\n      add\n      swap1\n      dup2\n      tag_102\n      swap2\n      swap1\n      tag_103\n      jump\t// in\n    tag_102:\n      pop\n      0x40\n      dup3\n      add\n      mload\n      dup2\n      0x02\n      add\n      swap1\n      dup2\n      tag_104\n      swap2\n      swap1\n      tag_103\n      jump\t// in\n    tag_104:\n      pop\n      0x60\n      dup3\n      add\n      mload\n      dup2\n      0x03\n      add\n      sstore\n      0x80\n      dup3\n      add\n      mload\n      dup2\n      0x04\n      add\n      exp(0x0100, 0x00)\n      dup2\n      sload\n      dup2\n      0xff\n      mul\n      not\n      and\n      swap1\n      dup4\n      0x02\n      dup2\n      gt\n      iszero\n      tag_105\n      jumpi\n      tag_106\n      tag_83\n      jump\t// in\n    tag_106:\n    tag_105:\n      mul\n      or\n      swap1\n      sstore\n      pop\n      swap1\n      pop\n      pop\n        /* \"DecentralisedProperty.sol\":3064:3074  msg.sender */\n      caller\n        /* \"DecentralisedProperty.sol\":3050:3099  PropertyAdded(msg.sender, ownerName, askingPrice) */\n      0xffffffffffffffffffffffffffffffffffffffff\n      and\n      0x37f157f65566913ce8aee56689d22ac304a94986d9a4045392e2ce1a23497b3d\n        /* \"DecentralisedProperty.sol\":3076:3085  ownerName */\n      dup5\n        /* \"DecentralisedProperty.sol\":3087:3098  askingPrice */\n      dup4\n        /* \"DecentralisedProperty.sol\":3050:3099  PropertyAdded(msg.sender, ownerName, askingPrice) */\n      mload(0x40)\n      tag_107\n      swap3\n      swap2\n      swap1\n      tag_108\n      jump\t// in\n    tag_107:\n      mload(0x40)\n      dup1\n      swap2\n      sub\n      swap1\n      log2\n        /* \"DecentralisedProperty.sol\":2256:3106  function addProperty(string memory ownerName, string memory propertyDescription, uint askingPrice) external {... */\n      pop\n      pop\n      pop\n      jump\t// out\n        /* \"DecentralisedProperty.sol\":884:950  mapping(address => mapping(address => bool)) public sellerApproval */\n    tag_43:\n      mstore(0x20, 0x02)\n      dup2\n      0x00\n      mstore\n      mstore(0x20, keccak256(0x00, 0x40))\n      dup1\n      0x00\n      mstore\n      keccak256(0x00, 0x40)\n      0x00\n      swap2\n      pop\n      swap2\n      pop\n      swap1\n      sload\n      swap1\n      0x0100\n      exp\n      swap1\n      div\n      0xff\n      and\n      dup2\n      jump\t// out\n        /* \"DecentralisedProperty.sol\":5435:6042  function rejectPurchase(address buyerAddress, address sellerAddress) external {... */\n    tag_49:\n        /* \"DecentralisedProperty.sol\":5545:5558  sellerAddress */\n      dup1\n        /* \"DecentralisedProperty.sol\":5531:5558  msg.sender == sellerAddress */\n      0xffffffffffffffffffffffffffffffffffffffff\n      and\n        /* \"DecentralisedProperty.sol\":5531:5541  msg.sender */\n      caller\n        /* \"DecentralisedProperty.sol\":5531:5558  msg.sender == sellerAddress */\n      0xffffffffffffffffffffffffffffffffffffffff\n      and\n      eq\n        /* \"DecentralisedProperty.sol\":5523:5593  require(msg.sender == sellerAddress, \"You are not the property owner\") */\n      tag_110\n      jumpi\n      mload(0x40)\n      0x08c379a000000000000000000000000000000000000000000000000000000000\n      dup2\n      mstore\n      0x04\n      add\n      tag_111\n      swap1\n      tag_80\n      jump\t// in\n    tag_111:\n      mload(0x40)\n      dup1\n      swap2\n      sub\n      swap1\n      revert\n    tag_110:\n        /* \"DecentralisedProperty.sol\":5696:5718  PropertyStatus.Pending */\n      0x01\n        /* \"DecentralisedProperty.sol\":5660:5718  properties[sellerAddress].status == PropertyStatus.Pending */\n      0x02\n      dup2\n      gt\n      iszero\n      tag_112\n      jumpi\n      tag_113\n      tag_83\n      jump\t// in\n    tag_113:\n    tag_112:\n        /* \"DecentralisedProperty.sol\":5660:5670  properties */\n      0x01\n        /* \"DecentralisedProperty.sol\":5660:5685  properties[sellerAddress] */\n      0x00\n        /* \"DecentralisedProperty.sol\":5671:5684  sellerAddress */\n      dup4\n        /* \"DecentralisedProperty.sol\":5660:5685  properties[sellerAddress] */\n      0xffffffffffffffffffffffffffffffffffffffff\n      and\n      0xffffffffffffffffffffffffffffffffffffffff\n      and\n      dup2\n      mstore\n      0x20\n      add\n      swap1\n      dup2\n      mstore\n      0x20\n      add\n      0x00\n      keccak256\n        /* \"DecentralisedProperty.sol\":5660:5692  properties[sellerAddress].status */\n      0x04\n      add\n      0x00\n      swap1\n      sload\n      swap1\n      0x0100\n      exp\n      swap1\n      div\n      0xff\n      and\n        /* \"DecentralisedProperty.sol\":5660:5718  properties[sellerAddress].status == PropertyStatus.Pending */\n      0x02\n      dup2\n      gt\n      iszero\n      tag_114\n      jumpi\n      tag_115\n      tag_83\n      jump\t// in\n    tag_115:\n    tag_114:\n      eq\n        /* \"DecentralisedProperty.sol\":5652:5746  require(properties[sellerAddress].status == PropertyStatus.Pending, \"Property is not pending\") */\n      tag_116\n      jumpi\n      mload(0x40)\n      0x08c379a000000000000000000000000000000000000000000000000000000000\n      dup2\n      mstore\n      0x04\n      add\n      tag_117\n      swap1\n      tag_88\n      jump\t// in\n    tag_117:\n      mload(0x40)\n      dup1\n      swap2\n      sub\n      swap1\n      revert\n    tag_116:\n        /* \"DecentralisedProperty.sol\":5907:5912  false */\n      0x00\n        /* \"DecentralisedProperty.sol\":5861:5875  sellerApproval */\n      0x02\n        /* \"DecentralisedProperty.sol\":5861:5890  sellerApproval[sellerAddress] */\n      0x00\n        /* \"DecentralisedProperty.sol\":5876:5889  sellerAddress */\n      dup4\n        /* \"DecentralisedProperty.sol\":5861:5890  sellerApproval[sellerAddress] */\n      0xffffffffffffffffffffffffffffffffffffffff\n      and\n      0xffffffffffffffffffffffffffffffffffffffff\n      and\n      dup2\n      mstore\n      0x20\n      add\n      swap1\n      dup2\n      mstore\n      0x20\n      add\n      0x00\n      keccak256\n        /* \"DecentralisedProperty.sol\":5861:5904  sellerApproval[sellerAddress][buyerAddress] */\n      0x00\n        /* \"DecentralisedProperty.sol\":5891:5903  buyerAddress */\n      dup5\n        /* \"DecentralisedProperty.sol\":5861:5904  sellerApproval[sellerAddress][buyerAddress] */\n      0xffffffffffffffffffffffffffffffffffffffff\n      and\n      0xffffffffffffffffffffffffffffffffffffffff\n      and\n      dup2\n      mstore\n      0x20\n      add\n      swap1\n      dup2\n      mstore\n      0x20\n      add\n      0x00\n      keccak256\n      0x00\n        /* \"DecentralisedProperty.sol\":5861:5912  sellerApproval[sellerAddress][buyerAddress] = false */\n      0x0100\n      exp\n      dup2\n      sload\n      dup2\n      0xff\n      mul\n      not\n      and\n      swap1\n      dup4\n      iszero\n      iszero\n      mul\n      or\n      swap1\n      sstore\n      pop\n        /* \"DecentralisedProperty.sol\":6010:6034  PropertyStatus.Available */\n      0x00\n        /* \"DecentralisedProperty.sol\":5975:5985  properties */\n      0x01\n        /* \"DecentralisedProperty.sol\":5975:6000  properties[sellerAddress] */\n      0x00\n        /* \"DecentralisedProperty.sol\":5986:5999  sellerAddress */\n      dup4\n        /* \"DecentralisedProperty.sol\":5975:6000  properties[sellerAddress] */\n      0xffffffffffffffffffffffffffffffffffffffff\n      and\n      0xffffffffffffffffffffffffffffffffffffffff\n      and\n      dup2\n      mstore\n      0x20\n      add\n      swap1\n      dup2\n      mstore\n      0x20\n      add\n      0x00\n      keccak256\n        /* \"DecentralisedProperty.sol\":5975:6007  properties[sellerAddress].status */\n      0x04\n      add\n      0x00\n        /* \"DecentralisedProperty.sol\":5975:6034  properties[sellerAddress].status = PropertyStatus.Available */\n      0x0100\n      exp\n      dup2\n      sload\n      dup2\n      0xff\n      mul\n      not\n      and\n      swap1\n      dup4\n      0x02\n      dup2\n      gt\n      iszero\n      tag_118\n      jumpi\n      tag_119\n      tag_83\n      jump\t// in\n    tag_119:\n    tag_118:\n      mul\n      or\n      swap1\n      sstore\n      pop\n        /* \"DecentralisedProperty.sol\":5435:6042  function rejectPurchase(address buyerAddress, address sellerAddress) external {... */\n      pop\n      pop\n      jump\t// out\n        /* \"DecentralisedProperty.sol\":3915:4568  function requestPurchase(address insertOwnerAddress) external {... */\n    tag_53:\n        /* \"DecentralisedProperty.sol\":4022:4026  true */\n      0x01\n        /* \"DecentralisedProperty.sol\":3995:4026  verifiedUsers[msg.sender]==true */\n      iszero\n      iszero\n        /* \"DecentralisedProperty.sol\":3995:4008  verifiedUsers */\n      0x03\n        /* \"DecentralisedProperty.sol\":3995:4020  verifiedUsers[msg.sender] */\n      0x00\n        /* \"DecentralisedProperty.sol\":4009:4019  msg.sender */\n      caller\n        /* \"DecentralisedProperty.sol\":3995:4020  verifiedUsers[msg.sender] */\n      0xffffffffffffffffffffffffffffffffffffffff\n      and\n      0xffffffffffffffffffffffffffffffffffffffff\n      and\n      dup2\n      mstore\n      0x20\n      add\n      swap1\n      dup2\n      mstore\n      0x20\n      add\n      0x00\n      keccak256\n      0x00\n      swap1\n      sload\n      swap1\n      0x0100\n      exp\n      swap1\n      div\n      0xff\n      and\n        /* \"DecentralisedProperty.sol\":3995:4026  verifiedUsers[msg.sender]==true */\n      iszero\n      iszero\n      eq\n        /* \"DecentralisedProperty.sol\":3987:4085  require(verifiedUsers[msg.sender]==true, \"Complete Identity Verification first before proceeding\") */\n      tag_121\n      jumpi\n      mload(0x40)\n      0x08c379a000000000000000000000000000000000000000000000000000000000\n      dup2\n      mstore\n      0x04\n      add\n      tag_122\n      swap1\n      tag_123\n      jump\t// in\n    tag_122:\n      mload(0x40)\n      dup1\n      swap2\n      sub\n      swap1\n      revert\n    tag_121:\n        /* \"DecentralisedProperty.sol\":4188:4212  PropertyStatus.Available */\n      0x00\n        /* \"DecentralisedProperty.sol\":4147:4212  properties[insertOwnerAddress].status == PropertyStatus.Available */\n      0x02\n      dup2\n      gt\n      iszero\n      tag_124\n      jumpi\n      tag_125\n      tag_83\n      jump\t// in\n    tag_125:\n    tag_124:\n        /* \"DecentralisedProperty.sol\":4147:4157  properties */\n      0x01\n        /* \"DecentralisedProperty.sol\":4147:4177  properties[insertOwnerAddress] */\n      0x00\n        /* \"DecentralisedProperty.sol\":4158:4176  insertOwnerAddress */\n      dup4\n        /* \"DecentralisedProperty.sol\":4147:4177  properties[insertOwnerAddress] */\n      0xffffffffffffffffffffffffffffffffffffffff\n      and\n      0xffffffffffffffffffffffffffffffffffffffff\n      and\n      dup2\n      mstore\n      0x20\n      add\n      swap1\n      dup2\n      mstore\n      0x20\n      add\n      0x00\n      keccak256\n        /* \"DecentralisedProperty.sol\":4147:4184  properties[insertOwnerAddress].status */\n      0x04\n      add\n      0x00\n      swap1\n      sload\n      swap1\n      0x0100\n      exp\n      swap1\n      div\n      0xff\n      and\n        /* \"DecentralisedProperty.sol\":4147:4212  properties[insertOwnerAddress].status == PropertyStatus.Available */\n      0x02\n      dup2\n      gt\n      iszero\n      tag_126\n      jumpi\n      tag_127\n      tag_83\n      jump\t// in\n    tag_127:\n    tag_126:\n      eq\n        /* \"DecentralisedProperty.sol\":4139:4255  require(properties[insertOwnerAddress].status == PropertyStatus.Available, \"Property is not available for purchase\") */\n      tag_128\n      jumpi\n      mload(0x40)\n      0x08c379a000000000000000000000000000000000000000000000000000000000\n      dup2\n      mstore\n      0x04\n      add\n      tag_129\n      swap1\n      tag_130\n      jump\t// in\n    tag_129:\n      mload(0x40)\n      dup1\n      swap2\n      sub\n      swap1\n      revert\n    tag_128:\n        /* \"DecentralisedProperty.sol\":4431:4453  PropertyStatus.Pending */\n      0x01\n        /* \"DecentralisedProperty.sol\":4391:4401  properties */\n      dup1\n        /* \"DecentralisedProperty.sol\":4391:4421  properties[insertOwnerAddress] */\n      0x00\n        /* \"DecentralisedProperty.sol\":4402:4420  insertOwnerAddress */\n      dup4\n        /* \"DecentralisedProperty.sol\":4391:4421  properties[insertOwnerAddress] */\n      0xffffffffffffffffffffffffffffffffffffffff\n      and\n      0xffffffffffffffffffffffffffffffffffffffff\n      and\n      dup2\n      mstore\n      0x20\n      add\n      swap1\n      dup2\n      mstore\n      0x20\n      add\n      0x00\n      keccak256\n        /* \"DecentralisedProperty.sol\":4391:4428  properties[insertOwnerAddress].status */\n      0x04\n      add\n      0x00\n        /* \"DecentralisedProperty.sol\":4391:4453  properties[insertOwnerAddress].status = PropertyStatus.Pending */\n      0x0100\n      exp\n      dup2\n      sload\n      dup2\n      0xff\n      mul\n      not\n      and\n      swap1\n      dup4\n      0x02\n      dup2\n      gt\n      iszero\n      tag_131\n      jumpi\n      tag_132\n      tag_83\n      jump\t// in\n    tag_132:\n    tag_131:\n      mul\n      or\n      swap1\n      sstore\n      pop\n        /* \"DecentralisedProperty.sol\":4542:4560  insertOwnerAddress */\n      dup1\n        /* \"DecentralisedProperty.sol\":4514:4561  PropertyPending(msg.sender, insertOwnerAddress) */\n      0xffffffffffffffffffffffffffffffffffffffff\n      and\n        /* \"DecentralisedProperty.sol\":4530:4540  msg.sender */\n      caller\n        /* \"DecentralisedProperty.sol\":4514:4561  PropertyPending(msg.sender, insertOwnerAddress) */\n      0xffffffffffffffffffffffffffffffffffffffff\n      and\n      0xde059efce4306d4728a082d601ab2bb6766b1f58f205cbbd96da740e0ad20ce0\n      mload(0x40)\n      mload(0x40)\n      dup1\n      swap2\n      sub\n      swap1\n      log3\n        /* \"DecentralisedProperty.sol\":3915:4568  function requestPurchase(address insertOwnerAddress) external {... */\n      pop\n      jump\t// out\n        /* \"DecentralisedProperty.sol\":116:152  address payable public contractOwner */\n    tag_56:\n      0x00\n      dup1\n      sload\n      swap1\n      0x0100\n      exp\n      swap1\n      div\n      0xffffffffffffffffffffffffffffffffffffffff\n      and\n      dup2\n      jump\t// out\n        /* \"DecentralisedProperty.sol\":1000:1045  mapping(address => bool) public verifiedUsers */\n    tag_62:\n      mstore(0x20, 0x03)\n      dup1\n      0x00\n      mstore\n      keccak256(0x00, 0x40)\n      0x00\n      swap2\n      pop\n      sload\n      swap1\n      0x0100\n      exp\n      swap1\n      div\n      0xff\n      and\n      dup2\n      jump\t// out\n        /* \"DecentralisedProperty.sol\":3161:3794  function verifyIdentity() external payable {... */\n    tag_65:\n        /* \"DecentralisedProperty.sol\":3280:3293  verifiedUsers */\n      0x03\n        /* \"DecentralisedProperty.sol\":3280:3305  verifiedUsers[msg.sender] */\n      0x00\n        /* \"DecentralisedProperty.sol\":3294:3304  msg.sender */\n      caller\n        /* \"DecentralisedProperty.sol\":3280:3305  verifiedUsers[msg.sender] */\n      0xffffffffffffffffffffffffffffffffffffffff\n      and\n      0xffffffffffffffffffffffffffffffffffffffff\n      and\n      dup2\n      mstore\n      0x20\n      add\n      swap1\n      dup2\n      mstore\n      0x20\n      add\n      0x00\n      keccak256\n      0x00\n      swap1\n      sload\n      swap1\n      0x0100\n      exp\n      swap1\n      div\n      0xff\n      and\n        /* \"DecentralisedProperty.sol\":3279:3305  !verifiedUsers[msg.sender] */\n      iszero\n        /* \"DecentralisedProperty.sol\":3271:3334  require(!verifiedUsers[msg.sender], \"You are already verified\") */\n      tag_134\n      jumpi\n      mload(0x40)\n      0x08c379a000000000000000000000000000000000000000000000000000000000\n      dup2\n      mstore\n      0x04\n      add\n      tag_135\n      swap1\n      tag_136\n      jump\t// in\n    tag_135:\n      mload(0x40)\n      dup1\n      swap2\n      sub\n      swap1\n      revert\n    tag_134:\n        /* \"DecentralisedProperty.sol\":3450:3453  500 */\n      0x01f4\n        /* \"DecentralisedProperty.sol\":3437:3446  msg.value */\n      callvalue\n        /* \"DecentralisedProperty.sol\":3437:3453  msg.value >= 500 */\n      lt\n      iszero\n        /* \"DecentralisedProperty.sol\":3429:3495  require(msg.value >= 500, \"Insufficient funds to verify identity\") */\n      tag_137\n      jumpi\n      mload(0x40)\n      0x08c379a000000000000000000000000000000000000000000000000000000000\n      dup2\n      mstore\n      0x04\n      add\n      tag_138\n      swap1\n      tag_139\n      jump\t// in\n    tag_138:\n      mload(0x40)\n      dup1\n      swap2\n      sub\n      swap1\n      revert\n    tag_137:\n        /* \"DecentralisedProperty.sol\":3548:3561  contractOwner */\n      0x00\n      dup1\n      sload\n      swap1\n      0x0100\n      exp\n      swap1\n      div\n      0xffffffffffffffffffffffffffffffffffffffff\n      and\n        /* \"DecentralisedProperty.sol\":3548:3570  contractOwner.transfer */\n      0xffffffffffffffffffffffffffffffffffffffff\n      and\n        /* \"DecentralisedProperty.sol\":3548:3581  contractOwner.transfer(msg.value) */\n      0x08fc\n        /* \"DecentralisedProperty.sol\":3571:3580  msg.value */\n      callvalue\n        /* \"DecentralisedProperty.sol\":3548:3581  contractOwner.transfer(msg.value) */\n      swap1\n      dup2\n      iszero\n      mul\n      swap1\n      mload(0x40)\n      0x00\n      mload(0x40)\n      dup1\n      dup4\n      sub\n      dup2\n      dup6\n      dup9\n      dup9\n      call\n      swap4\n      pop\n      pop\n      pop\n      pop\n      iszero\n      dup1\n      iszero\n      tag_141\n      jumpi\n      returndatasize\n      0x00\n      dup1\n      returndatacopy\n      revert(0x00, returndatasize)\n    tag_141:\n      pop\n        /* \"DecentralisedProperty.sol\":3663:3667  true */\n      0x01\n        /* \"DecentralisedProperty.sol\":3635:3648  verifiedUsers */\n      0x03\n        /* \"DecentralisedProperty.sol\":3635:3660  verifiedUsers[msg.sender] */\n      0x00\n        /* \"DecentralisedProperty.sol\":3649:3659  msg.sender */\n      caller\n        /* \"DecentralisedProperty.sol\":3635:3660  verifiedUsers[msg.sender] */\n      0xffffffffffffffffffffffffffffffffffffffff\n      and\n      0xffffffffffffffffffffffffffffffffffffffff\n      and\n      dup2\n      mstore\n      0x20\n      add\n      swap1\n      dup2\n      mstore\n      0x20\n      add\n      0x00\n      keccak256\n      0x00\n        /* \"DecentralisedProperty.sol\":3635:3667  verifiedUsers[msg.sender] = true */\n      0x0100\n      exp\n      dup2\n      sload\n      dup2\n      0xff\n      mul\n      not\n      and\n      swap1\n      dup4\n      iszero\n      iszero\n      mul\n      or\n      swap1\n      sstore\n      pop\n        /* \"DecentralisedProperty.sol\":3776:3786  msg.sender */\n      caller\n        /* \"DecentralisedProperty.sol\":3759:3787  IdentityVerified(msg.sender) */\n      0xffffffffffffffffffffffffffffffffffffffff\n      and\n      0x02f93fdaafad8edad1ca75101b1fbda62e64ab9afc26d0ea801ccf6ef02c09ab\n      mload(0x40)\n      mload(0x40)\n      dup1\n      swap2\n      sub\n      swap1\n      log2\n        /* \"DecentralisedProperty.sol\":3161:3794  function verifyIdentity() external payable {... */\n      jump\t// out\n        /* \"#utility.yul\":7:82   */\n    tag_142:\n        /* \"#utility.yul\":40:46   */\n      0x00\n        /* \"#utility.yul\":73:75   */\n      0x40\n        /* \"#utility.yul\":67:76   */\n      mload\n        /* \"#utility.yul\":57:76   */\n      swap1\n      pop\n        /* \"#utility.yul\":7:82   */\n      swap1\n      jump\t// out\n        /* \"#utility.yul\":88:205   */\n    tag_143:\n        /* \"#utility.yul\":197:198   */\n      0x00\n        /* \"#utility.yul\":194:195   */\n      dup1\n        /* \"#utility.yul\":187:199   */\n      revert\n        /* \"#utility.yul\":211:328   */\n    tag_144:\n        /* \"#utility.yul\":320:321   */\n      0x00\n        /* \"#utility.yul\":317:318   */\n      dup1\n        /* \"#utility.yul\":310:322   */\n      revert\n        /* \"#utility.yul\":334:460   */\n    tag_145:\n        /* \"#utility.yul\":371:378   */\n      0x00\n        /* \"#utility.yul\":411:453   */\n      0xffffffffffffffffffffffffffffffffffffffff\n        /* \"#utility.yul\":404:409   */\n      dup3\n        /* \"#utility.yul\":400:454   */\n      and\n        /* \"#utility.yul\":389:454   */\n      swap1\n      pop\n        /* \"#utility.yul\":334:460   */\n      swap2\n      swap1\n      pop\n      jump\t// out\n        /* \"#utility.yul\":466:562   */\n    tag_146:\n        /* \"#utility.yul\":503:510   */\n      0x00\n        /* \"#utility.yul\":532:556   */\n      tag_214\n        /* \"#utility.yul\":550:555   */\n      dup3\n        /* \"#utility.yul\":532:556   */\n      tag_145\n      jump\t// in\n    tag_214:\n        /* \"#utility.yul\":521:556   */\n      swap1\n      pop\n        /* \"#utility.yul\":466:562   */\n      swap2\n      swap1\n      pop\n      jump\t// out\n        /* \"#utility.yul\":568:690   */\n    tag_147:\n        /* \"#utility.yul\":641:665   */\n      tag_216\n        /* \"#utility.yul\":659:664   */\n      dup2\n        /* \"#utility.yul\":641:665   */\n      tag_146\n      jump\t// in\n    tag_216:\n        /* \"#utility.yul\":634:639   */\n      dup2\n        /* \"#utility.yul\":631:666   */\n      eq\n        /* \"#utility.yul\":621:684   */\n      tag_217\n      jumpi\n        /* \"#utility.yul\":680:681   */\n      0x00\n        /* \"#utility.yul\":677:678   */\n      dup1\n        /* \"#utility.yul\":670:682   */\n      revert\n        /* \"#utility.yul\":621:684   */\n    tag_217:\n        /* \"#utility.yul\":568:690   */\n      pop\n      jump\t// out\n        /* \"#utility.yul\":696:835   */\n    tag_148:\n        /* \"#utility.yul\":742:747   */\n      0x00\n        /* \"#utility.yul\":780:786   */\n      dup2\n        /* \"#utility.yul\":767:787   */\n      calldataload\n        /* \"#utility.yul\":758:787   */\n      swap1\n      pop\n        /* \"#utility.yul\":796:829   */\n      tag_219\n        /* \"#utility.yul\":823:828   */\n      dup2\n        /* \"#utility.yul\":796:829   */\n      tag_147\n      jump\t// in\n    tag_219:\n        /* \"#utility.yul\":696:835   */\n      swap3\n      swap2\n      pop\n      pop\n      jump\t// out\n        /* \"#utility.yul\":841:1170   */\n    tag_17:\n        /* \"#utility.yul\":900:906   */\n      0x00\n        /* \"#utility.yul\":949:951   */\n      0x20\n        /* \"#utility.yul\":937:946   */\n      dup3\n        /* \"#utility.yul\":928:935   */\n      dup5\n        /* \"#utility.yul\":924:947   */\n      sub\n        /* \"#utility.yul\":920:952   */\n      slt\n        /* \"#utility.yul\":917:1036   */\n      iszero\n      tag_221\n      jumpi\n        /* \"#utility.yul\":955:1034   */\n      tag_222\n      tag_143\n      jump\t// in\n    tag_222:\n        /* \"#utility.yul\":917:1036   */\n    tag_221:\n        /* \"#utility.yul\":1075:1076   */\n      0x00\n        /* \"#utility.yul\":1100:1153   */\n      tag_223\n        /* \"#utility.yul\":1145:1152   */\n      dup5\n        /* \"#utility.yul\":1136:1142   */\n      dup3\n        /* \"#utility.yul\":1125:1134   */\n      dup6\n        /* \"#utility.yul\":1121:1143   */\n      add\n        /* \"#utility.yul\":1100:1153   */\n      tag_148\n      jump\t// in\n    tag_223:\n        /* \"#utility.yul\":1090:1153   */\n      swap2\n      pop\n        /* \"#utility.yul\":1046:1163   */\n      pop\n        /* \"#utility.yul\":841:1170   */\n      swap3\n      swap2\n      pop\n      pop\n      jump\t// out\n        /* \"#utility.yul\":1176:1294   */\n    tag_149:\n        /* \"#utility.yul\":1263:1287   */\n      tag_225\n        /* \"#utility.yul\":1281:1286   */\n      dup2\n        /* \"#utility.yul\":1263:1287   */\n      tag_146\n      jump\t// in\n    tag_225:\n        /* \"#utility.yul\":1258:1261   */\n      dup3\n        /* \"#utility.yul\":1251:1288   */\n      mstore\n        /* \"#utility.yul\":1176:1294   */\n      pop\n      pop\n      jump\t// out\n        /* \"#utility.yul\":1300:1399   */\n    tag_150:\n        /* \"#utility.yul\":1352:1358   */\n      0x00\n        /* \"#utility.yul\":1386:1391   */\n      dup2\n        /* \"#utility.yul\":1380:1392   */\n      mload\n        /* \"#utility.yul\":1370:1392   */\n      swap1\n      pop\n        /* \"#utility.yul\":1300:1399   */\n      swap2\n      swap1\n      pop\n      jump\t// out\n        /* \"#utility.yul\":1405:1574   */\n    tag_151:\n        /* \"#utility.yul\":1489:1500   */\n      0x00\n        /* \"#utility.yul\":1523:1529   */\n      dup3\n        /* \"#utility.yul\":1518:1521   */\n      dup3\n        /* \"#utility.yul\":1511:1530   */\n      mstore\n        /* \"#utility.yul\":1563:1567   */\n      0x20\n        /* \"#utility.yul\":1558:1561   */\n      dup3\n        /* \"#utility.yul\":1554:1568   */\n      add\n        /* \"#utility.yul\":1539:1568   */\n      swap1\n      pop\n        /* \"#utility.yul\":1405:1574   */\n      swap3\n      swap2\n      pop\n      pop\n      jump\t// out\n        /* \"#utility.yul\":1580:1826   */\n    tag_152:\n        /* \"#utility.yul\":1661:1662   */\n      0x00\n        /* \"#utility.yul\":1671:1784   */\n    tag_229:\n        /* \"#utility.yul\":1685:1691   */\n      dup4\n        /* \"#utility.yul\":1682:1683   */\n      dup2\n        /* \"#utility.yul\":1679:1692   */\n      lt\n        /* \"#utility.yul\":1671:1784   */\n      iszero\n      tag_231\n      jumpi\n        /* \"#utility.yul\":1770:1771   */\n      dup1\n        /* \"#utility.yul\":1765:1768   */\n      dup3\n        /* \"#utility.yul\":1761:1772   */\n      add\n        /* \"#utility.yul\":1755:1773   */\n      mload\n        /* \"#utility.yul\":1751:1752   */\n      dup2\n        /* \"#utility.yul\":1746:1749   */\n      dup5\n        /* \"#utility.yul\":1742:1753   */\n      add\n        /* \"#utility.yul\":1735:1774   */\n      mstore\n        /* \"#utility.yul\":1707:1709   */\n      0x20\n        /* \"#utility.yul\":1704:1705   */\n      dup2\n        /* \"#utility.yul\":1700:1710   */\n      add\n        /* \"#utility.yul\":1695:1710   */\n      swap1\n      pop\n        /* \"#utility.yul\":1671:1784   */\n      jump(tag_229)\n    tag_231:\n        /* \"#utility.yul\":1818:1819   */\n      0x00\n        /* \"#utility.yul\":1809:1815   */\n      dup5\n        /* \"#utility.yul\":1804:1807   */\n      dup5\n        /* \"#utility.yul\":1800:1816   */\n      add\n        /* \"#utility.yul\":1793:1820   */\n      mstore\n        /* \"#utility.yul\":1642:1826   */\n      pop\n        /* \"#utility.yul\":1580:1826   */\n      pop\n      pop\n      pop\n      jump\t// out\n        /* \"#utility.yul\":1832:1934   */\n    tag_153:\n        /* \"#utility.yul\":1873:1879   */\n      0x00\n        /* \"#utility.yul\":1924:1926   */\n      0x1f\n        /* \"#utility.yul\":1920:1927   */\n      not\n        /* \"#utility.yul\":1915:1917   */\n      0x1f\n        /* \"#utility.yul\":1908:1913   */\n      dup4\n        /* \"#utility.yul\":1904:1918   */\n      add\n        /* \"#utility.yul\":1900:1928   */\n      and\n        /* \"#utility.yul\":1890:1928   */\n      swap1\n      pop\n        /* \"#utility.yul\":1832:1934   */\n      swap2\n      swap1\n      pop\n      jump\t// out\n        /* \"#utility.yul\":1940:2317   */\n    tag_154:\n        /* \"#utility.yul\":2028:2031   */\n      0x00\n        /* \"#utility.yul\":2056:2095   */\n      tag_234\n        /* \"#utility.yul\":2089:2094   */\n      dup3\n        /* \"#utility.yul\":2056:2095   */\n      tag_150\n      jump\t// in\n    tag_234:\n        /* \"#utility.yul\":2111:2182   */\n      tag_235\n        /* \"#utility.yul\":2175:2181   */\n      dup2\n        /* \"#utility.yul\":2170:2173   */\n      dup6\n        /* \"#utility.yul\":2111:2182   */\n      tag_151\n      jump\t// in\n    tag_235:\n        /* \"#utility.yul\":2104:2182   */\n      swap4\n      pop\n        /* \"#utility.yul\":2191:2256   */\n      tag_236\n        /* \"#utility.yul\":2249:2255   */\n      dup2\n        /* \"#utility.yul\":2244:2247   */\n      dup6\n        /* \"#utility.yul\":2237:2241   */\n      0x20\n        /* \"#utility.yul\":2230:2235   */\n      dup7\n        /* \"#utility.yul\":2226:2242   */\n      add\n        /* \"#utility.yul\":2191:2256   */\n      tag_152\n      jump\t// in\n    tag_236:\n        /* \"#utility.yul\":2281:2310   */\n      tag_237\n        /* \"#utility.yul\":2303:2309   */\n      dup2\n        /* \"#utility.yul\":2281:2310   */\n      tag_153\n      jump\t// in\n    tag_237:\n        /* \"#utility.yul\":2276:2279   */\n      dup5\n        /* \"#utility.yul\":2272:2311   */\n      add\n        /* \"#utility.yul\":2265:2311   */\n      swap2\n      pop\n        /* \"#utility.yul\":2032:2317   */\n      pop\n        /* \"#utility.yul\":1940:2317   */\n      swap3\n      swap2\n      pop\n      pop\n      jump\t// out\n        /* \"#utility.yul\":2323:2400   */\n    tag_155:\n        /* \"#utility.yul\":2360:2367   */\n      0x00\n        /* \"#utility.yul\":2389:2394   */\n      dup2\n        /* \"#utility.yul\":2378:2394   */\n      swap1\n      pop\n        /* \"#utility.yul\":2323:2400   */\n      swap2\n      swap1\n      pop\n      jump\t// out\n        /* \"#utility.yul\":2406:2524   */\n    tag_156:\n        /* \"#utility.yul\":2493:2517   */\n      tag_240\n        /* \"#utility.yul\":2511:2516   */\n      dup2\n        /* \"#utility.yul\":2493:2517   */\n      tag_155\n      jump\t// in\n    tag_240:\n        /* \"#utility.yul\":2488:2491   */\n      dup3\n        /* \"#utility.yul\":2481:2518   */\n      mstore\n        /* \"#utility.yul\":2406:2524   */\n      pop\n      pop\n      jump\t// out\n        /* \"#utility.yul\":2530:2710   */\n    tag_83:\n        /* \"#utility.yul\":2578:2655   */\n      0x4e487b7100000000000000000000000000000000000000000000000000000000\n        /* \"#utility.yul\":2575:2576   */\n      0x00\n        /* \"#utility.yul\":2568:2656   */\n      mstore\n        /* \"#utility.yul\":2675:2679   */\n      0x21\n        /* \"#utility.yul\":2672:2673   */\n      0x04\n        /* \"#utility.yul\":2665:2680   */\n      mstore\n        /* \"#utility.yul\":2699:2703   */\n      0x24\n        /* \"#utility.yul\":2696:2697   */\n      0x00\n        /* \"#utility.yul\":2689:2704   */\n      revert\n        /* \"#utility.yul\":2716:2837   */\n    tag_157:\n        /* \"#utility.yul\":2805:2806   */\n      0x03\n        /* \"#utility.yul\":2798:2803   */\n      dup2\n        /* \"#utility.yul\":2795:2807   */\n      lt\n        /* \"#utility.yul\":2785:2831   */\n      tag_243\n      jumpi\n        /* \"#utility.yul\":2811:2829   */\n      tag_244\n      tag_83\n      jump\t// in\n    tag_244:\n        /* \"#utility.yul\":2785:2831   */\n    tag_243:\n        /* \"#utility.yul\":2716:2837   */\n      pop\n      jump\t// out\n        /* \"#utility.yul\":2843:2986   */\n    tag_158:\n        /* \"#utility.yul\":2896:2903   */\n      0x00\n        /* \"#utility.yul\":2925:2930   */\n      dup2\n        /* \"#utility.yul\":2914:2930   */\n      swap1\n      pop\n        /* \"#utility.yul\":2931:2980   */\n      tag_246\n        /* \"#utility.yul\":2974:2979   */\n      dup3\n        /* \"#utility.yul\":2931:2980   */\n      tag_157\n      jump\t// in\n    tag_246:\n        /* \"#utility.yul\":2843:2986   */\n      swap2\n      swap1\n      pop\n      jump\t// out\n        /* \"#utility.yul\":2992:3135   */\n    tag_159:\n        /* \"#utility.yul\":3056:3065   */\n      0x00\n        /* \"#utility.yul\":3089:3129   */\n      tag_248\n        /* \"#utility.yul\":3123:3128   */\n      dup3\n        /* \"#utility.yul\":3089:3129   */\n      tag_158\n      jump\t// in\n    tag_248:\n        /* \"#utility.yul\":3076:3129   */\n      swap1\n      pop\n        /* \"#utility.yul\":2992:3135   */\n      swap2\n      swap1\n      pop\n      jump\t// out\n        /* \"#utility.yul\":3141:3300   */\n    tag_160:\n        /* \"#utility.yul\":3242:3293   */\n      tag_250\n        /* \"#utility.yul\":3287:3292   */\n      dup2\n        /* \"#utility.yul\":3242:3293   */\n      tag_159\n      jump\t// in\n    tag_250:\n        /* \"#utility.yul\":3237:3240   */\n      dup3\n        /* \"#utility.yul\":3230:3294   */\n      mstore\n        /* \"#utility.yul\":3141:3300   */\n      pop\n      pop\n      jump\t// out\n        /* \"#utility.yul\":3306:4180   */\n    tag_20:\n        /* \"#utility.yul\":3565:3569   */\n      0x00\n        /* \"#utility.yul\":3603:3606   */\n      0xa0\n        /* \"#utility.yul\":3592:3601   */\n      dup3\n        /* \"#utility.yul\":3588:3607   */\n      add\n        /* \"#utility.yul\":3580:3607   */\n      swap1\n      pop\n        /* \"#utility.yul\":3617:3688   */\n      tag_252\n        /* \"#utility.yul\":3685:3686   */\n      0x00\n        /* \"#utility.yul\":3674:3683   */\n      dup4\n        /* \"#utility.yul\":3670:3687   */\n      add\n        /* \"#utility.yul\":3661:3667   */\n      dup9\n        /* \"#utility.yul\":3617:3688   */\n      tag_149\n      jump\t// in\n    tag_252:\n        /* \"#utility.yul\":3735:3744   */\n      dup2\n        /* \"#utility.yul\":3729:3733   */\n      dup2\n        /* \"#utility.yul\":3725:3745   */\n      sub\n        /* \"#utility.yul\":3720:3722   */\n      0x20\n        /* \"#utility.yul\":3709:3718   */\n      dup4\n        /* \"#utility.yul\":3705:3723   */\n      add\n        /* \"#utility.yul\":3698:3746   */\n      mstore\n        /* \"#utility.yul\":3763:3841   */\n      tag_253\n        /* \"#utility.yul\":3836:3840   */\n      dup2\n        /* \"#utility.yul\":3827:3833   */\n      dup8\n        /* \"#utility.yul\":3763:3841   */\n      tag_154\n      jump\t// in\n    tag_253:\n        /* \"#utility.yul\":3755:3841   */\n      swap1\n      pop\n        /* \"#utility.yul\":3888:3897   */\n      dup2\n        /* \"#utility.yul\":3882:3886   */\n      dup2\n        /* \"#utility.yul\":3878:3898   */\n      sub\n        /* \"#utility.yul\":3873:3875   */\n      0x40\n        /* \"#utility.yul\":3862:3871   */\n      dup4\n        /* \"#utility.yul\":3858:3876   */\n      add\n        /* \"#utility.yul\":3851:3899   */\n      mstore\n        /* \"#utility.yul\":3916:3994   */\n      tag_254\n        /* \"#utility.yul\":3989:3993   */\n      dup2\n        /* \"#utility.yul\":3980:3986   */\n      dup7\n        /* \"#utility.yul\":3916:3994   */\n      tag_154\n      jump\t// in\n    tag_254:\n        /* \"#utility.yul\":3908:3994   */\n      swap1\n      pop\n        /* \"#utility.yul\":4004:4076   */\n      tag_255\n        /* \"#utility.yul\":4072:4074   */\n      0x60\n        /* \"#utility.yul\":4061:4070   */\n      dup4\n        /* \"#utility.yul\":4057:4075   */\n      add\n        /* \"#utility.yul\":4048:4054   */\n      dup6\n        /* \"#utility.yul\":4004:4076   */\n      tag_156\n      jump\t// in\n    tag_255:\n        /* \"#utility.yul\":4086:4173   */\n      tag_256\n        /* \"#utility.yul\":4168:4171   */\n      0x80\n        /* \"#utility.yul\":4157:4166   */\n      dup4\n        /* \"#utility.yul\":4153:4172   */\n      add\n        /* \"#utility.yul\":4144:4150   */\n      dup5\n        /* \"#utility.yul\":4086:4173   */\n      tag_160\n      jump\t// in\n    tag_256:\n        /* \"#utility.yul\":3306:4180   */\n      swap7\n      swap6\n      pop\n      pop\n      pop\n      pop\n      pop\n      pop\n      jump\t// out\n        /* \"#utility.yul\":4186:4660   */\n    tag_24:\n        /* \"#utility.yul\":4254:4260   */\n      0x00\n        /* \"#utility.yul\":4262:4268   */\n      dup1\n        /* \"#utility.yul\":4311:4313   */\n      0x40\n        /* \"#utility.yul\":4299:4308   */\n      dup4\n        /* \"#utility.yul\":4290:4297   */\n      dup6\n        /* \"#utility.yul\":4286:4309   */\n      sub\n        /* \"#utility.yul\":4282:4314   */\n      slt\n        /* \"#utility.yul\":4279:4398   */\n      iszero\n      tag_258\n      jumpi\n        /* \"#utility.yul\":4317:4396   */\n      tag_259\n      tag_143\n      jump\t// in\n    tag_259:\n        /* \"#utility.yul\":4279:4398   */\n    tag_258:\n        /* \"#utility.yul\":4437:4438   */\n      0x00\n        /* \"#utility.yul\":4462:4515   */\n      tag_260\n        /* \"#utility.yul\":4507:4514   */\n      dup6\n        /* \"#utility.yul\":4498:4504   */\n      dup3\n        /* \"#utility.yul\":4487:4496   */\n      dup7\n        /* \"#utility.yul\":4483:4505   */\n      add\n        /* \"#utility.yul\":4462:4515   */\n      tag_148\n      jump\t// in\n    tag_260:\n        /* \"#utility.yul\":4452:4515   */\n      swap3\n      pop\n        /* \"#utility.yul\":4408:4525   */\n      pop\n        /* \"#utility.yul\":4564:4566   */\n      0x20\n        /* \"#utility.yul\":4590:4643   */\n      tag_261\n        /* \"#utility.yul\":4635:4642   */\n      dup6\n        /* \"#utility.yul\":4626:4632   */\n      dup3\n        /* \"#utility.yul\":4615:4624   */\n      dup7\n        /* \"#utility.yul\":4611:4633   */\n      add\n        /* \"#utility.yul\":4590:4643   */\n      tag_148\n      jump\t// in\n    tag_261:\n        /* \"#utility.yul\":4580:4643   */\n      swap2\n      pop\n        /* \"#utility.yul\":4535:4653   */\n      pop\n        /* \"#utility.yul\":4186:4660   */\n      swap3\n      pop\n      swap3\n      swap1\n      pop\n      jump\t// out\n        /* \"#utility.yul\":4666:4888   */\n    tag_30:\n        /* \"#utility.yul\":4759:4763   */\n      0x00\n        /* \"#utility.yul\":4797:4799   */\n      0x20\n        /* \"#utility.yul\":4786:4795   */\n      dup3\n        /* \"#utility.yul\":4782:4800   */\n      add\n        /* \"#utility.yul\":4774:4800   */\n      swap1\n      pop\n        /* \"#utility.yul\":4810:4881   */\n      tag_263\n        /* \"#utility.yul\":4878:4879   */\n      0x00\n        /* \"#utility.yul\":4867:4876   */\n      dup4\n        /* \"#utility.yul\":4863:4880   */\n      add\n        /* \"#utility.yul\":4854:4860   */\n      dup5\n        /* \"#utility.yul\":4810:4881   */\n      tag_156\n      jump\t// in\n    tag_263:\n        /* \"#utility.yul\":4666:4888   */\n      swap3\n      swap2\n      pop\n      pop\n      jump\t// out\n        /* \"#utility.yul\":4894:4998   */\n    tag_161:\n        /* \"#utility.yul\":4939:4946   */\n      0x00\n        /* \"#utility.yul\":4968:4992   */\n      tag_265\n        /* \"#utility.yul\":4986:4991   */\n      dup3\n        /* \"#utility.yul\":4968:4992   */\n      tag_145\n      jump\t// in\n    tag_265:\n        /* \"#utility.yul\":4957:4992   */\n      swap1\n      pop\n        /* \"#utility.yul\":4894:4998   */\n      swap2\n      swap1\n      pop\n      jump\t// out\n        /* \"#utility.yul\":5004:5142   */\n    tag_162:\n        /* \"#utility.yul\":5085:5117   */\n      tag_267\n        /* \"#utility.yul\":5111:5116   */\n      dup2\n        /* \"#utility.yul\":5085:5117   */\n      tag_161\n      jump\t// in\n    tag_267:\n        /* \"#utility.yul\":5078:5083   */\n      dup2\n        /* \"#utility.yul\":5075:5118   */\n      eq\n        /* \"#utility.yul\":5065:5136   */\n      tag_268\n      jumpi\n        /* \"#utility.yul\":5132:5133   */\n      0x00\n        /* \"#utility.yul\":5129:5130   */\n      dup1\n        /* \"#utility.yul\":5122:5134   */\n      revert\n        /* \"#utility.yul\":5065:5136   */\n    tag_268:\n        /* \"#utility.yul\":5004:5142   */\n      pop\n      jump\t// out\n        /* \"#utility.yul\":5148:5303   */\n    tag_163:\n        /* \"#utility.yul\":5202:5207   */\n      0x00\n        /* \"#utility.yul\":5240:5246   */\n      dup2\n        /* \"#utility.yul\":5227:5247   */\n      calldataload\n        /* \"#utility.yul\":5218:5247   */\n      swap1\n      pop\n        /* \"#utility.yul\":5256:5297   */\n      tag_270\n        /* \"#utility.yul\":5291:5296   */\n      dup2\n        /* \"#utility.yul\":5256:5297   */\n      tag_162\n      jump\t// in\n    tag_270:\n        /* \"#utility.yul\":5148:5303   */\n      swap3\n      swap2\n      pop\n      pop\n      jump\t// out\n        /* \"#utility.yul\":5309:5815   */\n    tag_33:\n        /* \"#utility.yul\":5393:5399   */\n      0x00\n        /* \"#utility.yul\":5401:5407   */\n      dup1\n        /* \"#utility.yul\":5450:5452   */\n      0x40\n        /* \"#utility.yul\":5438:5447   */\n      dup4\n        /* \"#utility.yul\":5429:5436   */\n      dup6\n        /* \"#utility.yul\":5425:5448   */\n      sub\n        /* \"#utility.yul\":5421:5453   */\n      slt\n        /* \"#utility.yul\":5418:5537   */\n      iszero\n      tag_272\n      jumpi\n        /* \"#utility.yul\":5456:5535   */\n      tag_273\n      tag_143\n      jump\t// in\n    tag_273:\n        /* \"#utility.yul\":5418:5537   */\n    tag_272:\n        /* \"#utility.yul\":5576:5577   */\n      0x00\n        /* \"#utility.yul\":5601:5662   */\n      tag_274\n        /* \"#utility.yul\":5654:5661   */\n      dup6\n        /* \"#utility.yul\":5645:5651   */\n      dup3\n        /* \"#utility.yul\":5634:5643   */\n      dup7\n        /* \"#utility.yul\":5630:5652   */\n      add\n        /* \"#utility.yul\":5601:5662   */\n      tag_163\n      jump\t// in\n    tag_274:\n        /* \"#utility.yul\":5591:5662   */\n      swap3\n      pop\n        /* \"#utility.yul\":5547:5672   */\n      pop\n        /* \"#utility.yul\":5711:5713   */\n      0x20\n        /* \"#utility.yul\":5737:5798   */\n      tag_275\n        /* \"#utility.yul\":5790:5797   */\n      dup6\n        /* \"#utility.yul\":5781:5787   */\n      dup3\n        /* \"#utility.yul\":5770:5779   */\n      dup7\n        /* \"#utility.yul\":5766:5788   */\n      add\n        /* \"#utility.yul\":5737:5798   */\n      tag_163\n      jump\t// in\n    tag_275:\n        /* \"#utility.yul\":5727:5798   */\n      swap2\n      pop\n        /* \"#utility.yul\":5682:5808   */\n      pop\n        /* \"#utility.yul\":5309:5815   */\n      swap3\n      pop\n      swap3\n      swap1\n      pop\n      jump\t// out\n        /* \"#utility.yul\":5821:5938   */\n    tag_164:\n        /* \"#utility.yul\":5930:5931   */\n      0x00\n        /* \"#utility.yul\":5927:5928   */\n      dup1\n        /* \"#utility.yul\":5920:5932   */\n      revert\n        /* \"#utility.yul\":5944:6061   */\n    tag_165:\n        /* \"#utility.yul\":6053:6054   */\n      0x00\n        /* \"#utility.yul\":6050:6051   */\n      dup1\n        /* \"#utility.yul\":6043:6055   */\n      revert\n        /* \"#utility.yul\":6067:6247   */\n    tag_166:\n        /* \"#utility.yul\":6115:6192   */\n      0x4e487b7100000000000000000000000000000000000000000000000000000000\n        /* \"#utility.yul\":6112:6113   */\n      0x00\n        /* \"#utility.yul\":6105:6193   */\n      mstore\n        /* \"#utility.yul\":6212:6216   */\n      0x41\n        /* \"#utility.yul\":6209:6210   */\n      0x04\n        /* \"#utility.yul\":6202:6217   */\n      mstore\n        /* \"#utility.yul\":6236:6240   */\n      0x24\n        /* \"#utility.yul\":6233:6234   */\n      0x00\n        /* \"#utility.yul\":6226:6241   */\n      revert\n        /* \"#utility.yul\":6253:6534   */\n    tag_167:\n        /* \"#utility.yul\":6336:6363   */\n      tag_280\n        /* \"#utility.yul\":6358:6362   */\n      dup3\n        /* \"#utility.yul\":6336:6363   */\n      tag_153\n      jump\t// in\n    tag_280:\n        /* \"#utility.yul\":6328:6334   */\n      dup2\n        /* \"#utility.yul\":6324:6364   */\n      add\n        /* \"#utility.yul\":6466:6472   */\n      dup2\n        /* \"#utility.yul\":6454:6464   */\n      dup2\n        /* \"#utility.yul\":6451:6473   */\n      lt\n        /* \"#utility.yul\":6430:6448   */\n      0xffffffffffffffff\n        /* \"#utility.yul\":6418:6428   */\n      dup3\n        /* \"#utility.yul\":6415:6449   */\n      gt\n        /* \"#utility.yul\":6412:6474   */\n      or\n        /* \"#utility.yul\":6409:6497   */\n      iszero\n      tag_281\n      jumpi\n        /* \"#utility.yul\":6477:6495   */\n      tag_282\n      tag_166\n      jump\t// in\n    tag_282:\n        /* \"#utility.yul\":6409:6497   */\n    tag_281:\n        /* \"#utility.yul\":6517:6527   */\n      dup1\n        /* \"#utility.yul\":6513:6515   */\n      0x40\n        /* \"#utility.yul\":6506:6528   */\n      mstore\n        /* \"#utility.yul\":6296:6534   */\n      pop\n        /* \"#utility.yul\":6253:6534   */\n      pop\n      pop\n      jump\t// out\n        /* \"#utility.yul\":6540:6669   */\n    tag_168:\n        /* \"#utility.yul\":6574:6580   */\n      0x00\n        /* \"#utility.yul\":6601:6621   */\n      tag_284\n      tag_142\n      jump\t// in\n    tag_284:\n        /* \"#utility.yul\":6591:6621   */\n      swap1\n      pop\n        /* \"#utility.yul\":6630:6663   */\n      tag_285\n        /* \"#utility.yul\":6658:6662   */\n      dup3\n        /* \"#utility.yul\":6650:6656   */\n      dup3\n        /* \"#utility.yul\":6630:6663   */\n      tag_167\n      jump\t// in\n    tag_285:\n        /* \"#utility.yul\":6540:6669   */\n      swap2\n      swap1\n      pop\n      jump\t// out\n        /* \"#utility.yul\":6675:6983   */\n    tag_169:\n        /* \"#utility.yul\":6737:6741   */\n      0x00\n        /* \"#utility.yul\":6827:6845   */\n      0xffffffffffffffff\n        /* \"#utility.yul\":6819:6825   */\n      dup3\n        /* \"#utility.yul\":6816:6846   */\n      gt\n        /* \"#utility.yul\":6813:6869   */\n      iszero\n      tag_287\n      jumpi\n        /* \"#utility.yul\":6849:6867   */\n      tag_288\n      tag_166\n      jump\t// in\n    tag_288:\n        /* \"#utility.yul\":6813:6869   */\n    tag_287:\n        /* \"#utility.yul\":6887:6916   */\n      tag_289\n        /* \"#utility.yul\":6909:6915   */\n      dup3\n        /* \"#utility.yul\":6887:6916   */\n      tag_153\n      jump\t// in\n    tag_289:\n        /* \"#utility.yul\":6879:6916   */\n      swap1\n      pop\n        /* \"#utility.yul\":6971:6975   */\n      0x20\n        /* \"#utility.yul\":6965:6969   */\n      dup2\n        /* \"#utility.yul\":6961:6976   */\n      add\n        /* \"#utility.yul\":6953:6976   */\n      swap1\n      pop\n        /* \"#utility.yul\":6675:6983   */\n      swap2\n      swap1\n      pop\n      jump\t// out\n        /* \"#utility.yul\":6989:7135   */\n    tag_170:\n        /* \"#utility.yul\":7086:7092   */\n      dup3\n        /* \"#utility.yul\":7081:7084   */\n      dup2\n        /* \"#utility.yul\":7076:7079   */\n      dup4\n        /* \"#utility.yul\":7063:7093   */\n      calldatacopy\n        /* \"#utility.yul\":7127:7128   */\n      0x00\n        /* \"#utility.yul\":7118:7124   */\n      dup4\n        /* \"#utility.yul\":7113:7116   */\n      dup4\n        /* \"#utility.yul\":7109:7125   */\n      add\n        /* \"#utility.yul\":7102:7129   */\n      mstore\n        /* \"#utility.yul\":6989:7135   */\n      pop\n      pop\n      pop\n      jump\t// out\n        /* \"#utility.yul\":7141:7566   */\n    tag_171:\n        /* \"#utility.yul\":7219:7224   */\n      0x00\n        /* \"#utility.yul\":7244:7310   */\n      tag_292\n        /* \"#utility.yul\":7260:7309   */\n      tag_293\n        /* \"#utility.yul\":7302:7308   */\n      dup5\n        /* \"#utility.yul\":7260:7309   */\n      tag_169\n      jump\t// in\n    tag_293:\n        /* \"#utility.yul\":7244:7310   */\n      tag_168\n      jump\t// in\n    tag_292:\n        /* \"#utility.yul\":7235:7310   */\n      swap1\n      pop\n        /* \"#utility.yul\":7333:7339   */\n      dup3\n        /* \"#utility.yul\":7326:7331   */\n      dup2\n        /* \"#utility.yul\":7319:7340   */\n      mstore\n        /* \"#utility.yul\":7371:7375   */\n      0x20\n        /* \"#utility.yul\":7364:7369   */\n      dup2\n        /* \"#utility.yul\":7360:7376   */\n      add\n        /* \"#utility.yul\":7409:7412   */\n      dup5\n        /* \"#utility.yul\":7400:7406   */\n      dup5\n        /* \"#utility.yul\":7395:7398   */\n      dup5\n        /* \"#utility.yul\":7391:7407   */\n      add\n        /* \"#utility.yul\":7388:7413   */\n      gt\n        /* \"#utility.yul\":7385:7497   */\n      iszero\n      tag_294\n      jumpi\n        /* \"#utility.yul\":7416:7495   */\n      tag_295\n      tag_165\n      jump\t// in\n    tag_295:\n        /* \"#utility.yul\":7385:7497   */\n    tag_294:\n        /* \"#utility.yul\":7506:7560   */\n      tag_296\n        /* \"#utility.yul\":7553:7559   */\n      dup5\n        /* \"#utility.yul\":7548:7551   */\n      dup3\n        /* \"#utility.yul\":7543:7546   */\n      dup6\n        /* \"#utility.yul\":7506:7560   */\n      tag_170\n      jump\t// in\n    tag_296:\n        /* \"#utility.yul\":7225:7566   */\n      pop\n        /* \"#utility.yul\":7141:7566   */\n      swap4\n      swap3\n      pop\n      pop\n      pop\n      jump\t// out\n        /* \"#utility.yul\":7586:7926   */\n    tag_172:\n        /* \"#utility.yul\":7642:7647   */\n      0x00\n        /* \"#utility.yul\":7691:7694   */\n      dup3\n        /* \"#utility.yul\":7684:7688   */\n      0x1f\n        /* \"#utility.yul\":7676:7682   */\n      dup4\n        /* \"#utility.yul\":7672:7689   */\n      add\n        /* \"#utility.yul\":7668:7695   */\n      slt\n        /* \"#utility.yul\":7658:7780   */\n      tag_298\n      jumpi\n        /* \"#utility.yul\":7699:7778   */\n      tag_299\n      tag_164\n      jump\t// in\n    tag_299:\n        /* \"#utility.yul\":7658:7780   */\n    tag_298:\n        /* \"#utility.yul\":7816:7822   */\n      dup2\n        /* \"#utility.yul\":7803:7823   */\n      calldataload\n        /* \"#utility.yul\":7841:7920   */\n      tag_300\n        /* \"#utility.yul\":7916:7919   */\n      dup5\n        /* \"#utility.yul\":7908:7914   */\n      dup3\n        /* \"#utility.yul\":7901:7905   */\n      0x20\n        /* \"#utility.yul\":7893:7899   */\n      dup7\n        /* \"#utility.yul\":7889:7906   */\n      add\n        /* \"#utility.yul\":7841:7920   */\n      tag_171\n      jump\t// in\n    tag_300:\n        /* \"#utility.yul\":7832:7920   */\n      swap2\n      pop\n        /* \"#utility.yul\":7648:7926   */\n      pop\n        /* \"#utility.yul\":7586:7926   */\n      swap3\n      swap2\n      pop\n      pop\n      jump\t// out\n        /* \"#utility.yul\":7932:8054   */\n    tag_173:\n        /* \"#utility.yul\":8005:8029   */\n      tag_302\n        /* \"#utility.yul\":8023:8028   */\n      dup2\n        /* \"#utility.yul\":8005:8029   */\n      tag_155\n      jump\t// in\n    tag_302:\n        /* \"#utility.yul\":7998:8003   */\n      dup2\n        /* \"#utility.yul\":7995:8030   */\n      eq\n        /* \"#utility.yul\":7985:8048   */\n      tag_303\n      jumpi\n        /* \"#utility.yul\":8044:8045   */\n      0x00\n        /* \"#utility.yul\":8041:8042   */\n      dup1\n        /* \"#utility.yul\":8034:8046   */\n      revert\n        /* \"#utility.yul\":7985:8048   */\n    tag_303:\n        /* \"#utility.yul\":7932:8054   */\n      pop\n      jump\t// out\n        /* \"#utility.yul\":8060:8199   */\n    tag_174:\n        /* \"#utility.yul\":8106:8111   */\n      0x00\n        /* \"#utility.yul\":8144:8150   */\n      dup2\n        /* \"#utility.yul\":8131:8151   */\n      calldataload\n        /* \"#utility.yul\":8122:8151   */\n      swap1\n      pop\n        /* \"#utility.yul\":8160:8193   */\n      tag_305\n        /* \"#utility.yul\":8187:8192   */\n      dup2\n        /* \"#utility.yul\":8160:8193   */\n      tag_173\n      jump\t// in\n    tag_305:\n        /* \"#utility.yul\":8060:8199   */\n      swap3\n      swap2\n      pop\n      pop\n      jump\t// out\n        /* \"#utility.yul\":8205:9184   */\n    tag_38:\n        /* \"#utility.yul\":8302:8308   */\n      0x00\n        /* \"#utility.yul\":8310:8316   */\n      dup1\n        /* \"#utility.yul\":8318:8324   */\n      0x00\n        /* \"#utility.yul\":8367:8369   */\n      0x60\n        /* \"#utility.yul\":8355:8364   */\n      dup5\n        /* \"#utility.yul\":8346:8353   */\n      dup7\n        /* \"#utility.yul\":8342:8365   */\n      sub\n        /* \"#utility.yul\":8338:8370   */\n      slt\n        /* \"#utility.yul\":8335:8454   */\n      iszero\n      tag_307\n      jumpi\n        /* \"#utility.yul\":8373:8452   */\n      tag_308\n      tag_143\n      jump\t// in\n    tag_308:\n        /* \"#utility.yul\":8335:8454   */\n    tag_307:\n        /* \"#utility.yul\":8521:8522   */\n      0x00\n        /* \"#utility.yul\":8510:8519   */\n      dup5\n        /* \"#utility.yul\":8506:8523   */\n      add\n        /* \"#utility.yul\":8493:8524   */\n      calldataload\n        /* \"#utility.yul\":8551:8569   */\n      0xffffffffffffffff\n        /* \"#utility.yul\":8543:8549   */\n      dup2\n        /* \"#utility.yul\":8540:8570   */\n      gt\n        /* \"#utility.yul\":8537:8654   */\n      iszero\n      tag_309\n      jumpi\n        /* \"#utility.yul\":8573:8652   */\n      tag_310\n      tag_144\n      jump\t// in\n    tag_310:\n        /* \"#utility.yul\":8537:8654   */\n    tag_309:\n        /* \"#utility.yul\":8678:8741   */\n      tag_311\n        /* \"#utility.yul\":8733:8740   */\n      dup7\n        /* \"#utility.yul\":8724:8730   */\n      dup3\n        /* \"#utility.yul\":8713:8722   */\n      dup8\n        /* \"#utility.yul\":8709:8731   */\n      add\n        /* \"#utility.yul\":8678:8741   */\n      tag_172\n      jump\t// in\n    tag_311:\n        /* \"#utility.yul\":8668:8741   */\n      swap4\n      pop\n        /* \"#utility.yul\":8464:8751   */\n      pop\n        /* \"#utility.yul\":8818:8820   */\n      0x20\n        /* \"#utility.yul\":8807:8816   */\n      dup5\n        /* \"#utility.yul\":8803:8821   */\n      add\n        /* \"#utility.yul\":8790:8822   */\n      calldataload\n        /* \"#utility.yul\":8849:8867   */\n      0xffffffffffffffff\n        /* \"#utility.yul\":8841:8847   */\n      dup2\n        /* \"#utility.yul\":8838:8868   */\n      gt\n        /* \"#utility.yul\":8835:8952   */\n      iszero\n      tag_312\n      jumpi\n        /* \"#utility.yul\":8871:8950   */\n      tag_313\n      tag_144\n      jump\t// in\n    tag_313:\n        /* \"#utility.yul\":8835:8952   */\n    tag_312:\n        /* \"#utility.yul\":8976:9039   */\n      tag_314\n        /* \"#utility.yul\":9031:9038   */\n      dup7\n        /* \"#utility.yul\":9022:9028   */\n      dup3\n        /* \"#utility.yul\":9011:9020   */\n      dup8\n        /* \"#utility.yul\":9007:9029   */\n      add\n        /* \"#utility.yul\":8976:9039   */\n      tag_172\n      jump\t// in\n    tag_314:\n        /* \"#utility.yul\":8966:9039   */\n      swap3\n      pop\n        /* \"#utility.yul\":8761:9049   */\n      pop\n        /* \"#utility.yul\":9088:9090   */\n      0x40\n        /* \"#utility.yul\":9114:9167   */\n      tag_315\n        /* \"#utility.yul\":9159:9166   */\n      dup7\n        /* \"#utility.yul\":9150:9156   */\n      dup3\n        /* \"#utility.yul\":9139:9148   */\n      dup8\n        /* \"#utility.yul\":9135:9157   */\n      add\n        /* \"#utility.yul\":9114:9167   */\n      tag_174\n      jump\t// in\n    tag_315:\n        /* \"#utility.yul\":9104:9167   */\n      swap2\n      pop\n        /* \"#utility.yul\":9059:9177   */\n      pop\n        /* \"#utility.yul\":8205:9184   */\n      swap3\n      pop\n      swap3\n      pop\n      swap3\n      jump\t// out\n        /* \"#utility.yul\":9190:9280   */\n    tag_175:\n        /* \"#utility.yul\":9224:9231   */\n      0x00\n        /* \"#utility.yul\":9267:9272   */\n      dup2\n        /* \"#utility.yul\":9260:9273   */\n      iszero\n        /* \"#utility.yul\":9253:9274   */\n      iszero\n        /* \"#utility.yul\":9242:9274   */\n      swap1\n      pop\n        /* \"#utility.yul\":9190:9280   */\n      swap2\n      swap1\n      pop\n      jump\t// out\n        /* \"#utility.yul\":9286:9395   */\n    tag_176:\n        /* \"#utility.yul\":9367:9388   */\n      tag_318\n        /* \"#utility.yul\":9382:9387   */\n      dup2\n        /* \"#utility.yul\":9367:9388   */\n      tag_175\n      jump\t// in\n    tag_318:\n        /* \"#utility.yul\":9362:9365   */\n      dup3\n        /* \"#utility.yul\":9355:9389   */\n      mstore\n        /* \"#utility.yul\":9286:9395   */\n      pop\n      pop\n      jump\t// out\n        /* \"#utility.yul\":9401:9611   */\n    tag_45:\n        /* \"#utility.yul\":9488:9492   */\n      0x00\n        /* \"#utility.yul\":9526:9528   */\n      0x20\n        /* \"#utility.yul\":9515:9524   */\n      dup3\n        /* \"#utility.yul\":9511:9529   */\n      add\n        /* \"#utility.yul\":9503:9529   */\n      swap1\n      pop\n        /* \"#utility.yul\":9539:9604   */\n      tag_320\n        /* \"#utility.yul\":9601:9602   */\n      0x00\n        /* \"#utility.yul\":9590:9599   */\n      dup4\n        /* \"#utility.yul\":9586:9603   */\n      add\n        /* \"#utility.yul\":9577:9583   */\n      dup5\n        /* \"#utility.yul\":9539:9604   */\n      tag_176\n      jump\t// in\n    tag_320:\n        /* \"#utility.yul\":9401:9611   */\n      swap3\n      swap2\n      pop\n      pop\n      jump\t// out\n        /* \"#utility.yul\":9617:9759   */\n    tag_177:\n        /* \"#utility.yul\":9720:9752   */\n      tag_322\n        /* \"#utility.yul\":9746:9751   */\n      dup2\n        /* \"#utility.yul\":9720:9752   */\n      tag_161\n      jump\t// in\n    tag_322:\n        /* \"#utility.yul\":9715:9718   */\n      dup3\n        /* \"#utility.yul\":9708:9753   */\n      mstore\n        /* \"#utility.yul\":9617:9759   */\n      pop\n      pop\n      jump\t// out\n        /* \"#utility.yul\":9765:10019   */\n    tag_58:\n        /* \"#utility.yul\":9874:9878   */\n      0x00\n        /* \"#utility.yul\":9912:9914   */\n      0x20\n        /* \"#utility.yul\":9901:9910   */\n      dup3\n        /* \"#utility.yul\":9897:9915   */\n      add\n        /* \"#utility.yul\":9889:9915   */\n      swap1\n      pop\n        /* \"#utility.yul\":9925:10012   */\n      tag_324\n        /* \"#utility.yul\":10009:10010   */\n      0x00\n        /* \"#utility.yul\":9998:10007   */\n      dup4\n        /* \"#utility.yul\":9994:10011   */\n      add\n        /* \"#utility.yul\":9985:9991   */\n      dup5\n        /* \"#utility.yul\":9925:10012   */\n      tag_177\n      jump\t// in\n    tag_324:\n        /* \"#utility.yul\":9765:10019   */\n      swap3\n      swap2\n      pop\n      pop\n      jump\t// out\n        /* \"#utility.yul\":10025:10205   */\n    tag_178:\n        /* \"#utility.yul\":10073:10150   */\n      0x4e487b7100000000000000000000000000000000000000000000000000000000\n        /* \"#utility.yul\":10070:10071   */\n      0x00\n        /* \"#utility.yul\":10063:10151   */\n      mstore\n        /* \"#utility.yul\":10170:10174   */\n      0x22\n        /* \"#utility.yul\":10167:10168   */\n      0x04\n        /* \"#utility.yul\":10160:10175   */\n      mstore\n        /* \"#utility.yul\":10194:10198   */\n      0x24\n        /* \"#utility.yul\":10191:10192   */\n      0x00\n        /* \"#utility.yul\":10184:10199   */\n      revert\n        /* \"#utility.yul\":10211:10531   */\n    tag_67:\n        /* \"#utility.yul\":10255:10261   */\n      0x00\n        /* \"#utility.yul\":10292:10293   */\n      0x02\n        /* \"#utility.yul\":10286:10290   */\n      dup3\n        /* \"#utility.yul\":10282:10294   */\n      div\n        /* \"#utility.yul\":10272:10294   */\n      swap1\n      pop\n        /* \"#utility.yul\":10339:10340   */\n      0x01\n        /* \"#utility.yul\":10333:10337   */\n      dup3\n        /* \"#utility.yul\":10329:10341   */\n      and\n        /* \"#utility.yul\":10360:10378   */\n      dup1\n        /* \"#utility.yul\":10350:10431   */\n      tag_327\n      jumpi\n        /* \"#utility.yul\":10416:10420   */\n      0x7f\n        /* \"#utility.yul\":10408:10414   */\n      dup3\n        /* \"#utility.yul\":10404:10421   */\n      and\n        /* \"#utility.yul\":10394:10421   */\n      swap2\n      pop\n        /* \"#utility.yul\":10350:10431   */\n    tag_327:\n        /* \"#utility.yul\":10478:10480   */\n      0x20\n        /* \"#utility.yul\":10470:10476   */\n      dup3\n        /* \"#utility.yul\":10467:10481   */\n      lt\n        /* \"#utility.yul\":10447:10465   */\n      dup2\n        /* \"#utility.yul\":10444:10482   */\n      sub\n        /* \"#utility.yul\":10441:10525   */\n      tag_328\n      jumpi\n        /* \"#utility.yul\":10497:10515   */\n      tag_329\n      tag_178\n      jump\t// in\n    tag_329:\n        /* \"#utility.yul\":10441:10525   */\n    tag_328:\n        /* \"#utility.yul\":10262:10531   */\n      pop\n        /* \"#utility.yul\":10211:10531   */\n      swap2\n      swap1\n      pop\n      jump\t// out\n        /* \"#utility.yul\":10537:10717   */\n    tag_179:\n        /* \"#utility.yul\":10677:10709   */\n      0x596f7520617265206e6f74207468652070726f7065727479206f776e65720000\n        /* \"#utility.yul\":10673:10674   */\n      0x00\n        /* \"#utility.yul\":10665:10671   */\n      dup3\n        /* \"#utility.yul\":10661:10675   */\n      add\n        /* \"#utility.yul\":10654:10710   */\n      mstore\n        /* \"#utility.yul\":10537:10717   */\n      pop\n      jump\t// out\n        /* \"#utility.yul\":10723:11089   */\n    tag_180:\n        /* \"#utility.yul\":10865:10868   */\n      0x00\n        /* \"#utility.yul\":10886:10953   */\n      tag_332\n        /* \"#utility.yul\":10950:10952   */\n      0x1e\n        /* \"#utility.yul\":10945:10948   */\n      dup4\n        /* \"#utility.yul\":10886:10953   */\n      tag_151\n      jump\t// in\n    tag_332:\n        /* \"#utility.yul\":10879:10953   */\n      swap2\n      pop\n        /* \"#utility.yul\":10962:11055   */\n      tag_333\n        /* \"#utility.yul\":11051:11054   */\n      dup3\n        /* \"#utility.yul\":10962:11055   */\n      tag_179\n      jump\t// in\n    tag_333:\n        /* \"#utility.yul\":11080:11082   */\n      0x20\n        /* \"#utility.yul\":11075:11078   */\n      dup3\n        /* \"#utility.yul\":11071:11083   */\n      add\n        /* \"#utility.yul\":11064:11083   */\n      swap1\n      pop\n        /* \"#utility.yul\":10723:11089   */\n      swap2\n      swap1\n      pop\n      jump\t// out\n        /* \"#utility.yul\":11095:11514   */\n    tag_80:\n        /* \"#utility.yul\":11261:11265   */\n      0x00\n        /* \"#utility.yul\":11299:11301   */\n      0x20\n        /* \"#utility.yul\":11288:11297   */\n      dup3\n        /* \"#utility.yul\":11284:11302   */\n      add\n        /* \"#utility.yul\":11276:11302   */\n      swap1\n      pop\n        /* \"#utility.yul\":11348:11357   */\n      dup2\n        /* \"#utility.yul\":11342:11346   */\n      dup2\n        /* \"#utility.yul\":11338:11358   */\n      sub\n        /* \"#utility.yul\":11334:11335   */\n      0x00\n        /* \"#utility.yul\":11323:11332   */\n      dup4\n        /* \"#utility.yul\":11319:11336   */\n      add\n        /* \"#utility.yul\":11312:11359   */\n      mstore\n        /* \"#utility.yul\":11376:11507   */\n      tag_335\n        /* \"#utility.yul\":11502:11506   */\n      dup2\n        /* \"#utility.yul\":11376:11507   */\n      tag_180\n      jump\t// in\n    tag_335:\n        /* \"#utility.yul\":11368:11507   */\n      swap1\n      pop\n        /* \"#utility.yul\":11095:11514   */\n      swap2\n      swap1\n      pop\n      jump\t// out\n        /* \"#utility.yul\":11520:11693   */\n    tag_181:\n        /* \"#utility.yul\":11660:11685   */\n      0x50726f7065727479206973206e6f742070656e64696e67000000000000000000\n        /* \"#utility.yul\":11656:11657   */\n      0x00\n        /* \"#utility.yul\":11648:11654   */\n      dup3\n        /* \"#utility.yul\":11644:11658   */\n      add\n        /* \"#utility.yul\":11637:11686   */\n      mstore\n        /* \"#utility.yul\":11520:11693   */\n      pop\n      jump\t// out\n        /* \"#utility.yul\":11699:12065   */\n    tag_182:\n        /* \"#utility.yul\":11841:11844   */\n      0x00\n        /* \"#utility.yul\":11862:11929   */\n      tag_338\n        /* \"#utility.yul\":11926:11928   */\n      0x17\n        /* \"#utility.yul\":11921:11924   */\n      dup4\n        /* \"#utility.yul\":11862:11929   */\n      tag_151\n      jump\t// in\n    tag_338:\n        /* \"#utility.yul\":11855:11929   */\n      swap2\n      pop\n        /* \"#utility.yul\":11938:12031   */\n      tag_339\n        /* \"#utility.yul\":12027:12030   */\n      dup3\n        /* \"#utility.yul\":11938:12031   */\n      tag_181\n      jump\t// in\n    tag_339:\n        /* \"#utility.yul\":12056:12058   */\n      0x20\n        /* \"#utility.yul\":12051:12054   */\n      dup3\n        /* \"#utility.yul\":12047:12059   */\n      add\n        /* \"#utility.yul\":12040:12059   */\n      swap1\n      pop\n        /* \"#utility.yul\":11699:12065   */\n      swap2\n      swap1\n      pop\n      jump\t// out\n        /* \"#utility.yul\":12071:12490   */\n    tag_88:\n        /* \"#utility.yul\":12237:12241   */\n      0x00\n        /* \"#utility.yul\":12275:12277   */\n      0x20\n        /* \"#utility.yul\":12264:12273   */\n      dup3\n        /* \"#utility.yul\":12260:12278   */\n      add\n        /* \"#utility.yul\":12252:12278   */\n      swap1\n      pop\n        /* \"#utility.yul\":12324:12333   */\n      dup2\n        /* \"#utility.yul\":12318:12322   */\n      dup2\n        /* \"#utility.yul\":12314:12334   */\n      sub\n        /* \"#utility.yul\":12310:12311   */\n      0x00\n        /* \"#utility.yul\":12299:12308   */\n      dup4\n        /* \"#utility.yul\":12295:12312   */\n      add\n        /* \"#utility.yul\":12288:12335   */\n      mstore\n        /* \"#utility.yul\":12352:12483   */\n      tag_341\n        /* \"#utility.yul\":12478:12482   */\n      dup2\n        /* \"#utility.yul\":12352:12483   */\n      tag_182\n      jump\t// in\n    tag_341:\n        /* \"#utility.yul\":12344:12483   */\n      swap1\n      pop\n        /* \"#utility.yul\":12071:12490   */\n      swap2\n      swap1\n      pop\n      jump\t// out\n        /* \"#utility.yul\":12496:12667   */\n    tag_183:\n        /* \"#utility.yul\":12636:12659   */\n      0x596f7520617265206e6f74207468652062757965720000000000000000000000\n        /* \"#utility.yul\":12632:12633   */\n      0x00\n        /* \"#utility.yul\":12624:12630   */\n      dup3\n        /* \"#utility.yul\":12620:12634   */\n      add\n        /* \"#utility.yul\":12613:12660   */\n      mstore\n        /* \"#utility.yul\":12496:12667   */\n      pop\n      jump\t// out\n        /* \"#utility.yul\":12673:13039   */\n    tag_184:\n        /* \"#utility.yul\":12815:12818   */\n      0x00\n        /* \"#utility.yul\":12836:12903   */\n      tag_344\n        /* \"#utility.yul\":12900:12902   */\n      0x15\n        /* \"#utility.yul\":12895:12898   */\n      dup4\n        /* \"#utility.yul\":12836:12903   */\n      tag_151\n      jump\t// in\n    tag_344:\n        /* \"#utility.yul\":12829:12903   */\n      swap2\n      pop\n        /* \"#utility.yul\":12912:13005   */\n      tag_345\n        /* \"#utility.yul\":13001:13004   */\n      dup3\n        /* \"#utility.yul\":12912:13005   */\n      tag_183\n      jump\t// in\n    tag_345:\n        /* \"#utility.yul\":13030:13032   */\n      0x20\n        /* \"#utility.yul\":13025:13028   */\n      dup3\n        /* \"#utility.yul\":13021:13033   */\n      add\n        /* \"#utility.yul\":13014:13033   */\n      swap1\n      pop\n        /* \"#utility.yul\":12673:13039   */\n      swap2\n      swap1\n      pop\n      jump\t// out\n        /* \"#utility.yul\":13045:13464   */\n    tag_93:\n        /* \"#utility.yul\":13211:13215   */\n      0x00\n        /* \"#utility.yul\":13249:13251   */\n      0x20\n        /* \"#utility.yul\":13238:13247   */\n      dup3\n        /* \"#utility.yul\":13234:13252   */\n      add\n        /* \"#utility.yul\":13226:13252   */\n      swap1\n      pop\n        /* \"#utility.yul\":13298:13307   */\n      dup2\n        /* \"#utility.yul\":13292:13296   */\n      dup2\n        /* \"#utility.yul\":13288:13308   */\n      sub\n        /* \"#utility.yul\":13284:13285   */\n      0x00\n        /* \"#utility.yul\":13273:13282   */\n      dup4\n        /* \"#utility.yul\":13269:13286   */\n      add\n        /* \"#utility.yul\":13262:13309   */\n      mstore\n        /* \"#utility.yul\":13326:13457   */\n      tag_347\n        /* \"#utility.yul\":13452:13456   */\n      dup2\n        /* \"#utility.yul\":13326:13457   */\n      tag_184\n      jump\t// in\n    tag_347:\n        /* \"#utility.yul\":13318:13457   */\n      swap1\n      pop\n        /* \"#utility.yul\":13045:13464   */\n      swap2\n      swap1\n      pop\n      jump\t// out\n        /* \"#utility.yul\":13470:13611   */\n    tag_185:\n        /* \"#utility.yul\":13519:13523   */\n      0x00\n        /* \"#utility.yul\":13542:13545   */\n      dup2\n        /* \"#utility.yul\":13534:13545   */\n      swap1\n      pop\n        /* \"#utility.yul\":13565:13568   */\n      dup2\n        /* \"#utility.yul\":13562:13563   */\n      0x00\n        /* \"#utility.yul\":13555:13569   */\n      mstore\n        /* \"#utility.yul\":13599:13603   */\n      0x20\n        /* \"#utility.yul\":13596:13597   */\n      0x00\n        /* \"#utility.yul\":13586:13604   */\n      keccak256\n        /* \"#utility.yul\":13578:13604   */\n      swap1\n      pop\n        /* \"#utility.yul\":13470:13611   */\n      swap2\n      swap1\n      pop\n      jump\t// out\n        /* \"#utility.yul\":13617:13710   */\n    tag_186:\n        /* \"#utility.yul\":13654:13660   */\n      0x00\n        /* \"#utility.yul\":13701:13703   */\n      0x20\n        /* \"#utility.yul\":13696:13698   */\n      0x1f\n        /* \"#utility.yul\":13689:13694   */\n      dup4\n        /* \"#utility.yul\":13685:13699   */\n      add\n        /* \"#utility.yul\":13681:13704   */\n      div\n        /* \"#utility.yul\":13671:13704   */\n      swap1\n      pop\n        /* \"#utility.yul\":13617:13710   */\n      swap2\n      swap1\n      pop\n      jump\t// out\n        /* \"#utility.yul\":13716:13823   */\n    tag_187:\n        /* \"#utility.yul\":13760:13768   */\n      0x00\n        /* \"#utility.yul\":13810:13815   */\n      dup3\n        /* \"#utility.yul\":13804:13808   */\n      dup3\n        /* \"#utility.yul\":13800:13816   */\n      shl\n        /* \"#utility.yul\":13779:13816   */\n      swap1\n      pop\n        /* \"#utility.yul\":13716:13823   */\n      swap3\n      swap2\n      pop\n      pop\n      jump\t// out\n        /* \"#utility.yul\":13829:14222   */\n    tag_188:\n        /* \"#utility.yul\":13898:13904   */\n      0x00\n        /* \"#utility.yul\":13948:13949   */\n      0x08\n        /* \"#utility.yul\":13936:13946   */\n      dup4\n        /* \"#utility.yul\":13932:13950   */\n      mul\n        /* \"#utility.yul\":13971:14068   */\n      tag_352\n        /* \"#utility.yul\":14001:14067   */\n      0xffffffffffffffffffffffffffffffffffffffffffffffffffffffffffffffff\n        /* \"#utility.yul\":13990:13999   */\n      dup3\n        /* \"#utility.yul\":13971:14068   */\n      tag_187\n      jump\t// in\n    tag_352:\n        /* \"#utility.yul\":14089:14128   */\n      tag_353\n        /* \"#utility.yul\":14119:14127   */\n      dup7\n        /* \"#utility.yul\":14108:14117   */\n      dup4\n        /* \"#utility.yul\":14089:14128   */\n      tag_187\n      jump\t// in\n    tag_353:\n        /* \"#utility.yul\":14077:14128   */\n      swap6\n      pop\n        /* \"#utility.yul\":14161:14165   */\n      dup1\n        /* \"#utility.yul\":14157:14166   */\n      not\n        /* \"#utility.yul\":14150:14155   */\n      dup5\n        /* \"#utility.yul\":14146:14167   */\n      and\n        /* \"#utility.yul\":14137:14167   */\n      swap4\n      pop\n        /* \"#utility.yul\":14210:14214   */\n      dup1\n        /* \"#utility.yul\":14200:14208   */\n      dup7\n        /* \"#utility.yul\":14196:14215   */\n      and\n        /* \"#utility.yul\":14189:14194   */\n      dup5\n        /* \"#utility.yul\":14186:14216   */\n      or\n        /* \"#utility.yul\":14176:14216   */\n      swap3\n      pop\n        /* \"#utility.yul\":13905:14222   */\n      pop\n      pop\n        /* \"#utility.yul\":13829:14222   */\n      swap4\n      swap3\n      pop\n      pop\n      pop\n      jump\t// out\n        /* \"#utility.yul\":14228:14288   */\n    tag_189:\n        /* \"#utility.yul\":14256:14259   */\n      0x00\n        /* \"#utility.yul\":14277:14282   */\n      dup2\n        /* \"#utility.yul\":14270:14282   */\n      swap1\n      pop\n        /* \"#utility.yul\":14228:14288   */\n      swap2\n      swap1\n      pop\n      jump\t// out\n        /* \"#utility.yul\":14294:14436   */\n    tag_190:\n        /* \"#utility.yul\":14344:14353   */\n      0x00\n        /* \"#utility.yul\":14377:14430   */\n      tag_356\n        /* \"#utility.yul\":14395:14429   */\n      tag_357\n        /* \"#utility.yul\":14404:14428   */\n      tag_358\n        /* \"#utility.yul\":14422:14427   */\n      dup5\n        /* \"#utility.yul\":14404:14428   */\n      tag_155\n      jump\t// in\n    tag_358:\n        /* \"#utility.yul\":14395:14429   */\n      tag_189\n      jump\t// in\n    tag_357:\n        /* \"#utility.yul\":14377:14430   */\n      tag_155\n      jump\t// in\n    tag_356:\n        /* \"#utility.yul\":14364:14430   */\n      swap1\n      pop\n        /* \"#utility.yul\":14294:14436   */\n      swap2\n      swap1\n      pop\n      jump\t// out\n        /* \"#utility.yul\":14442:14517   */\n    tag_191:\n        /* \"#utility.yul\":14485:14488   */\n      0x00\n        /* \"#utility.yul\":14506:14511   */\n      dup2\n        /* \"#utility.yul\":14499:14511   */\n      swap1\n      pop\n        /* \"#utility.yul\":14442:14517   */\n      swap2\n      swap1\n      pop\n      jump\t// out\n        /* \"#utility.yul\":14523:14792   */\n    tag_192:\n        /* \"#utility.yul\":14633:14672   */\n      tag_361\n        /* \"#utility.yul\":14664:14671   */\n      dup4\n        /* \"#utility.yul\":14633:14672   */\n      tag_190\n      jump\t// in\n    tag_361:\n        /* \"#utility.yul\":14694:14785   */\n      tag_362\n        /* \"#utility.yul\":14743:14784   */\n      tag_363\n        /* \"#utility.yul\":14767:14783   */\n      dup3\n        /* \"#utility.yul\":14743:14784   */\n      tag_191\n      jump\t// in\n    tag_363:\n        /* \"#utility.yul\":14735:14741   */\n      dup5\n        /* \"#utility.yul\":14728:14732   */\n      dup5\n        /* \"#utility.yul\":14722:14733   */\n      sload\n        /* \"#utility.yul\":14694:14785   */\n      tag_188\n      jump\t// in\n    tag_362:\n        /* \"#utility.yul\":14688:14692   */\n      dup3\n        /* \"#utility.yul\":14681:14786   */\n      sstore\n        /* \"#utility.yul\":14599:14792   */\n      pop\n        /* \"#utility.yul\":14523:14792   */\n      pop\n      pop\n      pop\n      jump\t// out\n        /* \"#utility.yul\":14798:14871   */\n    tag_193:\n        /* \"#utility.yul\":14843:14846   */\n      0x00\n        /* \"#utility.yul\":14798:14871   */\n      swap1\n      jump\t// out\n        /* \"#utility.yul\":14877:15066   */\n    tag_194:\n        /* \"#utility.yul\":14954:14986   */\n      tag_366\n      tag_193\n      jump\t// in\n    tag_366:\n        /* \"#utility.yul\":14995:15060   */\n      tag_367\n        /* \"#utility.yul\":15053:15059   */\n      dup2\n        /* \"#utility.yul\":15045:15051   */\n      dup5\n        /* \"#utility.yul\":15039:15043   */\n      dup5\n        /* \"#utility.yul\":14995:15060   */\n      tag_192\n      jump\t// in\n    tag_367:\n        /* \"#utility.yul\":14930:15066   */\n      pop\n        /* \"#utility.yul\":14877:15066   */\n      pop\n      pop\n      jump\t// out\n        /* \"#utility.yul\":15072:15258   */\n    tag_195:\n        /* \"#utility.yul\":15132:15252   */\n    tag_369:\n        /* \"#utility.yul\":15149:15152   */\n      dup2\n        /* \"#utility.yul\":15142:15147   */\n      dup2\n        /* \"#utility.yul\":15139:15153   */\n      lt\n        /* \"#utility.yul\":15132:15252   */\n      iszero\n      tag_371\n      jumpi\n        /* \"#utility.yul\":15203:15242   */\n      tag_372\n        /* \"#utility.yul\":15240:15241   */\n      0x00\n        /* \"#utility.yul\":15233:15238   */\n      dup3\n        /* \"#utility.yul\":15203:15242   */\n      tag_194\n      jump\t// in\n    tag_372:\n        /* \"#utility.yul\":15176:15177   */\n      0x01\n        /* \"#utility.yul\":15169:15174   */\n      dup2\n        /* \"#utility.yul\":15165:15178   */\n      add\n        /* \"#utility.yul\":15156:15178   */\n      swap1\n      pop\n        /* \"#utility.yul\":15132:15252   */\n      jump(tag_369)\n    tag_371:\n        /* \"#utility.yul\":15072:15258   */\n      pop\n      pop\n      jump\t// out\n        /* \"#utility.yul\":15264:15807   */\n    tag_196:\n        /* \"#utility.yul\":15365:15367   */\n      0x1f\n        /* \"#utility.yul\":15360:15363   */\n      dup3\n        /* \"#utility.yul\":15357:15368   */\n      gt\n        /* \"#utility.yul\":15354:15800   */\n      iszero\n      tag_374\n      jumpi\n        /* \"#utility.yul\":15399:15437   */\n      tag_375\n        /* \"#utility.yul\":15431:15436   */\n      dup2\n        /* \"#utility.yul\":15399:15437   */\n      tag_185\n      jump\t// in\n    tag_375:\n        /* \"#utility.yul\":15483:15512   */\n      tag_376\n        /* \"#utility.yul\":15501:15511   */\n      dup5\n        /* \"#utility.yul\":15483:15512   */\n      tag_186\n      jump\t// in\n    tag_376:\n        /* \"#utility.yul\":15473:15481   */\n      dup2\n        /* \"#utility.yul\":15469:15513   */\n      add\n        /* \"#utility.yul\":15666:15668   */\n      0x20\n        /* \"#utility.yul\":15654:15664   */\n      dup6\n        /* \"#utility.yul\":15651:15669   */\n      lt\n        /* \"#utility.yul\":15648:15697   */\n      iszero\n      tag_377\n      jumpi\n        /* \"#utility.yul\":15687:15695   */\n      dup2\n        /* \"#utility.yul\":15672:15695   */\n      swap1\n      pop\n        /* \"#utility.yul\":15648:15697   */\n    tag_377:\n        /* \"#utility.yul\":15710:15790   */\n      tag_378\n        /* \"#utility.yul\":15766:15788   */\n      tag_379\n        /* \"#utility.yul\":15784:15787   */\n      dup6\n        /* \"#utility.yul\":15766:15788   */\n      tag_186\n      jump\t// in\n    tag_379:\n        /* \"#utility.yul\":15756:15764   */\n      dup4\n        /* \"#utility.yul\":15752:15789   */\n      add\n        /* \"#utility.yul\":15739:15750   */\n      dup3\n        /* \"#utility.yul\":15710:15790   */\n      tag_195\n      jump\t// in\n    tag_378:\n        /* \"#utility.yul\":15369:15800   */\n      pop\n      pop\n        /* \"#utility.yul\":15354:15800   */\n    tag_374:\n        /* \"#utility.yul\":15264:15807   */\n      pop\n      pop\n      pop\n      jump\t// out\n        /* \"#utility.yul\":15813:15930   */\n    tag_197:\n        /* \"#utility.yul\":15867:15875   */\n      0x00\n        /* \"#utility.yul\":15917:15922   */\n      dup3\n        /* \"#utility.yul\":15911:15915   */\n      dup3\n        /* \"#utility.yul\":15907:15923   */\n      shr\n        /* \"#utility.yul\":15886:15923   */\n      swap1\n      pop\n        /* \"#utility.yul\":15813:15930   */\n      swap3\n      swap2\n      pop\n      pop\n      jump\t// out\n        /* \"#utility.yul\":15936:16105   */\n    tag_198:\n        /* \"#utility.yul\":15980:15986   */\n      0x00\n        /* \"#utility.yul\":16013:16064   */\n      tag_382\n        /* \"#utility.yul\":16061:16062   */\n      0x00\n        /* \"#utility.yul\":16057:16063   */\n      not\n        /* \"#utility.yul\":16049:16054   */\n      dup5\n        /* \"#utility.yul\":16046:16047   */\n      0x08\n        /* \"#utility.yul\":16042:16055   */\n      mul\n        /* \"#utility.yul\":16013:16064   */\n      tag_197\n      jump\t// in\n    tag_382:\n        /* \"#utility.yul\":16009:16065   */\n      not\n        /* \"#utility.yul\":16094:16098   */\n      dup1\n        /* \"#utility.yul\":16088:16092   */\n      dup4\n        /* \"#utility.yul\":16084:16099   */\n      and\n        /* \"#utility.yul\":16074:16099   */\n      swap2\n      pop\n        /* \"#utility.yul\":15987:16105   */\n      pop\n        /* \"#utility.yul\":15936:16105   */\n      swap3\n      swap2\n      pop\n      pop\n      jump\t// out\n        /* \"#utility.yul\":16110:16405   */\n    tag_199:\n        /* \"#utility.yul\":16186:16190   */\n      0x00\n        /* \"#utility.yul\":16332:16361   */\n      tag_384\n        /* \"#utility.yul\":16357:16360   */\n      dup4\n        /* \"#utility.yul\":16351:16355   */\n      dup4\n        /* \"#utility.yul\":16332:16361   */\n      tag_198\n      jump\t// in\n    tag_384:\n        /* \"#utility.yul\":16324:16361   */\n      swap2\n      pop\n        /* \"#utility.yul\":16394:16397   */\n      dup3\n        /* \"#utility.yul\":16391:16392   */\n      0x02\n        /* \"#utility.yul\":16387:16398   */\n      mul\n        /* \"#utility.yul\":16381:16385   */\n      dup3\n        /* \"#utility.yul\":16378:16399   */\n      or\n        /* \"#utility.yul\":16370:16399   */\n      swap1\n      pop\n        /* \"#utility.yul\":16110:16405   */\n      swap3\n      swap2\n      pop\n      pop\n      jump\t// out\n        /* \"#utility.yul\":16410:17805   */\n    tag_103:\n        /* \"#utility.yul\":16527:16564   */\n      tag_386\n        /* \"#utility.yul\":16560:16563   */\n      dup3\n        /* \"#utility.yul\":16527:16564   */\n      tag_150\n      jump\t// in\n    tag_386:\n        /* \"#utility.yul\":16629:16647   */\n      0xffffffffffffffff\n        /* \"#utility.yul\":16621:16627   */\n      dup2\n        /* \"#utility.yul\":16618:16648   */\n      gt\n        /* \"#utility.yul\":16615:16671   */\n      iszero\n      tag_387\n      jumpi\n        /* \"#utility.yul\":16651:16669   */\n      tag_388\n      tag_166\n      jump\t// in\n    tag_388:\n        /* \"#utility.yul\":16615:16671   */\n    tag_387:\n        /* \"#utility.yul\":16695:16733   */\n      tag_389\n        /* \"#utility.yul\":16727:16731   */\n      dup3\n        /* \"#utility.yul\":16721:16732   */\n      sload\n        /* \"#utility.yul\":16695:16733   */\n      tag_67\n      jump\t// in\n    tag_389:\n        /* \"#utility.yul\":16780:16847   */\n      tag_390\n        /* \"#utility.yul\":16840:16846   */\n      dup3\n        /* \"#utility.yul\":16832:16838   */\n      dup3\n        /* \"#utility.yul\":16826:16830   */\n      dup6\n        /* \"#utility.yul\":16780:16847   */\n      tag_196\n      jump\t// in\n    tag_390:\n        /* \"#utility.yul\":16874:16875   */\n      0x00\n        /* \"#utility.yul\":16898:16902   */\n      0x20\n        /* \"#utility.yul\":16885:16902   */\n      swap1\n      pop\n        /* \"#utility.yul\":16930:16932   */\n      0x1f\n        /* \"#utility.yul\":16922:16928   */\n      dup4\n        /* \"#utility.yul\":16919:16933   */\n      gt\n        /* \"#utility.yul\":16947:16948   */\n      0x01\n        /* \"#utility.yul\":16942:17560   */\n      dup2\n      eq\n      tag_392\n      jumpi\n        /* \"#utility.yul\":17604:17605   */\n      0x00\n        /* \"#utility.yul\":17621:17627   */\n      dup5\n        /* \"#utility.yul\":17618:17695   */\n      iszero\n      tag_393\n      jumpi\n        /* \"#utility.yul\":17670:17679   */\n      dup3\n        /* \"#utility.yul\":17665:17668   */\n      dup8\n        /* \"#utility.yul\":17661:17680   */\n      add\n        /* \"#utility.yul\":17655:17681   */\n      mload\n        /* \"#utility.yul\":17646:17681   */\n      swap1\n      pop\n        /* \"#utility.yul\":17618:17695   */\n    tag_393:\n        /* \"#utility.yul\":17721:17788   */\n      tag_394\n        /* \"#utility.yul\":17781:17787   */\n      dup6\n        /* \"#utility.yul\":17774:17779   */\n      dup3\n        /* \"#utility.yul\":17721:17788   */\n      tag_199\n      jump\t// in\n    tag_394:\n        /* \"#utility.yul\":17715:17719   */\n      dup7\n        /* \"#utility.yul\":17708:17789   */\n      sstore\n        /* \"#utility.yul\":17577:17799   */\n      pop\n        /* \"#utility.yul\":16912:17799   */\n      jump(tag_391)\n        /* \"#utility.yul\":16942:17560   */\n    tag_392:\n        /* \"#utility.yul\":16994:16998   */\n      0x1f\n        /* \"#utility.yul\":16990:16999   */\n      not\n        /* \"#utility.yul\":16982:16988   */\n      dup5\n        /* \"#utility.yul\":16978:17000   */\n      and\n        /* \"#utility.yul\":17028:17065   */\n      tag_395\n        /* \"#utility.yul\":17060:17064   */\n      dup7\n        /* \"#utility.yul\":17028:17065   */\n      tag_185\n      jump\t// in\n    tag_395:\n        /* \"#utility.yul\":17087:17088   */\n      0x00\n        /* \"#utility.yul\":17101:17309   */\n    tag_396:\n        /* \"#utility.yul\":17115:17122   */\n      dup3\n        /* \"#utility.yul\":17112:17113   */\n      dup2\n        /* \"#utility.yul\":17109:17123   */\n      lt\n        /* \"#utility.yul\":17101:17309   */\n      iszero\n      tag_398\n      jumpi\n        /* \"#utility.yul\":17194:17203   */\n      dup5\n        /* \"#utility.yul\":17189:17192   */\n      dup10\n        /* \"#utility.yul\":17185:17204   */\n      add\n        /* \"#utility.yul\":17179:17205   */\n      mload\n        /* \"#utility.yul\":17171:17177   */\n      dup3\n        /* \"#utility.yul\":17164:17206   */\n      sstore\n        /* \"#utility.yul\":17245:17246   */\n      0x01\n        /* \"#utility.yul\":17237:17243   */\n      dup3\n        /* \"#utility.yul\":17233:17247   */\n      add\n        /* \"#utility.yul\":17223:17247   */\n      swap2\n      pop\n        /* \"#utility.yul\":17292:17294   */\n      0x20\n        /* \"#utility.yul\":17281:17290   */\n      dup6\n        /* \"#utility.yul\":17277:17295   */\n      add\n        /* \"#utility.yul\":17264:17295   */\n      swap5\n      pop\n        /* \"#utility.yul\":17138:17142   */\n      0x20\n        /* \"#utility.yul\":17135:17136   */\n      dup2\n        /* \"#utility.yul\":17131:17143   */\n      add\n        /* \"#utility.yul\":17126:17143   */\n      swap1\n      pop\n        /* \"#utility.yul\":17101:17309   */\n      jump(tag_396)\n    tag_398:\n        /* \"#utility.yul\":17337:17343   */\n      dup7\n        /* \"#utility.yul\":17328:17335   */\n      dup4\n        /* \"#utility.yul\":17325:17344   */\n      lt\n        /* \"#utility.yul\":17322:17501   */\n      iszero\n      tag_399\n      jumpi\n        /* \"#utility.yul\":17395:17404   */\n      dup5\n        /* \"#utility.yul\":17390:17393   */\n      dup10\n        /* \"#utility.yul\":17386:17405   */\n      add\n        /* \"#utility.yul\":17380:17406   */\n      mload\n        /* \"#utility.yul\":17438:17486   */\n      tag_400\n        /* \"#utility.yul\":17480:17484   */\n      0x1f\n        /* \"#utility.yul\":17472:17478   */\n      dup10\n        /* \"#utility.yul\":17468:17485   */\n      and\n        /* \"#utility.yul\":17457:17466   */\n      dup3\n        /* \"#utility.yul\":17438:17486   */\n      tag_198\n      jump\t// in\n    tag_400:\n        /* \"#utility.yul\":17430:17436   */\n      dup4\n        /* \"#utility.yul\":17423:17487   */\n      sstore\n        /* \"#utility.yul\":17345:17501   */\n      pop\n        /* \"#utility.yul\":17322:17501   */\n    tag_399:\n        /* \"#utility.yul\":17547:17548   */\n      0x01\n        /* \"#utility.yul\":17543:17544   */\n      0x02\n        /* \"#utility.yul\":17535:17541   */\n      dup9\n        /* \"#utility.yul\":17531:17545   */\n      mul\n        /* \"#utility.yul\":17527:17549   */\n      add\n        /* \"#utility.yul\":17521:17525   */\n      dup9\n        /* \"#utility.yul\":17514:17550   */\n      sstore\n        /* \"#utility.yul\":16949:17560   */\n      pop\n      pop\n      pop\n        /* \"#utility.yul\":16912:17799   */\n    tag_391:\n      pop\n        /* \"#utility.yul\":16502:17805   */\n      pop\n      pop\n      pop\n        /* \"#utility.yul\":16410:17805   */\n      pop\n      pop\n      jump\t// out\n        /* \"#utility.yul\":17811:18234   */\n    tag_108:\n        /* \"#utility.yul\":17952:17956   */\n      0x00\n        /* \"#utility.yul\":17990:17992   */\n      0x40\n        /* \"#utility.yul\":17979:17988   */\n      dup3\n        /* \"#utility.yul\":17975:17993   */\n      add\n        /* \"#utility.yul\":17967:17993   */\n      swap1\n      pop\n        /* \"#utility.yul\":18039:18048   */\n      dup2\n        /* \"#utility.yul\":18033:18037   */\n      dup2\n        /* \"#utility.yul\":18029:18049   */\n      sub\n        /* \"#utility.yul\":18025:18026   */\n      0x00\n        /* \"#utility.yul\":18014:18023   */\n      dup4\n        /* \"#utility.yul\":18010:18027   */\n      add\n        /* \"#utility.yul\":18003:18050   */\n      mstore\n        /* \"#utility.yul\":18067:18145   */\n      tag_402\n        /* \"#utility.yul\":18140:18144   */\n      dup2\n        /* \"#utility.yul\":18131:18137   */\n      dup6\n        /* \"#utility.yul\":18067:18145   */\n      tag_154\n      jump\t// in\n    tag_402:\n        /* \"#utility.yul\":18059:18145   */\n      swap1\n      pop\n        /* \"#utility.yul\":18155:18227   */\n      tag_403\n        /* \"#utility.yul\":18223:18225   */\n      0x20\n        /* \"#utility.yul\":18212:18221   */\n      dup4\n        /* \"#utility.yul\":18208:18226   */\n      add\n        /* \"#utility.yul\":18199:18205   */\n      dup5\n        /* \"#utility.yul\":18155:18227   */\n      tag_156\n      jump\t// in\n    tag_403:\n        /* \"#utility.yul\":17811:18234   */\n      swap4\n      swap3\n      pop\n      pop\n      pop\n      jump\t// out\n        /* \"#utility.yul\":18240:18481   */\n    tag_200:\n        /* \"#utility.yul\":18380:18414   */\n      0x436f6d706c657465204964656e7469747920566572696669636174696f6e2066\n        /* \"#utility.yul\":18376:18377   */\n      0x00\n        /* \"#utility.yul\":18368:18374   */\n      dup3\n        /* \"#utility.yul\":18364:18378   */\n      add\n        /* \"#utility.yul\":18357:18415   */\n      mstore\n        /* \"#utility.yul\":18449:18473   */\n      0x69727374206265666f72652070726f63656564696e6700000000000000000000\n        /* \"#utility.yul\":18444:18446   */\n      0x20\n        /* \"#utility.yul\":18436:18442   */\n      dup3\n        /* \"#utility.yul\":18432:18447   */\n      add\n        /* \"#utility.yul\":18425:18474   */\n      mstore\n        /* \"#utility.yul\":18240:18481   */\n      pop\n      jump\t// out\n        /* \"#utility.yul\":18487:18853   */\n    tag_201:\n        /* \"#utility.yul\":18629:18632   */\n      0x00\n        /* \"#utility.yul\":18650:18717   */\n      tag_406\n        /* \"#utility.yul\":18714:18716   */\n      0x36\n        /* \"#utility.yul\":18709:18712   */\n      dup4\n        /* \"#utility.yul\":18650:18717   */\n      tag_151\n      jump\t// in\n    tag_406:\n        /* \"#utility.yul\":18643:18717   */\n      swap2\n      pop\n        /* \"#utility.yul\":18726:18819   */\n      tag_407\n        /* \"#utility.yul\":18815:18818   */\n      dup3\n        /* \"#utility.yul\":18726:18819   */\n      tag_200\n      jump\t// in\n    tag_407:\n        /* \"#utility.yul\":18844:18846   */\n      0x40\n        /* \"#utility.yul\":18839:18842   */\n      dup3\n        /* \"#utility.yul\":18835:18847   */\n      add\n        /* \"#utility.yul\":18828:18847   */\n      swap1\n      pop\n        /* \"#utility.yul\":18487:18853   */\n      swap2\n      swap1\n      pop\n      jump\t// out\n        /* \"#utility.yul\":18859:19278   */\n    tag_123:\n        /* \"#utility.yul\":19025:19029   */\n      0x00\n        /* \"#utility.yul\":19063:19065   */\n      0x20\n        /* \"#utility.yul\":19052:19061   */\n      dup3\n        /* \"#utility.yul\":19048:19066   */\n      add\n        /* \"#utility.yul\":19040:19066   */\n      swap1\n      pop\n        /* \"#utility.yul\":19112:19121   */\n      dup2\n        /* \"#utility.yul\":19106:19110   */\n      dup2\n        /* \"#utility.yul\":19102:19122   */\n      sub\n        /* \"#utility.yul\":19098:19099   */\n      0x00\n        /* \"#utility.yul\":19087:19096   */\n      dup4\n        /* \"#utility.yul\":19083:19100   */\n      add\n        /* \"#utility.yul\":19076:19123   */\n      mstore\n        /* \"#utility.yul\":19140:19271   */\n      tag_409\n        /* \"#utility.yul\":19266:19270   */\n      dup2\n        /* \"#utility.yul\":19140:19271   */\n      tag_201\n      jump\t// in\n    tag_409:\n        /* \"#utility.yul\":19132:19271   */\n      swap1\n      pop\n        /* \"#utility.yul\":18859:19278   */\n      swap2\n      swap1\n      pop\n      jump\t// out\n        /* \"#utility.yul\":19284:19509   */\n    tag_202:\n        /* \"#utility.yul\":19424:19458   */\n      0x50726f7065727479206973206e6f7420617661696c61626c6520666f72207075\n        /* \"#utility.yul\":19420:19421   */\n      0x00\n        /* \"#utility.yul\":19412:19418   */\n      dup3\n        /* \"#utility.yul\":19408:19422   */\n      add\n        /* \"#utility.yul\":19401:19459   */\n      mstore\n        /* \"#utility.yul\":19493:19501   */\n      0x7263686173650000000000000000000000000000000000000000000000000000\n        /* \"#utility.yul\":19488:19490   */\n      0x20\n        /* \"#utility.yul\":19480:19486   */\n      dup3\n        /* \"#utility.yul\":19476:19491   */\n      add\n        /* \"#utility.yul\":19469:19502   */\n      mstore\n        /* \"#utility.yul\":19284:19509   */\n      pop\n      jump\t// out\n        /* \"#utility.yul\":19515:19881   */\n    tag_203:\n        /* \"#utility.yul\":19657:19660   */\n      0x00\n        /* \"#utility.yul\":19678:19745   */\n      tag_412\n        /* \"#utility.yul\":19742:19744   */\n      0x26\n        /* \"#utility.yul\":19737:19740   */\n      dup4\n        /* \"#utility.yul\":19678:19745   */\n      tag_151\n      jump\t// in\n    tag_412:\n        /* \"#utility.yul\":19671:19745   */\n      swap2\n      pop\n        /* \"#utility.yul\":19754:19847   */\n      tag_413\n        /* \"#utility.yul\":19843:19846   */\n      dup3\n        /* \"#utility.yul\":19754:19847   */\n      tag_202\n      jump\t// in\n    tag_413:\n        /* \"#utility.yul\":19872:19874   */\n      0x40\n        /* \"#utility.yul\":19867:19870   */\n      dup3\n        /* \"#utility.yul\":19863:19875   */\n      add\n        /* \"#utility.yul\":19856:19875   */\n      swap1\n      pop\n        /* \"#utility.yul\":19515:19881   */\n      swap2\n      swap1\n      pop\n      jump\t// out\n        /* \"#utility.yul\":19887:20306   */\n    tag_130:\n        /* \"#utility.yul\":20053:20057   */\n      0x00\n        /* \"#utility.yul\":20091:20093   */\n      0x20\n        /* \"#utility.yul\":20080:20089   */\n      dup3\n        /* \"#utility.yul\":20076:20094   */\n      add\n        /* \"#utility.yul\":20068:20094   */\n      swap1\n      pop\n        /* \"#utility.yul\":20140:20149   */\n      dup2\n        /* \"#utility.yul\":20134:20138   */\n      dup2\n        /* \"#utility.yul\":20130:20150   */\n      sub\n        /* \"#utility.yul\":20126:20127   */\n      0x00\n        /* \"#utility.yul\":20115:20124   */\n      dup4\n        /* \"#utility.yul\":20111:20128   */\n      add\n        /* \"#utility.yul\":20104:20151   */\n      mstore\n        /* \"#utility.yul\":20168:20299   */\n      tag_415\n        /* \"#utility.yul\":20294:20298   */\n      dup2\n        /* \"#utility.yul\":20168:20299   */\n      tag_203\n      jump\t// in\n    tag_415:\n        /* \"#utility.yul\":20160:20299   */\n      swap1\n      pop\n        /* \"#utility.yul\":19887:20306   */\n      swap2\n      swap1\n      pop\n      jump\t// out\n        /* \"#utility.yul\":20312:20486   */\n    tag_204:\n        /* \"#utility.yul\":20452:20478   */\n      0x596f752061726520616c72656164792076657269666965640000000000000000\n        /* \"#utility.yul\":20448:20449   */\n      0x00\n        /* \"#utility.yul\":20440:20446   */\n      dup3\n        /* \"#utility.yul\":20436:20450   */\n      add\n        /* \"#utility.yul\":20429:20479   */\n      mstore\n        /* \"#utility.yul\":20312:20486   */\n      pop\n      jump\t// out\n        /* \"#utility.yul\":20492:20858   */\n    tag_205:\n        /* \"#utility.yul\":20634:20637   */\n      0x00\n        /* \"#utility.yul\":20655:20722   */\n      tag_418\n        /* \"#utility.yul\":20719:20721   */\n      0x18\n        /* \"#utility.yul\":20714:20717   */\n      dup4\n        /* \"#utility.yul\":20655:20722   */\n      tag_151\n      jump\t// in\n    tag_418:\n        /* \"#utility.yul\":20648:20722   */\n      swap2\n      pop\n        /* \"#utility.yul\":20731:20824   */\n      tag_419\n        /* \"#utility.yul\":20820:20823   */\n      dup3\n        /* \"#utility.yul\":20731:20824   */\n      tag_204\n      jump\t// in\n    tag_419:\n        /* \"#utility.yul\":20849:20851   */\n      0x20\n        /* \"#utility.yul\":20844:20847   */\n      dup3\n        /* \"#utility.yul\":20840:20852   */\n      add\n        /* \"#utility.yul\":20833:20852   */\n      swap1\n      pop\n        /* \"#utility.yul\":20492:20858   */\n      swap2\n      swap1\n      pop\n      jump\t// out\n        /* \"#utility.yul\":20864:21283   */\n    tag_136:\n        /* \"#utility.yul\":21030:21034   */\n      0x00\n        /* \"#utility.yul\":21068:21070   */\n      0x20\n        /* \"#utility.yul\":21057:21066   */\n      dup3\n        /* \"#utility.yul\":21053:21071   */\n      add\n        /* \"#utility.yul\":21045:21071   */\n      swap1\n      pop\n        /* \"#utility.yul\":21117:21126   */\n      dup2\n        /* \"#utility.yul\":21111:21115   */\n      dup2\n        /* \"#utility.yul\":21107:21127   */\n      sub\n        /* \"#utility.yul\":21103:21104   */\n      0x00\n        /* \"#utility.yul\":21092:21101   */\n      dup4\n        /* \"#utility.yul\":21088:21105   */\n      add\n        /* \"#utility.yul\":21081:21128   */\n      mstore\n        /* \"#utility.yul\":21145:21276   */\n      tag_421\n        /* \"#utility.yul\":21271:21275   */\n      dup2\n        /* \"#utility.yul\":21145:21276   */\n      tag_205\n      jump\t// in\n    tag_421:\n        /* \"#utility.yul\":21137:21276   */\n      swap1\n      pop\n        /* \"#utility.yul\":20864:21283   */\n      swap2\n      swap1\n      pop\n      jump\t// out\n        /* \"#utility.yul\":21289:21513   */\n    tag_206:\n        /* \"#utility.yul\":21429:21463   */\n      0x496e73756666696369656e742066756e647320746f2076657269667920696465\n        /* \"#utility.yul\":21425:21426   */\n      0x00\n        /* \"#utility.yul\":21417:21423   */\n      dup3\n        /* \"#utility.yul\":21413:21427   */\n      add\n        /* \"#utility.yul\":21406:21464   */\n      mstore\n        /* \"#utility.yul\":21498:21505   */\n      0x6e74697479000000000000000000000000000000000000000000000000000000\n        /* \"#utility.yul\":21493:21495   */\n      0x20\n        /* \"#utility.yul\":21485:21491   */\n      dup3\n        /* \"#utility.yul\":21481:21496   */\n      add\n        /* \"#utility.yul\":21474:21506   */\n      mstore\n        /* \"#utility.yul\":21289:21513   */\n      pop\n      jump\t// out\n        /* \"#utility.yul\":21519:21885   */\n    tag_207:\n        /* \"#utility.yul\":21661:21664   */\n      0x00\n        /* \"#utility.yul\":21682:21749   */\n      tag_424\n        /* \"#utility.yul\":21746:21748   */\n      0x25\n        /* \"#utility.yul\":21741:21744   */\n      dup4\n        /* \"#utility.yul\":21682:21749   */\n      tag_151\n      jump\t// in\n    tag_424:\n        /* \"#utility.yul\":21675:21749   */\n      swap2\n      pop\n        /* \"#utility.yul\":21758:21851   */\n      tag_425\n        /* \"#utility.yul\":21847:21850   */\n      dup3\n        /* \"#utility.yul\":21758:21851   */\n      tag_206\n      jump\t// in\n    tag_425:\n        /* \"#utility.yul\":21876:21878   */\n      0x40\n        /* \"#utility.yul\":21871:21874   */\n      dup3\n        /* \"#utility.yul\":21867:21879   */\n      add\n        /* \"#utility.yul\":21860:21879   */\n      swap1\n      pop\n        /* \"#utility.yul\":21519:21885   */\n      swap2\n      swap1\n      pop\n      jump\t// out\n        /* \"#utility.yul\":21891:22310   */\n    tag_139:\n        /* \"#utility.yul\":22057:22061   */\n      0x00\n        /* \"#utility.yul\":22095:22097   */\n      0x20\n        /* \"#utility.yul\":22084:22093   */\n      dup3\n        /* \"#utility.yul\":22080:22098   */\n      add\n        /* \"#utility.yul\":22072:22098   */\n      swap1\n      pop\n        /* \"#utility.yul\":22144:22153   */\n      dup2\n        /* \"#utility.yul\":22138:22142   */\n      dup2\n        /* \"#utility.yul\":22134:22154   */\n      sub\n        /* \"#utility.yul\":22130:22131   */\n      0x00\n        /* \"#utility.yul\":22119:22128   */\n      dup4\n        /* \"#utility.yul\":22115:22132   */\n      add\n        /* \"#utility.yul\":22108:22155   */\n      mstore\n        /* \"#utility.yul\":22172:22303   */\n      tag_427\n        /* \"#utility.yul\":22298:22302   */\n      dup2\n        /* \"#utility.yul\":22172:22303   */\n      tag_207\n      jump\t// in\n    tag_427:\n        /* \"#utility.yul\":22164:22303   */\n      swap1\n      pop\n        /* \"#utility.yul\":21891:22310   */\n      swap2\n      swap1\n      pop\n      jump\t// out\n\n    auxdata: 0xa26469706673582212207ce0313058843b54caae34dd55e0178db11264d6dc29f90cd45f8497872c89f264736f6c63430008170033\n}\n",
				"bytecode": {
					"linkReferences": {},
					"object": "60806040523373ffffffffffffffffffffffffffffffffffffffff163160045534801561002a575f80fd5b50335f806101000a81548173ffffffffffffffffffffffffffffffffffffffff021916908373ffffffffffffffffffffffffffffffffffffffff160217905550611baa806100775f395ff3fe60806040526004361061009b575f3560e01c80639ca4d7e7116100635780639ca4d7e714610175578063acd7e4ac146101b1578063c5cabf9a146101d9578063ce606ee014610201578063e35fe3661461022b578063e8731c32146102675761009b565b806325ec77d71461009f57806346d3d672146100df578063590791f2146101075780638a0684a314610131578063913a8e801461014d575b5f80fd5b3480156100aa575f80fd5b506100c560048036038101906100c0919061107c565b610271565b6040516100d69594939291906111cb565b60405180910390f35b3480156100ea575f80fd5b506101056004803603810190610100919061122a565b6103da565b005b348015610112575f80fd5b5061011b61058f565b6040516101289190611268565b60405180910390f35b61014b600480360381019061014691906112bc565b6105ad565b005b348015610158575f80fd5b50610173600480360381019061016e9190611450565b61082d565b005b348015610180575f80fd5b5061019b6004803603810190610196919061122a565b6109ba565b6040516101a891906114f2565b60405180910390f35b3480156101bc575f80fd5b506101d760048036038101906101d2919061122a565b6109e4565b005b3480156101e4575f80fd5b506101ff60048036038101906101fa919061107c565b610bff565b005b34801561020c575f80fd5b50610215610e05565b604051610222919061151a565b60405180910390f35b348015610236575f80fd5b50610251600480360381019061024c919061107c565b610e28565b60405161025e91906114f2565b60405180910390f35b61026f610e45565b005b6001602052805f5260405f205f91509050805f015f9054906101000a900473ffffffffffffffffffffffffffffffffffffffff16908060010180546102b590611560565b80601f01602080910402602001604051908101604052809291908181526020018280546102e190611560565b801561032c5780601f106103035761010080835404028352916020019161032c565b820191905f5260205f20905b81548152906001019060200180831161030f57829003601f168201915b50505050509080600201805461034190611560565b80601f016020809104026020016040519081016040528092919081815260200182805461036d90611560565b80156103b85780601f1061038f576101008083540402835291602001916103b8565b820191905f5260205f20905b81548152906001019060200180831161039b57829003601f168201915b505050505090806003015490806004015f9054906101000a900460ff16905085565b8073ffffffffffffffffffffffffffffffffffffffff163373ffffffffffffffffffffffffffffffffffffffff1614610448576040517f08c379a000000000000000000000000000000000000000000000000000000000815260040161043f906115da565b60405180910390fd5b6001600281111561045c5761045b611158565b5b60015f8373ffffffffffffffffffffffffffffffffffffffff1673ffffffffffffffffffffffffffffffffffffffff1681526020019081526020015f206004015f9054906101000a900460ff1660028111156104bb576104ba611158565b5b146104fb576040517f08c379a00000000000000000000000000000000000000000000000000000000081526004016104f290611642565b60405180910390fd5b600160025f8373ffffffffffffffffffffffffffffffffffffffff1673ffffffffffffffffffffffffffffffffffffffff1681526020019081526020015f205f8473ffffffffffffffffffffffffffffffffffffffff1673ffffffffffffffffffffffffffffffffffffffff1681526020019081526020015f205f6101000a81548160ff0219169083151502179055505050565b5f3373ffffffffffffffffffffffffffffffffffffffff1631905090565b8173ffffffffffffffffffffffffffffffffffffffff163373ffffffffffffffffffffffffffffffffffffffff161461061b576040517f08c379a0000000000000000000000000000000000000000000000000000000008152600401610612906116aa565b60405180910390fd5b8073ffffffffffffffffffffffffffffffffffffffff166108fc60015f8473ffffffffffffffffffffffffffffffffffffffff1673ffffffffffffffffffffffffffffffffffffffff1681526020019081526020015f206003015490811502906040515f60405180830381858888f1935050505015801561069e573d5f803e3d5ffd5b508160015f8373ffffffffffffffffffffffffffffffffffffffff1673ffffffffffffffffffffffffffffffffffffffff1681526020019081526020015f205f015f6101000a81548173ffffffffffffffffffffffffffffffffffffffff021916908373ffffffffffffffffffffffffffffffffffffffff160217905550600260015f8373ffffffffffffffffffffffffffffffffffffffff1673ffffffffffffffffffffffffffffffffffffffff1681526020019081526020015f206004015f6101000a81548160ff0219169083600281111561077f5761077e611158565b5b02179055508073ffffffffffffffffffffffffffffffffffffffff168273ffffffffffffffffffffffffffffffffffffffff167f7898e8111af6ef8aad566e3f0544a32dc3476bbcf760201950acfec431f668d760015f8573ffffffffffffffffffffffffffffffffffffffff1673ffffffffffffffffffffffffffffffffffffffff1681526020019081526020015f20600301546040516108219190611268565b60405180910390a35050565b6040518060a001604052803373ffffffffffffffffffffffffffffffffffffffff1681526020018481526020018381526020018281526020015f600281111561087957610878611158565b5b81525060015f3373ffffffffffffffffffffffffffffffffffffffff1673ffffffffffffffffffffffffffffffffffffffff1681526020019081526020015f205f820151815f015f6101000a81548173ffffffffffffffffffffffffffffffffffffffff021916908373ffffffffffffffffffffffffffffffffffffffff16021790555060208201518160010190816109129190611865565b5060408201518160020190816109289190611865565b50606082015181600301556080820151816004015f6101000a81548160ff0219169083600281111561095d5761095c611158565b5b02179055509050503373ffffffffffffffffffffffffffffffffffffffff167f37f157f65566913ce8aee56689d22ac304a94986d9a4045392e2ce1a23497b3d84836040516109ad929190611934565b60405180910390a2505050565b6002602052815f5260405f20602052805f5260405f205f915091509054906101000a900460ff1681565b8073ffffffffffffffffffffffffffffffffffffffff163373ffffffffffffffffffffffffffffffffffffffff1614610a52576040517f08c379a0000000000000000000000000000000000000000000000000000000008152600401610a49906115da565b60405180910390fd5b60016002811115610a6657610a65611158565b5b60015f8373ffffffffffffffffffffffffffffffffffffffff1673ffffffffffffffffffffffffffffffffffffffff1681526020019081526020015f206004015f9054906101000a900460ff166002811115610ac557610ac4611158565b5b14610b05576040517f08c379a0000000000000000000000000000000000000000000000000000000008152600401610afc90611642565b60405180910390fd5b5f60025f8373ffffffffffffffffffffffffffffffffffffffff1673ffffffffffffffffffffffffffffffffffffffff1681526020019081526020015f205f8473ffffffffffffffffffffffffffffffffffffffff1673ffffffffffffffffffffffffffffffffffffffff1681526020019081526020015f205f6101000a81548160ff0219169083151502179055505f60015f8373ffffffffffffffffffffffffffffffffffffffff1673ffffffffffffffffffffffffffffffffffffffff1681526020019081526020015f206004015f6101000a81548160ff02191690836002811115610bf657610bf5611158565b5b02179055505050565b6001151560035f3373ffffffffffffffffffffffffffffffffffffffff1673ffffffffffffffffffffffffffffffffffffffff1681526020019081526020015f205f9054906101000a900460ff16151514610c8f576040517f08c379a0000000000000000000000000000000000000000000000000000000008152600401610c86906119d2565b60405180910390fd5b5f6002811115610ca257610ca1611158565b5b60015f8373ffffffffffffffffffffffffffffffffffffffff1673ffffffffffffffffffffffffffffffffffffffff1681526020019081526020015f206004015f9054906101000a900460ff166002811115610d0157610d00611158565b5b14610d41576040517f08c379a0000000000000000000000000000000000000000000000000000000008152600401610d3890611a60565b60405180910390fd5b6001805f8373ffffffffffffffffffffffffffffffffffffffff1673ffffffffffffffffffffffffffffffffffffffff1681526020019081526020015f206004015f6101000a81548160ff02191690836002811115610da357610da2611158565b5b02179055508073ffffffffffffffffffffffffffffffffffffffff163373ffffffffffffffffffffffffffffffffffffffff167fde059efce4306d4728a082d601ab2bb6766b1f58f205cbbd96da740e0ad20ce060405160405180910390a350565b5f8054906101000a900473ffffffffffffffffffffffffffffffffffffffff1681565b6003602052805f5260405f205f915054906101000a900460ff1681565b60035f3373ffffffffffffffffffffffffffffffffffffffff1673ffffffffffffffffffffffffffffffffffffffff1681526020019081526020015f205f9054906101000a900460ff1615610ecf576040517f08c379a0000000000000000000000000000000000000000000000000000000008152600401610ec690611ac8565b60405180910390fd5b6101f4341015610f14576040517f08c379a0000000000000000000000000000000000000000000000000000000008152600401610f0b90611b56565b60405180910390fd5b5f8054906101000a900473ffffffffffffffffffffffffffffffffffffffff1673ffffffffffffffffffffffffffffffffffffffff166108fc3490811502906040515f60405180830381858888f19350505050158015610f76573d5f803e3d5ffd5b50600160035f3373ffffffffffffffffffffffffffffffffffffffff1673ffffffffffffffffffffffffffffffffffffffff1681526020019081526020015f205f6101000a81548160ff0219169083151502179055503373ffffffffffffffffffffffffffffffffffffffff167f02f93fdaafad8edad1ca75101b1fbda62e64ab9afc26d0ea801ccf6ef02c09ab60405160405180910390a2565b5f604051905090565b5f80fd5b5f80fd5b5f73ffffffffffffffffffffffffffffffffffffffff82169050919050565b5f61104b82611022565b9050919050565b61105b81611041565b8114611065575f80fd5b50565b5f8135905061107681611052565b92915050565b5f602082840312156110915761109061101a565b5b5f61109e84828501611068565b91505092915050565b6110b081611041565b82525050565b5f81519050919050565b5f82825260208201905092915050565b5f5b838110156110ed5780820151818401526020810190506110d2565b5f8484015250505050565b5f601f19601f8301169050919050565b5f611112826110b6565b61111c81856110c0565b935061112c8185602086016110d0565b611135816110f8565b840191505092915050565b5f819050919050565b61115281611140565b82525050565b7f4e487b71000000000000000000000000000000000000000000000000000000005f52602160045260245ffd5b6003811061119657611195611158565b5b50565b5f8190506111a682611185565b919050565b5f6111b582611199565b9050919050565b6111c5816111ab565b82525050565b5f60a0820190506111de5f8301886110a7565b81810360208301526111f08187611108565b905081810360408301526112048186611108565b90506112136060830185611149565b61122060808301846111bc565b9695505050505050565b5f80604083850312156112405761123f61101a565b5b5f61124d85828601611068565b925050602061125e85828601611068565b9150509250929050565b5f60208201905061127b5f830184611149565b92915050565b5f61128b82611022565b9050919050565b61129b81611281565b81146112a5575f80fd5b50565b5f813590506112b681611292565b92915050565b5f80604083850312156112d2576112d161101a565b5b5f6112df858286016112a8565b92505060206112f0858286016112a8565b9150509250929050565b5f80fd5b5f80fd5b7f4e487b71000000000000000000000000000000000000000000000000000000005f52604160045260245ffd5b611338826110f8565b810181811067ffffffffffffffff8211171561135757611356611302565b5b80604052505050565b5f611369611011565b9050611375828261132f565b919050565b5f67ffffffffffffffff82111561139457611393611302565b5b61139d826110f8565b9050602081019050919050565b828183375f83830152505050565b5f6113ca6113c58461137a565b611360565b9050828152602081018484840111156113e6576113e56112fe565b5b6113f18482856113aa565b509392505050565b5f82601f83011261140d5761140c6112fa565b5b813561141d8482602086016113b8565b91505092915050565b61142f81611140565b8114611439575f80fd5b50565b5f8135905061144a81611426565b92915050565b5f805f606084860312156114675761146661101a565b5b5f84013567ffffffffffffffff8111156114845761148361101e565b5b611490868287016113f9565b935050602084013567ffffffffffffffff8111156114b1576114b061101e565b5b6114bd868287016113f9565b92505060406114ce8682870161143c565b9150509250925092565b5f8115159050919050565b6114ec816114d8565b82525050565b5f6020820190506115055f8301846114e3565b92915050565b61151481611281565b82525050565b5f60208201905061152d5f83018461150b565b92915050565b7f4e487b71000000000000000000000000000000000000000000000000000000005f52602260045260245ffd5b5f600282049050600182168061157757607f821691505b60208210810361158a57611589611533565b5b50919050565b7f596f7520617265206e6f74207468652070726f7065727479206f776e657200005f82015250565b5f6115c4601e836110c0565b91506115cf82611590565b602082019050919050565b5f6020820190508181035f8301526115f1816115b8565b9050919050565b7f50726f7065727479206973206e6f742070656e64696e670000000000000000005f82015250565b5f61162c6017836110c0565b9150611637826115f8565b602082019050919050565b5f6020820190508181035f83015261165981611620565b9050919050565b7f596f7520617265206e6f742074686520627579657200000000000000000000005f82015250565b5f6116946015836110c0565b915061169f82611660565b602082019050919050565b5f6020820190508181035f8301526116c181611688565b9050919050565b5f819050815f5260205f209050919050565b5f6020601f8301049050919050565b5f82821b905092915050565b5f600883026117247fffffffffffffffffffffffffffffffffffffffffffffffffffffffffffffffff826116e9565b61172e86836116e9565b95508019841693508086168417925050509392505050565b5f819050919050565b5f61176961176461175f84611140565b611746565b611140565b9050919050565b5f819050919050565b6117828361174f565b61179661178e82611770565b8484546116f5565b825550505050565b5f90565b6117aa61179e565b6117b5818484611779565b505050565b5b818110156117d8576117cd5f826117a2565b6001810190506117bb565b5050565b601f82111561181d576117ee816116c8565b6117f7846116da565b81016020851015611806578190505b61181a611812856116da565b8301826117ba565b50505b505050565b5f82821c905092915050565b5f61183d5f1984600802611822565b1980831691505092915050565b5f611855838361182e565b9150826002028217905092915050565b61186e826110b6565b67ffffffffffffffff81111561188757611886611302565b5b6118918254611560565b61189c8282856117dc565b5f60209050601f8311600181146118cd575f84156118bb578287015190505b6118c5858261184a565b86555061192c565b601f1984166118db866116c8565b5f5b82811015611902578489015182556001820191506020850194506020810190506118dd565b8683101561191f578489015161191b601f89168261182e565b8355505b6001600288020188555050505b505050505050565b5f6040820190508181035f83015261194c8185611108565b905061195b6020830184611149565b9392505050565b7f436f6d706c657465204964656e7469747920566572696669636174696f6e20665f8201527f69727374206265666f72652070726f63656564696e6700000000000000000000602082015250565b5f6119bc6036836110c0565b91506119c782611962565b604082019050919050565b5f6020820190508181035f8301526119e9816119b0565b9050919050565b7f50726f7065727479206973206e6f7420617661696c61626c6520666f722070755f8201527f7263686173650000000000000000000000000000000000000000000000000000602082015250565b5f611a4a6026836110c0565b9150611a55826119f0565b604082019050919050565b5f6020820190508181035f830152611a7781611a3e565b9050919050565b7f596f752061726520616c726561647920766572696669656400000000000000005f82015250565b5f611ab26018836110c0565b9150611abd82611a7e565b602082019050919050565b5f6020820190508181035f830152611adf81611aa6565b9050919050565b7f496e73756666696369656e742066756e647320746f20766572696679206964655f8201527f6e74697479000000000000000000000000000000000000000000000000000000602082015250565b5f611b406025836110c0565b9150611b4b82611ae6565b604082019050919050565b5f6020820190508181035f830152611b6d81611b34565b905091905056fea26469706673582212207ce0313058843b54caae34dd55e0178db11264d6dc29f90cd45f8497872c89f264736f6c63430008170033",
					"opcodes": "PUSH1 0x80 PUSH1 0x40 MSTORE CALLER PUSH20 0xFFFFFFFFFFFFFFFFFFFFFFFFFFFFFFFFFFFFFFFF AND BALANCE PUSH1 0x4 SSTORE CALLVALUE DUP1 ISZERO PUSH2 0x2A JUMPI PUSH0 DUP1 REVERT JUMPDEST POP CALLER PUSH0 DUP1 PUSH2 0x100 EXP DUP2 SLOAD DUP2 PUSH20 0xFFFFFFFFFFFFFFFFFFFFFFFFFFFFFFFFFFFFFFFF MUL NOT AND SWAP1 DUP4 PUSH20 0xFFFFFFFFFFFFFFFFFFFFFFFFFFFFFFFFFFFFFFFF AND MUL OR SWAP1 SSTORE POP PUSH2 0x1BAA DUP1 PUSH2 0x77 PUSH0 CODECOPY PUSH0 RETURN INVALID PUSH1 0x80 PUSH1 0x40 MSTORE PUSH1 0x4 CALLDATASIZE LT PUSH2 0x9B JUMPI PUSH0 CALLDATALOAD PUSH1 0xE0 SHR DUP1 PUSH4 0x9CA4D7E7 GT PUSH2 0x63 JUMPI DUP1 PUSH4 0x9CA4D7E7 EQ PUSH2 0x175 JUMPI DUP1 PUSH4 0xACD7E4AC EQ PUSH2 0x1B1 JUMPI DUP1 PUSH4 0xC5CABF9A EQ PUSH2 0x1D9 JUMPI DUP1 PUSH4 0xCE606EE0 EQ PUSH2 0x201 JUMPI DUP1 PUSH4 0xE35FE366 EQ PUSH2 0x22B JUMPI DUP1 PUSH4 0xE8731C32 EQ PUSH2 0x267 JUMPI PUSH2 0x9B JUMP JUMPDEST DUP1 PUSH4 0x25EC77D7 EQ PUSH2 0x9F JUMPI DUP1 PUSH4 0x46D3D672 EQ PUSH2 0xDF JUMPI DUP1 PUSH4 0x590791F2 EQ PUSH2 0x107 JUMPI DUP1 PUSH4 0x8A0684A3 EQ PUSH2 0x131 JUMPI DUP1 PUSH4 0x913A8E80 EQ PUSH2 0x14D JUMPI JUMPDEST PUSH0 DUP1 REVERT JUMPDEST CALLVALUE DUP1 ISZERO PUSH2 0xAA JUMPI PUSH0 DUP1 REVERT JUMPDEST POP PUSH2 0xC5 PUSH1 0x4 DUP1 CALLDATASIZE SUB DUP2 ADD SWAP1 PUSH2 0xC0 SWAP2 SWAP1 PUSH2 0x107C JUMP JUMPDEST PUSH2 0x271 JUMP JUMPDEST PUSH1 0x40 MLOAD PUSH2 0xD6 SWAP6 SWAP5 SWAP4 SWAP3 SWAP2 SWAP1 PUSH2 0x11CB JUMP JUMPDEST PUSH1 0x40 MLOAD DUP1 SWAP2 SUB SWAP1 RETURN JUMPDEST CALLVALUE DUP1 ISZERO PUSH2 0xEA JUMPI PUSH0 DUP1 REVERT JUMPDEST POP PUSH2 0x105 PUSH1 0x4 DUP1 CALLDATASIZE SUB DUP2 ADD SWAP1 PUSH2 0x100 SWAP2 SWAP1 PUSH2 0x122A JUMP JUMPDEST PUSH2 0x3DA JUMP JUMPDEST STOP JUMPDEST CALLVALUE DUP1 ISZERO PUSH2 0x112 JUMPI PUSH0 DUP1 REVERT JUMPDEST POP PUSH2 0x11B PUSH2 0x58F JUMP JUMPDEST PUSH1 0x40 MLOAD PUSH2 0x128 SWAP2 SWAP1 PUSH2 0x1268 JUMP JUMPDEST PUSH1 0x40 MLOAD DUP1 SWAP2 SUB SWAP1 RETURN JUMPDEST PUSH2 0x14B PUSH1 0x4 DUP1 CALLDATASIZE SUB DUP2 ADD SWAP1 PUSH2 0x146 SWAP2 SWAP1 PUSH2 0x12BC JUMP JUMPDEST PUSH2 0x5AD JUMP JUMPDEST STOP JUMPDEST CALLVALUE DUP1 ISZERO PUSH2 0x158 JUMPI PUSH0 DUP1 REVERT JUMPDEST POP PUSH2 0x173 PUSH1 0x4 DUP1 CALLDATASIZE SUB DUP2 ADD SWAP1 PUSH2 0x16E SWAP2 SWAP1 PUSH2 0x1450 JUMP JUMPDEST PUSH2 0x82D JUMP JUMPDEST STOP JUMPDEST CALLVALUE DUP1 ISZERO PUSH2 0x180 JUMPI PUSH0 DUP1 REVERT JUMPDEST POP PUSH2 0x19B PUSH1 0x4 DUP1 CALLDATASIZE SUB DUP2 ADD SWAP1 PUSH2 0x196 SWAP2 SWAP1 PUSH2 0x122A JUMP JUMPDEST PUSH2 0x9BA JUMP JUMPDEST PUSH1 0x40 MLOAD PUSH2 0x1A8 SWAP2 SWAP1 PUSH2 0x14F2 JUMP JUMPDEST PUSH1 0x40 MLOAD DUP1 SWAP2 SUB SWAP1 RETURN JUMPDEST CALLVALUE DUP1 ISZERO PUSH2 0x1BC JUMPI PUSH0 DUP1 REVERT JUMPDEST POP PUSH2 0x1D7 PUSH1 0x4 DUP1 CALLDATASIZE SUB DUP2 ADD SWAP1 PUSH2 0x1D2 SWAP2 SWAP1 PUSH2 0x122A JUMP JUMPDEST PUSH2 0x9E4 JUMP JUMPDEST STOP JUMPDEST CALLVALUE DUP1 ISZERO PUSH2 0x1E4 JUMPI PUSH0 DUP1 REVERT JUMPDEST POP PUSH2 0x1FF PUSH1 0x4 DUP1 CALLDATASIZE SUB DUP2 ADD SWAP1 PUSH2 0x1FA SWAP2 SWAP1 PUSH2 0x107C JUMP JUMPDEST PUSH2 0xBFF JUMP JUMPDEST STOP JUMPDEST CALLVALUE DUP1 ISZERO PUSH2 0x20C JUMPI PUSH0 DUP1 REVERT JUMPDEST POP PUSH2 0x215 PUSH2 0xE05 JUMP JUMPDEST PUSH1 0x40 MLOAD PUSH2 0x222 SWAP2 SWAP1 PUSH2 0x151A JUMP JUMPDEST PUSH1 0x40 MLOAD DUP1 SWAP2 SUB SWAP1 RETURN JUMPDEST CALLVALUE DUP1 ISZERO PUSH2 0x236 JUMPI PUSH0 DUP1 REVERT JUMPDEST POP PUSH2 0x251 PUSH1 0x4 DUP1 CALLDATASIZE SUB DUP2 ADD SWAP1 PUSH2 0x24C SWAP2 SWAP1 PUSH2 0x107C JUMP JUMPDEST PUSH2 0xE28 JUMP JUMPDEST PUSH1 0x40 MLOAD PUSH2 0x25E SWAP2 SWAP1 PUSH2 0x14F2 JUMP JUMPDEST PUSH1 0x40 MLOAD DUP1 SWAP2 SUB SWAP1 RETURN JUMPDEST PUSH2 0x26F PUSH2 0xE45 JUMP JUMPDEST STOP JUMPDEST PUSH1 0x1 PUSH1 0x20 MSTORE DUP1 PUSH0 MSTORE PUSH1 0x40 PUSH0 KECCAK256 PUSH0 SWAP2 POP SWAP1 POP DUP1 PUSH0 ADD PUSH0 SWAP1 SLOAD SWAP1 PUSH2 0x100 EXP SWAP1 DIV PUSH20 0xFFFFFFFFFFFFFFFFFFFFFFFFFFFFFFFFFFFFFFFF AND SWAP1 DUP1 PUSH1 0x1 ADD DUP1 SLOAD PUSH2 0x2B5 SWAP1 PUSH2 0x1560 JUMP JUMPDEST DUP1 PUSH1 0x1F ADD PUSH1 0x20 DUP1 SWAP2 DIV MUL PUSH1 0x20 ADD PUSH1 0x40 MLOAD SWAP1 DUP2 ADD PUSH1 0x40 MSTORE DUP1 SWAP3 SWAP2 SWAP1 DUP2 DUP2 MSTORE PUSH1 0x20 ADD DUP3 DUP1 SLOAD PUSH2 0x2E1 SWAP1 PUSH2 0x1560 JUMP JUMPDEST DUP1 ISZERO PUSH2 0x32C JUMPI DUP1 PUSH1 0x1F LT PUSH2 0x303 JUMPI PUSH2 0x100 DUP1 DUP4 SLOAD DIV MUL DUP4 MSTORE SWAP2 PUSH1 0x20 ADD SWAP2 PUSH2 0x32C JUMP JUMPDEST DUP3 ADD SWAP2 SWAP1 PUSH0 MSTORE PUSH1 0x20 PUSH0 KECCAK256 SWAP1 JUMPDEST DUP2 SLOAD DUP2 MSTORE SWAP1 PUSH1 0x1 ADD SWAP1 PUSH1 0x20 ADD DUP1 DUP4 GT PUSH2 0x30F JUMPI DUP3 SWAP1 SUB PUSH1 0x1F AND DUP3 ADD SWAP2 JUMPDEST POP POP POP POP POP SWAP1 DUP1 PUSH1 0x2 ADD DUP1 SLOAD PUSH2 0x341 SWAP1 PUSH2 0x1560 JUMP JUMPDEST DUP1 PUSH1 0x1F ADD PUSH1 0x20 DUP1 SWAP2 DIV MUL PUSH1 0x20 ADD PUSH1 0x40 MLOAD SWAP1 DUP2 ADD PUSH1 0x40 MSTORE DUP1 SWAP3 SWAP2 SWAP1 DUP2 DUP2 MSTORE PUSH1 0x20 ADD DUP3 DUP1 SLOAD PUSH2 0x36D SWAP1 PUSH2 0x1560 JUMP JUMPDEST DUP1 ISZERO PUSH2 0x3B8 JUMPI DUP1 PUSH1 0x1F LT PUSH2 0x38F JUMPI PUSH2 0x100 DUP1 DUP4 SLOAD DIV MUL DUP4 MSTORE SWAP2 PUSH1 0x20 ADD SWAP2 PUSH2 0x3B8 JUMP JUMPDEST DUP3 ADD SWAP2 SWAP1 PUSH0 MSTORE PUSH1 0x20 PUSH0 KECCAK256 SWAP1 JUMPDEST DUP2 SLOAD DUP2 MSTORE SWAP1 PUSH1 0x1 ADD SWAP1 PUSH1 0x20 ADD DUP1 DUP4 GT PUSH2 0x39B JUMPI DUP3 SWAP1 SUB PUSH1 0x1F AND DUP3 ADD SWAP2 JUMPDEST POP POP POP POP POP SWAP1 DUP1 PUSH1 0x3 ADD SLOAD SWAP1 DUP1 PUSH1 0x4 ADD PUSH0 SWAP1 SLOAD SWAP1 PUSH2 0x100 EXP SWAP1 DIV PUSH1 0xFF AND SWAP1 POP DUP6 JUMP JUMPDEST DUP1 PUSH20 0xFFFFFFFFFFFFFFFFFFFFFFFFFFFFFFFFFFFFFFFF AND CALLER PUSH20 0xFFFFFFFFFFFFFFFFFFFFFFFFFFFFFFFFFFFFFFFF AND EQ PUSH2 0x448 JUMPI PUSH1 0x40 MLOAD PUSH32 0x8C379A000000000000000000000000000000000000000000000000000000000 DUP2 MSTORE PUSH1 0x4 ADD PUSH2 0x43F SWAP1 PUSH2 0x15DA JUMP JUMPDEST PUSH1 0x40 MLOAD DUP1 SWAP2 SUB SWAP1 REVERT JUMPDEST PUSH1 0x1 PUSH1 0x2 DUP2 GT ISZERO PUSH2 0x45C JUMPI PUSH2 0x45B PUSH2 0x1158 JUMP JUMPDEST JUMPDEST PUSH1 0x1 PUSH0 DUP4 PUSH20 0xFFFFFFFFFFFFFFFFFFFFFFFFFFFFFFFFFFFFFFFF AND PUSH20 0xFFFFFFFFFFFFFFFFFFFFFFFFFFFFFFFFFFFFFFFF AND DUP2 MSTORE PUSH1 0x20 ADD SWAP1 DUP2 MSTORE PUSH1 0x20 ADD PUSH0 KECCAK256 PUSH1 0x4 ADD PUSH0 SWAP1 SLOAD SWAP1 PUSH2 0x100 EXP SWAP1 DIV PUSH1 0xFF AND PUSH1 0x2 DUP2 GT ISZERO PUSH2 0x4BB JUMPI PUSH2 0x4BA PUSH2 0x1158 JUMP JUMPDEST JUMPDEST EQ PUSH2 0x4FB JUMPI PUSH1 0x40 MLOAD PUSH32 0x8C379A000000000000000000000000000000000000000000000000000000000 DUP2 MSTORE PUSH1 0x4 ADD PUSH2 0x4F2 SWAP1 PUSH2 0x1642 JUMP JUMPDEST PUSH1 0x40 MLOAD DUP1 SWAP2 SUB SWAP1 REVERT JUMPDEST PUSH1 0x1 PUSH1 0x2 PUSH0 DUP4 PUSH20 0xFFFFFFFFFFFFFFFFFFFFFFFFFFFFFFFFFFFFFFFF AND PUSH20 0xFFFFFFFFFFFFFFFFFFFFFFFFFFFFFFFFFFFFFFFF AND DUP2 MSTORE PUSH1 0x20 ADD SWAP1 DUP2 MSTORE PUSH1 0x20 ADD PUSH0 KECCAK256 PUSH0 DUP5 PUSH20 0xFFFFFFFFFFFFFFFFFFFFFFFFFFFFFFFFFFFFFFFF AND PUSH20 0xFFFFFFFFFFFFFFFFFFFFFFFFFFFFFFFFFFFFFFFF AND DUP2 MSTORE PUSH1 0x20 ADD SWAP1 DUP2 MSTORE PUSH1 0x20 ADD PUSH0 KECCAK256 PUSH0 PUSH2 0x100 EXP DUP2 SLOAD DUP2 PUSH1 0xFF MUL NOT AND SWAP1 DUP4 ISZERO ISZERO MUL OR SWAP1 SSTORE POP POP POP JUMP JUMPDEST PUSH0 CALLER PUSH20 0xFFFFFFFFFFFFFFFFFFFFFFFFFFFFFFFFFFFFFFFF AND BALANCE SWAP1 POP SWAP1 JUMP JUMPDEST DUP2 PUSH20 0xFFFFFFFFFFFFFFFFFFFFFFFFFFFFFFFFFFFFFFFF AND CALLER PUSH20 0xFFFFFFFFFFFFFFFFFFFFFFFFFFFFFFFFFFFFFFFF AND EQ PUSH2 0x61B JUMPI PUSH1 0x40 MLOAD PUSH32 0x8C379A000000000000000000000000000000000000000000000000000000000 DUP2 MSTORE PUSH1 0x4 ADD PUSH2 0x612 SWAP1 PUSH2 0x16AA JUMP JUMPDEST PUSH1 0x40 MLOAD DUP1 SWAP2 SUB SWAP1 REVERT JUMPDEST DUP1 PUSH20 0xFFFFFFFFFFFFFFFFFFFFFFFFFFFFFFFFFFFFFFFF AND PUSH2 0x8FC PUSH1 0x1 PUSH0 DUP5 PUSH20 0xFFFFFFFFFFFFFFFFFFFFFFFFFFFFFFFFFFFFFFFF AND PUSH20 0xFFFFFFFFFFFFFFFFFFFFFFFFFFFFFFFFFFFFFFFF AND DUP2 MSTORE PUSH1 0x20 ADD SWAP1 DUP2 MSTORE PUSH1 0x20 ADD PUSH0 KECCAK256 PUSH1 0x3 ADD SLOAD SWAP1 DUP2 ISZERO MUL SWAP1 PUSH1 0x40 MLOAD PUSH0 PUSH1 0x40 MLOAD DUP1 DUP4 SUB DUP2 DUP6 DUP9 DUP9 CALL SWAP4 POP POP POP POP ISZERO DUP1 ISZERO PUSH2 0x69E JUMPI RETURNDATASIZE PUSH0 DUP1 RETURNDATACOPY RETURNDATASIZE PUSH0 REVERT JUMPDEST POP DUP2 PUSH1 0x1 PUSH0 DUP4 PUSH20 0xFFFFFFFFFFFFFFFFFFFFFFFFFFFFFFFFFFFFFFFF AND PUSH20 0xFFFFFFFFFFFFFFFFFFFFFFFFFFFFFFFFFFFFFFFF AND DUP2 MSTORE PUSH1 0x20 ADD SWAP1 DUP2 MSTORE PUSH1 0x20 ADD PUSH0 KECCAK256 PUSH0 ADD PUSH0 PUSH2 0x100 EXP DUP2 SLOAD DUP2 PUSH20 0xFFFFFFFFFFFFFFFFFFFFFFFFFFFFFFFFFFFFFFFF MUL NOT AND SWAP1 DUP4 PUSH20 0xFFFFFFFFFFFFFFFFFFFFFFFFFFFFFFFFFFFFFFFF AND MUL OR SWAP1 SSTORE POP PUSH1 0x2 PUSH1 0x1 PUSH0 DUP4 PUSH20 0xFFFFFFFFFFFFFFFFFFFFFFFFFFFFFFFFFFFFFFFF AND PUSH20 0xFFFFFFFFFFFFFFFFFFFFFFFFFFFFFFFFFFFFFFFF AND DUP2 MSTORE PUSH1 0x20 ADD SWAP1 DUP2 MSTORE PUSH1 0x20 ADD PUSH0 KECCAK256 PUSH1 0x4 ADD PUSH0 PUSH2 0x100 EXP DUP2 SLOAD DUP2 PUSH1 0xFF MUL NOT AND SWAP1 DUP4 PUSH1 0x2 DUP2 GT ISZERO PUSH2 0x77F JUMPI PUSH2 0x77E PUSH2 0x1158 JUMP JUMPDEST JUMPDEST MUL OR SWAP1 SSTORE POP DUP1 PUSH20 0xFFFFFFFFFFFFFFFFFFFFFFFFFFFFFFFFFFFFFFFF AND DUP3 PUSH20 0xFFFFFFFFFFFFFFFFFFFFFFFFFFFFFFFFFFFFFFFF AND PUSH32 0x7898E8111AF6EF8AAD566E3F0544A32DC3476BBCF760201950ACFEC431F668D7 PUSH1 0x1 PUSH0 DUP6 PUSH20 0xFFFFFFFFFFFFFFFFFFFFFFFFFFFFFFFFFFFFFFFF AND PUSH20 0xFFFFFFFFFFFFFFFFFFFFFFFFFFFFFFFFFFFFFFFF AND DUP2 MSTORE PUSH1 0x20 ADD SWAP1 DUP2 MSTORE PUSH1 0x20 ADD PUSH0 KECCAK256 PUSH1 0x3 ADD SLOAD PUSH1 0x40 MLOAD PUSH2 0x821 SWAP2 SWAP1 PUSH2 0x1268 JUMP JUMPDEST PUSH1 0x40 MLOAD DUP1 SWAP2 SUB SWAP1 LOG3 POP POP JUMP JUMPDEST PUSH1 0x40 MLOAD DUP1 PUSH1 0xA0 ADD PUSH1 0x40 MSTORE DUP1 CALLER PUSH20 0xFFFFFFFFFFFFFFFFFFFFFFFFFFFFFFFFFFFFFFFF AND DUP2 MSTORE PUSH1 0x20 ADD DUP5 DUP2 MSTORE PUSH1 0x20 ADD DUP4 DUP2 MSTORE PUSH1 0x20 ADD DUP3 DUP2 MSTORE PUSH1 0x20 ADD PUSH0 PUSH1 0x2 DUP2 GT ISZERO PUSH2 0x879 JUMPI PUSH2 0x878 PUSH2 0x1158 JUMP JUMPDEST JUMPDEST DUP2 MSTORE POP PUSH1 0x1 PUSH0 CALLER PUSH20 0xFFFFFFFFFFFFFFFFFFFFFFFFFFFFFFFFFFFFFFFF AND PUSH20 0xFFFFFFFFFFFFFFFFFFFFFFFFFFFFFFFFFFFFFFFF AND DUP2 MSTORE PUSH1 0x20 ADD SWAP1 DUP2 MSTORE PUSH1 0x20 ADD PUSH0 KECCAK256 PUSH0 DUP3 ADD MLOAD DUP2 PUSH0 ADD PUSH0 PUSH2 0x100 EXP DUP2 SLOAD DUP2 PUSH20 0xFFFFFFFFFFFFFFFFFFFFFFFFFFFFFFFFFFFFFFFF MUL NOT AND SWAP1 DUP4 PUSH20 0xFFFFFFFFFFFFFFFFFFFFFFFFFFFFFFFFFFFFFFFF AND MUL OR SWAP1 SSTORE POP PUSH1 0x20 DUP3 ADD MLOAD DUP2 PUSH1 0x1 ADD SWAP1 DUP2 PUSH2 0x912 SWAP2 SWAP1 PUSH2 0x1865 JUMP JUMPDEST POP PUSH1 0x40 DUP3 ADD MLOAD DUP2 PUSH1 0x2 ADD SWAP1 DUP2 PUSH2 0x928 SWAP2 SWAP1 PUSH2 0x1865 JUMP JUMPDEST POP PUSH1 0x60 DUP3 ADD MLOAD DUP2 PUSH1 0x3 ADD SSTORE PUSH1 0x80 DUP3 ADD MLOAD DUP2 PUSH1 0x4 ADD PUSH0 PUSH2 0x100 EXP DUP2 SLOAD DUP2 PUSH1 0xFF MUL NOT AND SWAP1 DUP4 PUSH1 0x2 DUP2 GT ISZERO PUSH2 0x95D JUMPI PUSH2 0x95C PUSH2 0x1158 JUMP JUMPDEST JUMPDEST MUL OR SWAP1 SSTORE POP SWAP1 POP POP CALLER PUSH20 0xFFFFFFFFFFFFFFFFFFFFFFFFFFFFFFFFFFFFFFFF AND PUSH32 0x37F157F65566913CE8AEE56689D22AC304A94986D9A4045392E2CE1A23497B3D DUP5 DUP4 PUSH1 0x40 MLOAD PUSH2 0x9AD SWAP3 SWAP2 SWAP1 PUSH2 0x1934 JUMP JUMPDEST PUSH1 0x40 MLOAD DUP1 SWAP2 SUB SWAP1 LOG2 POP POP POP JUMP JUMPDEST PUSH1 0x2 PUSH1 0x20 MSTORE DUP2 PUSH0 MSTORE PUSH1 0x40 PUSH0 KECCAK256 PUSH1 0x20 MSTORE DUP1 PUSH0 MSTORE PUSH1 0x40 PUSH0 KECCAK256 PUSH0 SWAP2 POP SWAP2 POP SWAP1 SLOAD SWAP1 PUSH2 0x100 EXP SWAP1 DIV PUSH1 0xFF AND DUP2 JUMP JUMPDEST DUP1 PUSH20 0xFFFFFFFFFFFFFFFFFFFFFFFFFFFFFFFFFFFFFFFF AND CALLER PUSH20 0xFFFFFFFFFFFFFFFFFFFFFFFFFFFFFFFFFFFFFFFF AND EQ PUSH2 0xA52 JUMPI PUSH1 0x40 MLOAD PUSH32 0x8C379A000000000000000000000000000000000000000000000000000000000 DUP2 MSTORE PUSH1 0x4 ADD PUSH2 0xA49 SWAP1 PUSH2 0x15DA JUMP JUMPDEST PUSH1 0x40 MLOAD DUP1 SWAP2 SUB SWAP1 REVERT JUMPDEST PUSH1 0x1 PUSH1 0x2 DUP2 GT ISZERO PUSH2 0xA66 JUMPI PUSH2 0xA65 PUSH2 0x1158 JUMP JUMPDEST JUMPDEST PUSH1 0x1 PUSH0 DUP4 PUSH20 0xFFFFFFFFFFFFFFFFFFFFFFFFFFFFFFFFFFFFFFFF AND PUSH20 0xFFFFFFFFFFFFFFFFFFFFFFFFFFFFFFFFFFFFFFFF AND DUP2 MSTORE PUSH1 0x20 ADD SWAP1 DUP2 MSTORE PUSH1 0x20 ADD PUSH0 KECCAK256 PUSH1 0x4 ADD PUSH0 SWAP1 SLOAD SWAP1 PUSH2 0x100 EXP SWAP1 DIV PUSH1 0xFF AND PUSH1 0x2 DUP2 GT ISZERO PUSH2 0xAC5 JUMPI PUSH2 0xAC4 PUSH2 0x1158 JUMP JUMPDEST JUMPDEST EQ PUSH2 0xB05 JUMPI PUSH1 0x40 MLOAD PUSH32 0x8C379A000000000000000000000000000000000000000000000000000000000 DUP2 MSTORE PUSH1 0x4 ADD PUSH2 0xAFC SWAP1 PUSH2 0x1642 JUMP JUMPDEST PUSH1 0x40 MLOAD DUP1 SWAP2 SUB SWAP1 REVERT JUMPDEST PUSH0 PUSH1 0x2 PUSH0 DUP4 PUSH20 0xFFFFFFFFFFFFFFFFFFFFFFFFFFFFFFFFFFFFFFFF AND PUSH20 0xFFFFFFFFFFFFFFFFFFFFFFFFFFFFFFFFFFFFFFFF AND DUP2 MSTORE PUSH1 0x20 ADD SWAP1 DUP2 MSTORE PUSH1 0x20 ADD PUSH0 KECCAK256 PUSH0 DUP5 PUSH20 0xFFFFFFFFFFFFFFFFFFFFFFFFFFFFFFFFFFFFFFFF AND PUSH20 0xFFFFFFFFFFFFFFFFFFFFFFFFFFFFFFFFFFFFFFFF AND DUP2 MSTORE PUSH1 0x20 ADD SWAP1 DUP2 MSTORE PUSH1 0x20 ADD PUSH0 KECCAK256 PUSH0 PUSH2 0x100 EXP DUP2 SLOAD DUP2 PUSH1 0xFF MUL NOT AND SWAP1 DUP4 ISZERO ISZERO MUL OR SWAP1 SSTORE POP PUSH0 PUSH1 0x1 PUSH0 DUP4 PUSH20 0xFFFFFFFFFFFFFFFFFFFFFFFFFFFFFFFFFFFFFFFF AND PUSH20 0xFFFFFFFFFFFFFFFFFFFFFFFFFFFFFFFFFFFFFFFF AND DUP2 MSTORE PUSH1 0x20 ADD SWAP1 DUP2 MSTORE PUSH1 0x20 ADD PUSH0 KECCAK256 PUSH1 0x4 ADD PUSH0 PUSH2 0x100 EXP DUP2 SLOAD DUP2 PUSH1 0xFF MUL NOT AND SWAP1 DUP4 PUSH1 0x2 DUP2 GT ISZERO PUSH2 0xBF6 JUMPI PUSH2 0xBF5 PUSH2 0x1158 JUMP JUMPDEST JUMPDEST MUL OR SWAP1 SSTORE POP POP POP JUMP JUMPDEST PUSH1 0x1 ISZERO ISZERO PUSH1 0x3 PUSH0 CALLER PUSH20 0xFFFFFFFFFFFFFFFFFFFFFFFFFFFFFFFFFFFFFFFF AND PUSH20 0xFFFFFFFFFFFFFFFFFFFFFFFFFFFFFFFFFFFFFFFF AND DUP2 MSTORE PUSH1 0x20 ADD SWAP1 DUP2 MSTORE PUSH1 0x20 ADD PUSH0 KECCAK256 PUSH0 SWAP1 SLOAD SWAP1 PUSH2 0x100 EXP SWAP1 DIV PUSH1 0xFF AND ISZERO ISZERO EQ PUSH2 0xC8F JUMPI PUSH1 0x40 MLOAD PUSH32 0x8C379A000000000000000000000000000000000000000000000000000000000 DUP2 MSTORE PUSH1 0x4 ADD PUSH2 0xC86 SWAP1 PUSH2 0x19D2 JUMP JUMPDEST PUSH1 0x40 MLOAD DUP1 SWAP2 SUB SWAP1 REVERT JUMPDEST PUSH0 PUSH1 0x2 DUP2 GT ISZERO PUSH2 0xCA2 JUMPI PUSH2 0xCA1 PUSH2 0x1158 JUMP JUMPDEST JUMPDEST PUSH1 0x1 PUSH0 DUP4 PUSH20 0xFFFFFFFFFFFFFFFFFFFFFFFFFFFFFFFFFFFFFFFF AND PUSH20 0xFFFFFFFFFFFFFFFFFFFFFFFFFFFFFFFFFFFFFFFF AND DUP2 MSTORE PUSH1 0x20 ADD SWAP1 DUP2 MSTORE PUSH1 0x20 ADD PUSH0 KECCAK256 PUSH1 0x4 ADD PUSH0 SWAP1 SLOAD SWAP1 PUSH2 0x100 EXP SWAP1 DIV PUSH1 0xFF AND PUSH1 0x2 DUP2 GT ISZERO PUSH2 0xD01 JUMPI PUSH2 0xD00 PUSH2 0x1158 JUMP JUMPDEST JUMPDEST EQ PUSH2 0xD41 JUMPI PUSH1 0x40 MLOAD PUSH32 0x8C379A000000000000000000000000000000000000000000000000000000000 DUP2 MSTORE PUSH1 0x4 ADD PUSH2 0xD38 SWAP1 PUSH2 0x1A60 JUMP JUMPDEST PUSH1 0x40 MLOAD DUP1 SWAP2 SUB SWAP1 REVERT JUMPDEST PUSH1 0x1 DUP1 PUSH0 DUP4 PUSH20 0xFFFFFFFFFFFFFFFFFFFFFFFFFFFFFFFFFFFFFFFF AND PUSH20 0xFFFFFFFFFFFFFFFFFFFFFFFFFFFFFFFFFFFFFFFF AND DUP2 MSTORE PUSH1 0x20 ADD SWAP1 DUP2 MSTORE PUSH1 0x20 ADD PUSH0 KECCAK256 PUSH1 0x4 ADD PUSH0 PUSH2 0x100 EXP DUP2 SLOAD DUP2 PUSH1 0xFF MUL NOT AND SWAP1 DUP4 PUSH1 0x2 DUP2 GT ISZERO PUSH2 0xDA3 JUMPI PUSH2 0xDA2 PUSH2 0x1158 JUMP JUMPDEST JUMPDEST MUL OR SWAP1 SSTORE POP DUP1 PUSH20 0xFFFFFFFFFFFFFFFFFFFFFFFFFFFFFFFFFFFFFFFF AND CALLER PUSH20 0xFFFFFFFFFFFFFFFFFFFFFFFFFFFFFFFFFFFFFFFF AND PUSH32 0xDE059EFCE4306D4728A082D601AB2BB6766B1F58F205CBBD96DA740E0AD20CE0 PUSH1 0x40 MLOAD PUSH1 0x40 MLOAD DUP1 SWAP2 SUB SWAP1 LOG3 POP JUMP JUMPDEST PUSH0 DUP1 SLOAD SWAP1 PUSH2 0x100 EXP SWAP1 DIV PUSH20 0xFFFFFFFFFFFFFFFFFFFFFFFFFFFFFFFFFFFFFFFF AND DUP2 JUMP JUMPDEST PUSH1 0x3 PUSH1 0x20 MSTORE DUP1 PUSH0 MSTORE PUSH1 0x40 PUSH0 KECCAK256 PUSH0 SWAP2 POP SLOAD SWAP1 PUSH2 0x100 EXP SWAP1 DIV PUSH1 0xFF AND DUP2 JUMP JUMPDEST PUSH1 0x3 PUSH0 CALLER PUSH20 0xFFFFFFFFFFFFFFFFFFFFFFFFFFFFFFFFFFFFFFFF AND PUSH20 0xFFFFFFFFFFFFFFFFFFFFFFFFFFFFFFFFFFFFFFFF AND DUP2 MSTORE PUSH1 0x20 ADD SWAP1 DUP2 MSTORE PUSH1 0x20 ADD PUSH0 KECCAK256 PUSH0 SWAP1 SLOAD SWAP1 PUSH2 0x100 EXP SWAP1 DIV PUSH1 0xFF AND ISZERO PUSH2 0xECF JUMPI PUSH1 0x40 MLOAD PUSH32 0x8C379A000000000000000000000000000000000000000000000000000000000 DUP2 MSTORE PUSH1 0x4 ADD PUSH2 0xEC6 SWAP1 PUSH2 0x1AC8 JUMP JUMPDEST PUSH1 0x40 MLOAD DUP1 SWAP2 SUB SWAP1 REVERT JUMPDEST PUSH2 0x1F4 CALLVALUE LT ISZERO PUSH2 0xF14 JUMPI PUSH1 0x40 MLOAD PUSH32 0x8C379A000000000000000000000000000000000000000000000000000000000 DUP2 MSTORE PUSH1 0x4 ADD PUSH2 0xF0B SWAP1 PUSH2 0x1B56 JUMP JUMPDEST PUSH1 0x40 MLOAD DUP1 SWAP2 SUB SWAP1 REVERT JUMPDEST PUSH0 DUP1 SLOAD SWAP1 PUSH2 0x100 EXP SWAP1 DIV PUSH20 0xFFFFFFFFFFFFFFFFFFFFFFFFFFFFFFFFFFFFFFFF AND PUSH20 0xFFFFFFFFFFFFFFFFFFFFFFFFFFFFFFFFFFFFFFFF AND PUSH2 0x8FC CALLVALUE SWAP1 DUP2 ISZERO MUL SWAP1 PUSH1 0x40 MLOAD PUSH0 PUSH1 0x40 MLOAD DUP1 DUP4 SUB DUP2 DUP6 DUP9 DUP9 CALL SWAP4 POP POP POP POP ISZERO DUP1 ISZERO PUSH2 0xF76 JUMPI RETURNDATASIZE PUSH0 DUP1 RETURNDATACOPY RETURNDATASIZE PUSH0 REVERT JUMPDEST POP PUSH1 0x1 PUSH1 0x3 PUSH0 CALLER PUSH20 0xFFFFFFFFFFFFFFFFFFFFFFFFFFFFFFFFFFFFFFFF AND PUSH20 0xFFFFFFFFFFFFFFFFFFFFFFFFFFFFFFFFFFFFFFFF AND DUP2 MSTORE PUSH1 0x20 ADD SWAP1 DUP2 MSTORE PUSH1 0x20 ADD PUSH0 KECCAK256 PUSH0 PUSH2 0x100 EXP DUP2 SLOAD DUP2 PUSH1 0xFF MUL NOT AND SWAP1 DUP4 ISZERO ISZERO MUL OR SWAP1 SSTORE POP CALLER PUSH20 0xFFFFFFFFFFFFFFFFFFFFFFFFFFFFFFFFFFFFFFFF AND PUSH32 0x2F93FDAAFAD8EDAD1CA75101B1FBDA62E64AB9AFC26D0EA801CCF6EF02C09AB PUSH1 0x40 MLOAD PUSH1 0x40 MLOAD DUP1 SWAP2 SUB SWAP1 LOG2 JUMP JUMPDEST PUSH0 PUSH1 0x40 MLOAD SWAP1 POP SWAP1 JUMP JUMPDEST PUSH0 DUP1 REVERT JUMPDEST PUSH0 DUP1 REVERT JUMPDEST PUSH0 PUSH20 0xFFFFFFFFFFFFFFFFFFFFFFFFFFFFFFFFFFFFFFFF DUP3 AND SWAP1 POP SWAP2 SWAP1 POP JUMP JUMPDEST PUSH0 PUSH2 0x104B DUP3 PUSH2 0x1022 JUMP JUMPDEST SWAP1 POP SWAP2 SWAP1 POP JUMP JUMPDEST PUSH2 0x105B DUP2 PUSH2 0x1041 JUMP JUMPDEST DUP2 EQ PUSH2 0x1065 JUMPI PUSH0 DUP1 REVERT JUMPDEST POP JUMP JUMPDEST PUSH0 DUP2 CALLDATALOAD SWAP1 POP PUSH2 0x1076 DUP2 PUSH2 0x1052 JUMP JUMPDEST SWAP3 SWAP2 POP POP JUMP JUMPDEST PUSH0 PUSH1 0x20 DUP3 DUP5 SUB SLT ISZERO PUSH2 0x1091 JUMPI PUSH2 0x1090 PUSH2 0x101A JUMP JUMPDEST JUMPDEST PUSH0 PUSH2 0x109E DUP5 DUP3 DUP6 ADD PUSH2 0x1068 JUMP JUMPDEST SWAP2 POP POP SWAP3 SWAP2 POP POP JUMP JUMPDEST PUSH2 0x10B0 DUP2 PUSH2 0x1041 JUMP JUMPDEST DUP3 MSTORE POP POP JUMP JUMPDEST PUSH0 DUP2 MLOAD SWAP1 POP SWAP2 SWAP1 POP JUMP JUMPDEST PUSH0 DUP3 DUP3 MSTORE PUSH1 0x20 DUP3 ADD SWAP1 POP SWAP3 SWAP2 POP POP JUMP JUMPDEST PUSH0 JUMPDEST DUP4 DUP2 LT ISZERO PUSH2 0x10ED JUMPI DUP1 DUP3 ADD MLOAD DUP2 DUP5 ADD MSTORE PUSH1 0x20 DUP2 ADD SWAP1 POP PUSH2 0x10D2 JUMP JUMPDEST PUSH0 DUP5 DUP5 ADD MSTORE POP POP POP POP JUMP JUMPDEST PUSH0 PUSH1 0x1F NOT PUSH1 0x1F DUP4 ADD AND SWAP1 POP SWAP2 SWAP1 POP JUMP JUMPDEST PUSH0 PUSH2 0x1112 DUP3 PUSH2 0x10B6 JUMP JUMPDEST PUSH2 0x111C DUP2 DUP6 PUSH2 0x10C0 JUMP JUMPDEST SWAP4 POP PUSH2 0x112C DUP2 DUP6 PUSH1 0x20 DUP7 ADD PUSH2 0x10D0 JUMP JUMPDEST PUSH2 0x1135 DUP2 PUSH2 0x10F8 JUMP JUMPDEST DUP5 ADD SWAP2 POP POP SWAP3 SWAP2 POP POP JUMP JUMPDEST PUSH0 DUP2 SWAP1 POP SWAP2 SWAP1 POP JUMP JUMPDEST PUSH2 0x1152 DUP2 PUSH2 0x1140 JUMP JUMPDEST DUP3 MSTORE POP POP JUMP JUMPDEST PUSH32 0x4E487B7100000000000000000000000000000000000000000000000000000000 PUSH0 MSTORE PUSH1 0x21 PUSH1 0x4 MSTORE PUSH1 0x24 PUSH0 REVERT JUMPDEST PUSH1 0x3 DUP2 LT PUSH2 0x1196 JUMPI PUSH2 0x1195 PUSH2 0x1158 JUMP JUMPDEST JUMPDEST POP JUMP JUMPDEST PUSH0 DUP2 SWAP1 POP PUSH2 0x11A6 DUP3 PUSH2 0x1185 JUMP JUMPDEST SWAP2 SWAP1 POP JUMP JUMPDEST PUSH0 PUSH2 0x11B5 DUP3 PUSH2 0x1199 JUMP JUMPDEST SWAP1 POP SWAP2 SWAP1 POP JUMP JUMPDEST PUSH2 0x11C5 DUP2 PUSH2 0x11AB JUMP JUMPDEST DUP3 MSTORE POP POP JUMP JUMPDEST PUSH0 PUSH1 0xA0 DUP3 ADD SWAP1 POP PUSH2 0x11DE PUSH0 DUP4 ADD DUP9 PUSH2 0x10A7 JUMP JUMPDEST DUP2 DUP2 SUB PUSH1 0x20 DUP4 ADD MSTORE PUSH2 0x11F0 DUP2 DUP8 PUSH2 0x1108 JUMP JUMPDEST SWAP1 POP DUP2 DUP2 SUB PUSH1 0x40 DUP4 ADD MSTORE PUSH2 0x1204 DUP2 DUP7 PUSH2 0x1108 JUMP JUMPDEST SWAP1 POP PUSH2 0x1213 PUSH1 0x60 DUP4 ADD DUP6 PUSH2 0x1149 JUMP JUMPDEST PUSH2 0x1220 PUSH1 0x80 DUP4 ADD DUP5 PUSH2 0x11BC JUMP JUMPDEST SWAP7 SWAP6 POP POP POP POP POP POP JUMP JUMPDEST PUSH0 DUP1 PUSH1 0x40 DUP4 DUP6 SUB SLT ISZERO PUSH2 0x1240 JUMPI PUSH2 0x123F PUSH2 0x101A JUMP JUMPDEST JUMPDEST PUSH0 PUSH2 0x124D DUP6 DUP3 DUP7 ADD PUSH2 0x1068 JUMP JUMPDEST SWAP3 POP POP PUSH1 0x20 PUSH2 0x125E DUP6 DUP3 DUP7 ADD PUSH2 0x1068 JUMP JUMPDEST SWAP2 POP POP SWAP3 POP SWAP3 SWAP1 POP JUMP JUMPDEST PUSH0 PUSH1 0x20 DUP3 ADD SWAP1 POP PUSH2 0x127B PUSH0 DUP4 ADD DUP5 PUSH2 0x1149 JUMP JUMPDEST SWAP3 SWAP2 POP POP JUMP JUMPDEST PUSH0 PUSH2 0x128B DUP3 PUSH2 0x1022 JUMP JUMPDEST SWAP1 POP SWAP2 SWAP1 POP JUMP JUMPDEST PUSH2 0x129B DUP2 PUSH2 0x1281 JUMP JUMPDEST DUP2 EQ PUSH2 0x12A5 JUMPI PUSH0 DUP1 REVERT JUMPDEST POP JUMP JUMPDEST PUSH0 DUP2 CALLDATALOAD SWAP1 POP PUSH2 0x12B6 DUP2 PUSH2 0x1292 JUMP JUMPDEST SWAP3 SWAP2 POP POP JUMP JUMPDEST PUSH0 DUP1 PUSH1 0x40 DUP4 DUP6 SUB SLT ISZERO PUSH2 0x12D2 JUMPI PUSH2 0x12D1 PUSH2 0x101A JUMP JUMPDEST JUMPDEST PUSH0 PUSH2 0x12DF DUP6 DUP3 DUP7 ADD PUSH2 0x12A8 JUMP JUMPDEST SWAP3 POP POP PUSH1 0x20 PUSH2 0x12F0 DUP6 DUP3 DUP7 ADD PUSH2 0x12A8 JUMP JUMPDEST SWAP2 POP POP SWAP3 POP SWAP3 SWAP1 POP JUMP JUMPDEST PUSH0 DUP1 REVERT JUMPDEST PUSH0 DUP1 REVERT JUMPDEST PUSH32 0x4E487B7100000000000000000000000000000000000000000000000000000000 PUSH0 MSTORE PUSH1 0x41 PUSH1 0x4 MSTORE PUSH1 0x24 PUSH0 REVERT JUMPDEST PUSH2 0x1338 DUP3 PUSH2 0x10F8 JUMP JUMPDEST DUP2 ADD DUP2 DUP2 LT PUSH8 0xFFFFFFFFFFFFFFFF DUP3 GT OR ISZERO PUSH2 0x1357 JUMPI PUSH2 0x1356 PUSH2 0x1302 JUMP JUMPDEST JUMPDEST DUP1 PUSH1 0x40 MSTORE POP POP POP JUMP JUMPDEST PUSH0 PUSH2 0x1369 PUSH2 0x1011 JUMP JUMPDEST SWAP1 POP PUSH2 0x1375 DUP3 DUP3 PUSH2 0x132F JUMP JUMPDEST SWAP2 SWAP1 POP JUMP JUMPDEST PUSH0 PUSH8 0xFFFFFFFFFFFFFFFF DUP3 GT ISZERO PUSH2 0x1394 JUMPI PUSH2 0x1393 PUSH2 0x1302 JUMP JUMPDEST JUMPDEST PUSH2 0x139D DUP3 PUSH2 0x10F8 JUMP JUMPDEST SWAP1 POP PUSH1 0x20 DUP2 ADD SWAP1 POP SWAP2 SWAP1 POP JUMP JUMPDEST DUP3 DUP2 DUP4 CALLDATACOPY PUSH0 DUP4 DUP4 ADD MSTORE POP POP POP JUMP JUMPDEST PUSH0 PUSH2 0x13CA PUSH2 0x13C5 DUP5 PUSH2 0x137A JUMP JUMPDEST PUSH2 0x1360 JUMP JUMPDEST SWAP1 POP DUP3 DUP2 MSTORE PUSH1 0x20 DUP2 ADD DUP5 DUP5 DUP5 ADD GT ISZERO PUSH2 0x13E6 JUMPI PUSH2 0x13E5 PUSH2 0x12FE JUMP JUMPDEST JUMPDEST PUSH2 0x13F1 DUP5 DUP3 DUP6 PUSH2 0x13AA JUMP JUMPDEST POP SWAP4 SWAP3 POP POP POP JUMP JUMPDEST PUSH0 DUP3 PUSH1 0x1F DUP4 ADD SLT PUSH2 0x140D JUMPI PUSH2 0x140C PUSH2 0x12FA JUMP JUMPDEST JUMPDEST DUP2 CALLDATALOAD PUSH2 0x141D DUP5 DUP3 PUSH1 0x20 DUP7 ADD PUSH2 0x13B8 JUMP JUMPDEST SWAP2 POP POP SWAP3 SWAP2 POP POP JUMP JUMPDEST PUSH2 0x142F DUP2 PUSH2 0x1140 JUMP JUMPDEST DUP2 EQ PUSH2 0x1439 JUMPI PUSH0 DUP1 REVERT JUMPDEST POP JUMP JUMPDEST PUSH0 DUP2 CALLDATALOAD SWAP1 POP PUSH2 0x144A DUP2 PUSH2 0x1426 JUMP JUMPDEST SWAP3 SWAP2 POP POP JUMP JUMPDEST PUSH0 DUP1 PUSH0 PUSH1 0x60 DUP5 DUP7 SUB SLT ISZERO PUSH2 0x1467 JUMPI PUSH2 0x1466 PUSH2 0x101A JUMP JUMPDEST JUMPDEST PUSH0 DUP5 ADD CALLDATALOAD PUSH8 0xFFFFFFFFFFFFFFFF DUP2 GT ISZERO PUSH2 0x1484 JUMPI PUSH2 0x1483 PUSH2 0x101E JUMP JUMPDEST JUMPDEST PUSH2 0x1490 DUP7 DUP3 DUP8 ADD PUSH2 0x13F9 JUMP JUMPDEST SWAP4 POP POP PUSH1 0x20 DUP5 ADD CALLDATALOAD PUSH8 0xFFFFFFFFFFFFFFFF DUP2 GT ISZERO PUSH2 0x14B1 JUMPI PUSH2 0x14B0 PUSH2 0x101E JUMP JUMPDEST JUMPDEST PUSH2 0x14BD DUP7 DUP3 DUP8 ADD PUSH2 0x13F9 JUMP JUMPDEST SWAP3 POP POP PUSH1 0x40 PUSH2 0x14CE DUP7 DUP3 DUP8 ADD PUSH2 0x143C JUMP JUMPDEST SWAP2 POP POP SWAP3 POP SWAP3 POP SWAP3 JUMP JUMPDEST PUSH0 DUP2 ISZERO ISZERO SWAP1 POP SWAP2 SWAP1 POP JUMP JUMPDEST PUSH2 0x14EC DUP2 PUSH2 0x14D8 JUMP JUMPDEST DUP3 MSTORE POP POP JUMP JUMPDEST PUSH0 PUSH1 0x20 DUP3 ADD SWAP1 POP PUSH2 0x1505 PUSH0 DUP4 ADD DUP5 PUSH2 0x14E3 JUMP JUMPDEST SWAP3 SWAP2 POP POP JUMP JUMPDEST PUSH2 0x1514 DUP2 PUSH2 0x1281 JUMP JUMPDEST DUP3 MSTORE POP POP JUMP JUMPDEST PUSH0 PUSH1 0x20 DUP3 ADD SWAP1 POP PUSH2 0x152D PUSH0 DUP4 ADD DUP5 PUSH2 0x150B JUMP JUMPDEST SWAP3 SWAP2 POP POP JUMP JUMPDEST PUSH32 0x4E487B7100000000000000000000000000000000000000000000000000000000 PUSH0 MSTORE PUSH1 0x22 PUSH1 0x4 MSTORE PUSH1 0x24 PUSH0 REVERT JUMPDEST PUSH0 PUSH1 0x2 DUP3 DIV SWAP1 POP PUSH1 0x1 DUP3 AND DUP1 PUSH2 0x1577 JUMPI PUSH1 0x7F DUP3 AND SWAP2 POP JUMPDEST PUSH1 0x20 DUP3 LT DUP2 SUB PUSH2 0x158A JUMPI PUSH2 0x1589 PUSH2 0x1533 JUMP JUMPDEST JUMPDEST POP SWAP2 SWAP1 POP JUMP JUMPDEST PUSH32 0x596F7520617265206E6F74207468652070726F7065727479206F776E65720000 PUSH0 DUP3 ADD MSTORE POP JUMP JUMPDEST PUSH0 PUSH2 0x15C4 PUSH1 0x1E DUP4 PUSH2 0x10C0 JUMP JUMPDEST SWAP2 POP PUSH2 0x15CF DUP3 PUSH2 0x1590 JUMP JUMPDEST PUSH1 0x20 DUP3 ADD SWAP1 POP SWAP2 SWAP1 POP JUMP JUMPDEST PUSH0 PUSH1 0x20 DUP3 ADD SWAP1 POP DUP2 DUP2 SUB PUSH0 DUP4 ADD MSTORE PUSH2 0x15F1 DUP2 PUSH2 0x15B8 JUMP JUMPDEST SWAP1 POP SWAP2 SWAP1 POP JUMP JUMPDEST PUSH32 0x50726F7065727479206973206E6F742070656E64696E67000000000000000000 PUSH0 DUP3 ADD MSTORE POP JUMP JUMPDEST PUSH0 PUSH2 0x162C PUSH1 0x17 DUP4 PUSH2 0x10C0 JUMP JUMPDEST SWAP2 POP PUSH2 0x1637 DUP3 PUSH2 0x15F8 JUMP JUMPDEST PUSH1 0x20 DUP3 ADD SWAP1 POP SWAP2 SWAP1 POP JUMP JUMPDEST PUSH0 PUSH1 0x20 DUP3 ADD SWAP1 POP DUP2 DUP2 SUB PUSH0 DUP4 ADD MSTORE PUSH2 0x1659 DUP2 PUSH2 0x1620 JUMP JUMPDEST SWAP1 POP SWAP2 SWAP1 POP JUMP JUMPDEST PUSH32 0x596F7520617265206E6F74207468652062757965720000000000000000000000 PUSH0 DUP3 ADD MSTORE POP JUMP JUMPDEST PUSH0 PUSH2 0x1694 PUSH1 0x15 DUP4 PUSH2 0x10C0 JUMP JUMPDEST SWAP2 POP PUSH2 0x169F DUP3 PUSH2 0x1660 JUMP JUMPDEST PUSH1 0x20 DUP3 ADD SWAP1 POP SWAP2 SWAP1 POP JUMP JUMPDEST PUSH0 PUSH1 0x20 DUP3 ADD SWAP1 POP DUP2 DUP2 SUB PUSH0 DUP4 ADD MSTORE PUSH2 0x16C1 DUP2 PUSH2 0x1688 JUMP JUMPDEST SWAP1 POP SWAP2 SWAP1 POP JUMP JUMPDEST PUSH0 DUP2 SWAP1 POP DUP2 PUSH0 MSTORE PUSH1 0x20 PUSH0 KECCAK256 SWAP1 POP SWAP2 SWAP1 POP JUMP JUMPDEST PUSH0 PUSH1 0x20 PUSH1 0x1F DUP4 ADD DIV SWAP1 POP SWAP2 SWAP1 POP JUMP JUMPDEST PUSH0 DUP3 DUP3 SHL SWAP1 POP SWAP3 SWAP2 POP POP JUMP JUMPDEST PUSH0 PUSH1 0x8 DUP4 MUL PUSH2 0x1724 PUSH32 0xFFFFFFFFFFFFFFFFFFFFFFFFFFFFFFFFFFFFFFFFFFFFFFFFFFFFFFFFFFFFFFFF DUP3 PUSH2 0x16E9 JUMP JUMPDEST PUSH2 0x172E DUP7 DUP4 PUSH2 0x16E9 JUMP JUMPDEST SWAP6 POP DUP1 NOT DUP5 AND SWAP4 POP DUP1 DUP7 AND DUP5 OR SWAP3 POP POP POP SWAP4 SWAP3 POP POP POP JUMP JUMPDEST PUSH0 DUP2 SWAP1 POP SWAP2 SWAP1 POP JUMP JUMPDEST PUSH0 PUSH2 0x1769 PUSH2 0x1764 PUSH2 0x175F DUP5 PUSH2 0x1140 JUMP JUMPDEST PUSH2 0x1746 JUMP JUMPDEST PUSH2 0x1140 JUMP JUMPDEST SWAP1 POP SWAP2 SWAP1 POP JUMP JUMPDEST PUSH0 DUP2 SWAP1 POP SWAP2 SWAP1 POP JUMP JUMPDEST PUSH2 0x1782 DUP4 PUSH2 0x174F JUMP JUMPDEST PUSH2 0x1796 PUSH2 0x178E DUP3 PUSH2 0x1770 JUMP JUMPDEST DUP5 DUP5 SLOAD PUSH2 0x16F5 JUMP JUMPDEST DUP3 SSTORE POP POP POP POP JUMP JUMPDEST PUSH0 SWAP1 JUMP JUMPDEST PUSH2 0x17AA PUSH2 0x179E JUMP JUMPDEST PUSH2 0x17B5 DUP2 DUP5 DUP5 PUSH2 0x1779 JUMP JUMPDEST POP POP POP JUMP JUMPDEST JUMPDEST DUP2 DUP2 LT ISZERO PUSH2 0x17D8 JUMPI PUSH2 0x17CD PUSH0 DUP3 PUSH2 0x17A2 JUMP JUMPDEST PUSH1 0x1 DUP2 ADD SWAP1 POP PUSH2 0x17BB JUMP JUMPDEST POP POP JUMP JUMPDEST PUSH1 0x1F DUP3 GT ISZERO PUSH2 0x181D JUMPI PUSH2 0x17EE DUP2 PUSH2 0x16C8 JUMP JUMPDEST PUSH2 0x17F7 DUP5 PUSH2 0x16DA JUMP JUMPDEST DUP2 ADD PUSH1 0x20 DUP6 LT ISZERO PUSH2 0x1806 JUMPI DUP2 SWAP1 POP JUMPDEST PUSH2 0x181A PUSH2 0x1812 DUP6 PUSH2 0x16DA JUMP JUMPDEST DUP4 ADD DUP3 PUSH2 0x17BA JUMP JUMPDEST POP POP JUMPDEST POP POP POP JUMP JUMPDEST PUSH0 DUP3 DUP3 SHR SWAP1 POP SWAP3 SWAP2 POP POP JUMP JUMPDEST PUSH0 PUSH2 0x183D PUSH0 NOT DUP5 PUSH1 0x8 MUL PUSH2 0x1822 JUMP JUMPDEST NOT DUP1 DUP4 AND SWAP2 POP POP SWAP3 SWAP2 POP POP JUMP JUMPDEST PUSH0 PUSH2 0x1855 DUP4 DUP4 PUSH2 0x182E JUMP JUMPDEST SWAP2 POP DUP3 PUSH1 0x2 MUL DUP3 OR SWAP1 POP SWAP3 SWAP2 POP POP JUMP JUMPDEST PUSH2 0x186E DUP3 PUSH2 0x10B6 JUMP JUMPDEST PUSH8 0xFFFFFFFFFFFFFFFF DUP2 GT ISZERO PUSH2 0x1887 JUMPI PUSH2 0x1886 PUSH2 0x1302 JUMP JUMPDEST JUMPDEST PUSH2 0x1891 DUP3 SLOAD PUSH2 0x1560 JUMP JUMPDEST PUSH2 0x189C DUP3 DUP3 DUP6 PUSH2 0x17DC JUMP JUMPDEST PUSH0 PUSH1 0x20 SWAP1 POP PUSH1 0x1F DUP4 GT PUSH1 0x1 DUP2 EQ PUSH2 0x18CD JUMPI PUSH0 DUP5 ISZERO PUSH2 0x18BB JUMPI DUP3 DUP8 ADD MLOAD SWAP1 POP JUMPDEST PUSH2 0x18C5 DUP6 DUP3 PUSH2 0x184A JUMP JUMPDEST DUP7 SSTORE POP PUSH2 0x192C JUMP JUMPDEST PUSH1 0x1F NOT DUP5 AND PUSH2 0x18DB DUP7 PUSH2 0x16C8 JUMP JUMPDEST PUSH0 JUMPDEST DUP3 DUP2 LT ISZERO PUSH2 0x1902 JUMPI DUP5 DUP10 ADD MLOAD DUP3 SSTORE PUSH1 0x1 DUP3 ADD SWAP2 POP PUSH1 0x20 DUP6 ADD SWAP5 POP PUSH1 0x20 DUP2 ADD SWAP1 POP PUSH2 0x18DD JUMP JUMPDEST DUP7 DUP4 LT ISZERO PUSH2 0x191F JUMPI DUP5 DUP10 ADD MLOAD PUSH2 0x191B PUSH1 0x1F DUP10 AND DUP3 PUSH2 0x182E JUMP JUMPDEST DUP4 SSTORE POP JUMPDEST PUSH1 0x1 PUSH1 0x2 DUP9 MUL ADD DUP9 SSTORE POP POP POP JUMPDEST POP POP POP POP POP POP JUMP JUMPDEST PUSH0 PUSH1 0x40 DUP3 ADD SWAP1 POP DUP2 DUP2 SUB PUSH0 DUP4 ADD MSTORE PUSH2 0x194C DUP2 DUP6 PUSH2 0x1108 JUMP JUMPDEST SWAP1 POP PUSH2 0x195B PUSH1 0x20 DUP4 ADD DUP5 PUSH2 0x1149 JUMP JUMPDEST SWAP4 SWAP3 POP POP POP JUMP JUMPDEST PUSH32 0x436F6D706C657465204964656E7469747920566572696669636174696F6E2066 PUSH0 DUP3 ADD MSTORE PUSH32 0x69727374206265666F72652070726F63656564696E6700000000000000000000 PUSH1 0x20 DUP3 ADD MSTORE POP JUMP JUMPDEST PUSH0 PUSH2 0x19BC PUSH1 0x36 DUP4 PUSH2 0x10C0 JUMP JUMPDEST SWAP2 POP PUSH2 0x19C7 DUP3 PUSH2 0x1962 JUMP JUMPDEST PUSH1 0x40 DUP3 ADD SWAP1 POP SWAP2 SWAP1 POP JUMP JUMPDEST PUSH0 PUSH1 0x20 DUP3 ADD SWAP1 POP DUP2 DUP2 SUB PUSH0 DUP4 ADD MSTORE PUSH2 0x19E9 DUP2 PUSH2 0x19B0 JUMP JUMPDEST SWAP1 POP SWAP2 SWAP1 POP JUMP JUMPDEST PUSH32 0x50726F7065727479206973206E6F7420617661696C61626C6520666F72207075 PUSH0 DUP3 ADD MSTORE PUSH32 0x7263686173650000000000000000000000000000000000000000000000000000 PUSH1 0x20 DUP3 ADD MSTORE POP JUMP JUMPDEST PUSH0 PUSH2 0x1A4A PUSH1 0x26 DUP4 PUSH2 0x10C0 JUMP JUMPDEST SWAP2 POP PUSH2 0x1A55 DUP3 PUSH2 0x19F0 JUMP JUMPDEST PUSH1 0x40 DUP3 ADD SWAP1 POP SWAP2 SWAP1 POP JUMP JUMPDEST PUSH0 PUSH1 0x20 DUP3 ADD SWAP1 POP DUP2 DUP2 SUB PUSH0 DUP4 ADD MSTORE PUSH2 0x1A77 DUP2 PUSH2 0x1A3E JUMP JUMPDEST SWAP1 POP SWAP2 SWAP1 POP JUMP JUMPDEST PUSH32 0x596F752061726520616C72656164792076657269666965640000000000000000 PUSH0 DUP3 ADD MSTORE POP JUMP JUMPDEST PUSH0 PUSH2 0x1AB2 PUSH1 0x18 DUP4 PUSH2 0x10C0 JUMP JUMPDEST SWAP2 POP PUSH2 0x1ABD DUP3 PUSH2 0x1A7E JUMP JUMPDEST PUSH1 0x20 DUP3 ADD SWAP1 POP SWAP2 SWAP1 POP JUMP JUMPDEST PUSH0 PUSH1 0x20 DUP3 ADD SWAP1 POP DUP2 DUP2 SUB PUSH0 DUP4 ADD MSTORE PUSH2 0x1ADF DUP2 PUSH2 0x1AA6 JUMP JUMPDEST SWAP1 POP SWAP2 SWAP1 POP JUMP JUMPDEST PUSH32 0x496E73756666696369656E742066756E647320746F2076657269667920696465 PUSH0 DUP3 ADD MSTORE PUSH32 0x6E74697479000000000000000000000000000000000000000000000000000000 PUSH1 0x20 DUP3 ADD MSTORE POP JUMP JUMPDEST PUSH0 PUSH2 0x1B40 PUSH1 0x25 DUP4 PUSH2 0x10C0 JUMP JUMPDEST SWAP2 POP PUSH2 0x1B4B DUP3 PUSH2 0x1AE6 JUMP JUMPDEST PUSH1 0x40 DUP3 ADD SWAP1 POP SWAP2 SWAP1 POP JUMP JUMPDEST PUSH0 PUSH1 0x20 DUP3 ADD SWAP1 POP DUP2 DUP2 SUB PUSH0 DUP4 ADD MSTORE PUSH2 0x1B6D DUP2 PUSH2 0x1B34 JUMP JUMPDEST SWAP1 POP SWAP2 SWAP1 POP JUMP INVALID LOG2 PUSH5 0x6970667358 0x22 SLT KECCAK256 PUSH29 0xE0313058843B54CAAE34DD55E0178DB11264D6DC29F90CD45F8497872C DUP10 CALLCODE PUSH5 0x736F6C6343 STOP ADDMOD OR STOP CALLER "
				},
				"gasEstimates": {
					"creation": {
						"codeDepositCost": "1416400",
						"executionCost": "50453",
						"totalCost": "1466853"
					},
					"external": {
						"addProperty(string,string,uint256)": "infinite",
						"approvePurchase(address,address)": "infinite",
						"confirmPurchase(address,address)": "infinite",
						"contractOwner()": "2571",
						"getOwnerBalance()": "2982",
						"properties(address)": "infinite",
						"rejectPurchase(address,address)": "infinite",
						"requestPurchase(address)": "30977",
						"sellerApproval(address,address)": "infinite",
						"verifiedUsers(address)": "2921",
						"verifyIdentity()": "infinite"
					}
				},
				"methodIdentifiers": {
					"addProperty(string,string,uint256)": "913a8e80",
					"approvePurchase(address,address)": "46d3d672",
					"confirmPurchase(address,address)": "8a0684a3",
					"contractOwner()": "ce606ee0",
					"getOwnerBalance()": "590791f2",
					"properties(address)": "25ec77d7",
					"rejectPurchase(address,address)": "acd7e4ac",
					"requestPurchase(address)": "c5cabf9a",
					"sellerApproval(address,address)": "9ca4d7e7",
					"verifiedUsers(address)": "e35fe366",
					"verifyIdentity()": "e8731c32"
				}
			},
			"storageLayout": {
				"storage": [
					{
						"astId": 3,
						"contract": "DecentralisedProperty.sol:DecentralisedProperty",
						"label": "contractOwner",
						"offset": 0,
						"slot": "0",
						"type": "t_address_payable"
					},
					{
						"astId": 24,
						"contract": "DecentralisedProperty.sol:DecentralisedProperty",
						"label": "properties",
						"offset": 0,
						"slot": "1",
						"type": "t_mapping(t_address,t_struct(propertyInfo)19_storage)"
					},
					{
						"astId": 30,
						"contract": "DecentralisedProperty.sol:DecentralisedProperty",
						"label": "sellerApproval",
						"offset": 0,
						"slot": "2",
						"type": "t_mapping(t_address,t_mapping(t_address,t_bool))"
					},
					{
						"astId": 34,
						"contract": "DecentralisedProperty.sol:DecentralisedProperty",
						"label": "verifiedUsers",
						"offset": 0,
						"slot": "3",
						"type": "t_mapping(t_address,t_bool)"
					},
					{
						"astId": 77,
						"contract": "DecentralisedProperty.sol:DecentralisedProperty",
						"label": "OwnerBalance",
						"offset": 0,
						"slot": "4",
						"type": "t_uint256"
					}
				],
				"types": {
					"t_address": {
						"encoding": "inplace",
						"label": "address",
						"numberOfBytes": "20"
					},
					"t_address_payable": {
						"encoding": "inplace",
						"label": "address payable",
						"numberOfBytes": "20"
					},
					"t_bool": {
						"encoding": "inplace",
						"label": "bool",
						"numberOfBytes": "1"
					},
					"t_enum(PropertyStatus)7": {
						"encoding": "inplace",
						"label": "enum DecentralisedProperty.PropertyStatus",
						"numberOfBytes": "1"
					},
					"t_mapping(t_address,t_bool)": {
						"encoding": "mapping",
						"key": "t_address",
						"label": "mapping(address => bool)",
						"numberOfBytes": "32",
						"value": "t_bool"
					},
					"t_mapping(t_address,t_mapping(t_address,t_bool))": {
						"encoding": "mapping",
						"key": "t_address",
						"label": "mapping(address => mapping(address => bool))",
						"numberOfBytes": "32",
						"value": "t_mapping(t_address,t_bool)"
					},
					"t_mapping(t_address,t_struct(propertyInfo)19_storage)": {
						"encoding": "mapping",
						"key": "t_address",
						"label": "mapping(address => struct DecentralisedProperty.propertyInfo)",
						"numberOfBytes": "32",
						"value": "t_struct(propertyInfo)19_storage"
					},
					"t_string_storage": {
						"encoding": "bytes",
						"label": "string",
						"numberOfBytes": "32"
					},
					"t_struct(propertyInfo)19_storage": {
						"encoding": "inplace",
						"label": "struct DecentralisedProperty.propertyInfo",
						"members": [
							{
								"astId": 9,
								"contract": "DecentralisedProperty.sol:DecentralisedProperty",
								"label": "owner",
								"offset": 0,
								"slot": "0",
								"type": "t_address"
							},
							{
								"astId": 11,
								"contract": "DecentralisedProperty.sol:DecentralisedProperty",
								"label": "name",
								"offset": 0,
								"slot": "1",
								"type": "t_string_storage"
							},
							{
								"astId": 13,
								"contract": "DecentralisedProperty.sol:DecentralisedProperty",
								"label": "description",
								"offset": 0,
								"slot": "2",
								"type": "t_string_storage"
							},
							{
								"astId": 15,
								"contract": "DecentralisedProperty.sol:DecentralisedProperty",
								"label": "price",
								"offset": 0,
								"slot": "3",
								"type": "t_uint256"
							},
							{
								"astId": 18,
								"contract": "DecentralisedProperty.sol:DecentralisedProperty",
								"label": "status",
								"offset": 0,
								"slot": "4",
								"type": "t_enum(PropertyStatus)7"
							}
						],
						"numberOfBytes": "160"
					},
					"t_uint256": {
						"encoding": "inplace",
						"label": "uint256",
						"numberOfBytes": "32"
					}
				}
			},
			"userdoc": {
				"kind": "user",
				"methods": {},
				"version": 1
			}
		}
	}
}